:020000040800F2
:1000000000000220BD930008499300084D930008AA
:100010005193000855930008599300080000000010
:100020000000000000000000000000005D930008D8
:1000300061930008000000006593000869930008C0
:100040000D9400080D9400080D9400080D9400080C
:100050000D9400080D9400080D9400080D940008FC
:100060000D9400080D9400080D9400080D940008EC
:100070000D9400080D9400080D9400080D940008DC
:100080000D9400080D9400080D9400080D940008CC
:100090000D9400080D9400080D9400080D940008BC
:1000A0000D9400080D9400080D9400080D940008AC
:1000B0000D9400086D9300080D94000891930008BA
:1000C0009D9300080D9400080D9400080D940008FD
:1000D0000D94000879930008859300080D9400089A
:1000E0000D9400080D9400080D9400080D9400086C
:1000F0000D9400080D9400080D9400080D9400085C
:100100000D9400080D9400080D9400080D9400084B
:100110000D9400080D9400080D9400080D9400083B
:100120000D9400080D9400080D9400080D9400082B
:100130000D94000800000000000000000D9400086D
:100140000D9400080D9400080D9400080D9400080B
:100150000D9400080D9400080D9400080D940008FB
:100160000D9400080D9400080D9400080D940008EB
:100170000D9400080D94000800000000000000002D
:080180000D9400080D94000825
:1001900001F0FF01102A2BDB10F0070F08D010F838
:1001A000013B013A8B422DD010F0070F42B3F6D13C
:1001B000F0B441EA012141EA014122F007047FF055
:1001C00000070023F0E80256083C85EA010586EAAC
:1001D000010685FA47F5A3FA87F586FA47F6A5FAE8
:1001E00087F68EB9EED1F0BC01F0FF0102F00702F4
:1001F00032B110F8013B013A83EA010313B1F8D19F
:100200000020704701387047002D06BF354603387F
:10021000073815F0010F07D1013015F4807F02BFB8
:10022000013015F4C03F0130F0BC0138704700BF09
:10023000034613F8012B002AFBD1181A0138704726
:1002400081F0004102E000BF83F0004330B54FEA87
:1002500041044FEA430594EA050F08BF90EA020FF4
:100260001FBF54EA000C55EA020C7FEA645C7FEA87
:10027000655C00F0E2804FEA5454D4EB5555B8BFAA
:100280006D420CDD2C4480EA020281EA030382EA1B
:10029000000083EA010180EA020281EA0303362DAD
:1002A00088BF30BD11F0004F4FEA01314FF4801C80
:1002B0004CEA113102D0404261EB410113F0004F92
:1002C0004FEA03334CEA133302D0524263EB430349
:1002D00094EA050F00F0A780A4F10104D5F1200EE7
:1002E0000DDB02FA0EFC22FA05F2801841F1000142
:1002F00003FA0EF2801843FA05F359410EE0A5F116
:1003000020050EF1200E012A03FA0EFC28BF4CF046
:10031000020C43FA05F3C01851EBE37101F00045FC
:1003200007D54FF0000EDCF1000C7EEB00006EEB09
:100330000101B1F5801F1BD3B1F5001F0CD3490893
:100340005FEA30004FEA3C0C04F101044FEA4452EA
:1003500012F5800F80F09A80BCF1004F08BF5FEA71
:10036000500C50F1000041EB045141EA050130BD51
:100370005FEA4C0C404141EB0101013C28BFB1F563
:10038000801FE9D291F0000F04BF01460020B1FAAE
:1003900081F308BF2033A3F10B03B3F120020CDA81
:1003A0000C3208DD02F1140CC2F10C0201FA0CF05F
:1003B00021FA02F10CE002F11402D8BFC2F1200CC4
:1003C00001FA02F120FA0CFCDCBF41EA0C0190407A
:1003D000E41AA2BF01EB0451294330BD6FEA0404C3
:1003E0001F3C1CDA0C340EDC04F11404C4F12002AE
:1003F00020FA04F001FA02F340EA030021FA04F3C0
:1004000045EA030130BDC4F10C04C4F1200220FA16
:1004100002F001FA04F340EA0300294630BD21FA54
:1004200004F0294630BD94F0000F83F4801306BF1A
:1004300081F480110134013D4EE77FEA645C18BF0E
:100440007FEA655C29D094EA050F08BF90EA020FA5
:1004500005D054EA000C04BF1946104630BD91EA9D
:10046000030F1EBF0021002030BD5FEA545C05D1A0
:100470004000494128BF41F0004130BD14F58004DF
:100480003CBF01F5801130BD01F0004545F0FE4153
:1004900041F470014FF0000030BD7FEA645C1ABF88
:1004A000194610467FEA655C1CBF0B46024650EABF
:1004B000013406BF52EA033591EA030F41F40021EB
:1004C00030BD00BF90F0000F04BF0021704730B571
:1004D0004FF4806404F132044FF000054FF0000146
:1004E00050E700BF90F0000F04BF0021704730B507
:1004F0004FF4806404F1320410F0004548BF4042DC
:100500004FF000013EE700BF42004FEAE2014FEA30
:1005100031014FEA02701FBF12F07F4393F07F4F0B
:1005200081F06051704732F07F4208BF704793F00E
:100530007F4F04BF41F40021704730B54FF4607421
:1005400001F0004521F000411CE700BF50EA010224
:1005500008BF704730B54FF000050AE050EA0102CD
:1005600008BF704730B511F0004502D5404261EB3D
:1005700041014FF4806404F132045FEA915C3FF47E
:10058000D8AE4FF003025FEADC0C18BF03325FEA1B
:10059000DC0C18BF033202EBDC02C2F1200300FACC
:1005A00003FC20FA02F001FA03FE40EA0E0021FAF1
:1005B00002F11444BDE600BF70B54FF0FF0C4CF4DF
:1005C000E06C1CEA11541DBF1CEA135594EA0C0F91
:1005D00095EA0C0F00F0DEF82C4481EA030621EACC
:1005E0004C5123EA4C5350EA013518BF52EA033507
:1005F00041F4801143F4801338D0A0FB02CE4FF0B9
:100600000005E1FB02E506F00042E0FB03E54FF0E8
:100610000006E1FB03569CF0000F18BF4EF0010EE0
:10062000A4F1FF04B6F5007F64F5407404D25FEADC
:100630004E0E6D4146EB060642EAC62141EA55518F
:100640004FEAC52040EA5E504FEACE2EB4F1FD0CD1
:1006500088BFBCF5E06F1ED8BEF1004F08BF5FEA4F
:10066000500E50F1000041EB045170BD06F0004601
:1006700046EA010140EA020081EA0301B4EB5C04AE
:10068000C2BFD4EB0C0541EA045170BD41F48011A6
:100690004FF0000E013C00F3AB8014F1360FDEBFCB
:1006A000002001F0004170BDC4F10004203C35DAA7
:1006B0000C341BDC04F11404C4F1200500FA05F32A
:1006C00020FA04F001FA05F240EA020001F00042CB
:1006D00021F0004110EBD37021FA04F642EB060141
:1006E0005EEA430E08BF20EAD37070BDC4F10C046B
:1006F000C4F1200500FA04F320FA05F001FA04F22F
:1007000040EA020001F0004110EBD37041F100011A
:100710005EEA430E08BF20EAD37070BDC4F1200525
:1007200000FA05F24EEA020E20FA04F301FA05F28D
:1007300043EA020321FA04F001F0004121FA04F235
:1007400020EA020000EBD3705EEA430E08BF20EA05
:10075000D37070BD94F0000F0FD101F0004640003F
:1007600041EB010111F4801F08BF013CF7D041EAC1
:10077000060195F0000F18BF704703F000465200C5
:1007800043EB030313F4801F08BF013DF7D043EA96
:100790000603704794EA0C0F0CEA135518BF95EA4C
:1007A0000C0F0CD050EA410618BF52EA4306D1D1D3
:1007B00081EA030101F000414FF0000070BD50EAF2
:1007C000410606BF1046194652EA430619D094EA7C
:1007D0000C0F02D150EA013613D195EA0C0F05D166
:1007E00052EA03361CBF104619460AD181EA0301BA
:1007F00001F0004141F0FE4141F470014FF0000072
:1008000070BD41F0FE4141F4780170BD70B54FF00C
:10081000FF0C4CF4E06C1CEA11541DBF1CEA13558C
:1008200094EA0C0F95EA0C0F00F0A7F8A4EB05046E
:1008300081EA030E52EA03354FEA013100F0888065
:100840004FEA03334FF0805545EA131343EA12632E
:100850004FEA022245EA111545EA10654FEA0026E3
:100860000EF000419D4208BF964244F1FD0404F59C
:10087000407402D25B084FEA3202B61A65EB0305F8
:100880005B084FEA32024FF480104FF4002CB6EBB5
:10089000020E75EB030E22BFB61A754640EA0C0035
:1008A0005B084FEA3202B6EB020E75EB030E22BF75
:1008B000B61A754640EA5C005B084FEA3202B6EBB6
:1008C000020E75EB030E22BFB61A754640EA9C0075
:1008D0005B084FEA3202B6EB020E75EB030E22BF45
:1008E000B61A754640EADC0055EA060E18D04FEA03
:1008F000051545EA16754FEA06164FEAC30343EAA3
:1009000052734FEAC2025FEA1C1CC0D111F4801F6F
:100910000BD141EA00014FF000004FF0004CB6E768
:1009200011F4801F04BF01430020B4F1FD0C88BF07
:10093000BCF5E06F3FF6AFAEB5EB030C04BFB6EB12
:10094000020C5FEA500C50F1000041EB045170BD05
:100950000EF0004E4EEA113114EB5C04C2BFD4EB32
:100960000C0541EA045170BD41F480114FF0000EB6
:10097000013C90E645EA060E8DE60CEA135594EA32
:100980000C0F08BF95EA0C0F3FF43BAF94EA0C0F35
:100990000AD150EA01347FF434AF95EA0C0F7FF4AA
:1009A00025AF104619462CE795EA0C0F06D152EAFE
:1009B00003353FF4FDAE1046194622E750EA4106E2
:1009C00018BF52EA43067FF4C5AE50EA41047FF4F3
:1009D0000DAF52EA43057FF4EBAE12E74FF0FF3C58
:1009E00006E000BF4FF0010C02E000BF4FF0010C29
:1009F0004DF804CD4FEA410C7FEA6C5C4FEA430CA2
:100A000018BF7FEA6C5C1BD001B050EA410C0CBFF0
:100A100052EA430C91EA030F02BF90EA020F002052
:100A2000704710F1000F91EA030F58BF994208BFB9
:100A300090422CBFD8176FEAE37040F00100704776
:100A40004FEA410C7FEA6C5C02D150EA013C07D1CD
:100A50004FEA430C7FEA6C5CD6D152EA033CD3D018
:100A60005DF8040B704700BF8446104662468C4612
:100A70001946634600E000BF01B5FFF7B7FF002845
:100A800048BF10F1000F01BD4DF808EDFFF7F4FF6E
:100A90000CBF012000205DF808FB00BF4DF808EDF9
:100AA000FFF7EAFF34BF012000205DF808FB00BF1C
:100AB0004DF808EDFFF7E0FF94BF012000205DF83E
:100AC00008FB00BF4DF808EDFFF7CEFF94BF0120F3
:100AD00000205DF808FB00BF4DF808EDFFF7C4FFEC
:100AE00034BF012000205DF808FB00BF4FEA410C35
:100AF0007FEA6C5C02D150EA013C0AD14FEA430C18
:100B00007FEA6C5C02D152EA033C02D14FF0000054
:100B100070474FF0010070474FEA410212F5001292
:100B200015D211D56FF47873B3EB625212D94FEA34
:100B3000C12343F0004343EA505311F0004F23FA1E
:100B400002F018BF404270474FF00000704750EA73
:100B5000013005D111F0004008BF6FF00040704730
:100B60004FF00000704700BF53B94AB9002908BFD1
:100B700000281CBF4FF0FF314FF0FF3000F00CB8E1
:100B8000ADF1080C6DE904CE0BF0FEFEDDF804E0DB
:100B9000DDE9022304B07047704700BF0348044BEF
:100BA000834202D0034B03B118477047E80100208D
:100BB000E8010020000000000548064B1B1AD90F71
:100BC00001EBA301491002D0034B03B11847704752
:100BD000E8010020E80100200000000010B5064CEC
:100BE000237843B9FFF7DAFF044B13B10448AFF39E
:100BF00000800123237010BDE801002000000000E8
:100C000048CD000808B5054B1BB105490548AFF3B1
:100C10000080BDE80840FFF7CFBF00BF0000000024
:100C2000EC01002048CD0008B0FA80F238B5520936
:100C300004460D460E48102105F0C6F8A4F1010245
:100C4000B2FA82F20A482021520905F0BDF8A4F157
:100C50000202B2FA82F206484021520905F0B4F8C5
:100C60002A460348BDE83840802105F0ADB800BFF2
:100C7000000002402DE9F0418EB004F091FB0446E3
:100C80005E4890F8083A2BB15D4A1368E31AB3F551
:100C90007A7F02D20EB0BDE8F0815A4B1460196819
:100CA0004B6A59491D4600F08DFF564B002800F055
:100CB0008880196855484A6A554E521B4D6A5249F8
:100CC0000B9201F02FF8514801F01AFA4D4B0B9A94
:100CD0001B685B6A08925B1B4E4D09932B680133BE
:100CE00080462B6030680D93FFF70EFC3746CDE948
:100CF000060157F8040DFFF707FCCDE90401334660
:100D000053F8080D0B93FFF7FFFB0D9B424ACDF8FC
:100D10000080CDE9020180214048CDF8308009F003
:100D2000DFFC81B23D4801F03BFDDDF83080002161
:100D30004046FFF779FF0B9B394A93ED001A394B78
:100D400096ED002AD3ED010A93ED000AD7ED001AC3
:100D5000137828682146424602F096FB0B9996EDDF
:100D6000001A91ED000AD7ED000A274900914FF4CF
:100D7000FA7201922A4A2868127821462A4C434680
:100D800002F00AFC2378012B84D8254B1E491A78DF
:100D9000204601F0A3FA00283FF47CAF04F580441C
:100DA0001F4B94F8360E1978204A2B6800910A24BC
:100DB000CDE901048021194809F092FC81B217485D
:100DC00017E01B4CDFF854C00FCCCCF80000CCF877
:100DD0000410CCF8082007CCCCF80C302378CCF8E1
:100DE0001000CCF8141060461C21CCF818208CF8A8
:100DF0001C300EB0BDE8F04101F0D2BCA45501207A
:100E0000040200202C60012010020020585800200D
:100E1000ACD600200802002080CD00085C610120D3
:100E20000C020020E0090020100A0020D4CD0008A8
:100E300060CD0008794B1A7802B9704710B5784A2E
:100E400000218CB019701378303B472B28D8DFE88D
:100E500003F03355752727272727272727272727F5
:100E60002727272727272727272727272727272712
:100E70002727272727272727272727272727272702
:100E80002727272727272727952727272727B727F4
:100E900027272727DD2427E1272F624801F0B6FB0B
:100EA0005F49614801220CB0BDE8104005F0E2B88E
:100EB0005E4801F045F9F3E7DFF88CC1DFF87CE12B
:100EC000BCE80F00CEF80820594ACEF804100021E3
:100ED000CEF800001170BCE80700CEF80C30CEF858
:100EE00010009CF80030CEF8141070461C21CEF88B
:100EF00018208EF81C3001F053FCD1E7DFF84CC10C
:100F0000DFF838E1BCE80F00CEF80000CEF804109E
:100F1000CEF80820CEF80C30BCE80F00CEF8182030
:100F2000434ACEF81000CEF81410CEF81C307046AC
:100F300001231F21137001F033FCB1E7DFF810C16A
:100F4000DFF8F8E0BCE80F00CEF80000CEF804109F
:100F5000CEF80820CEF80C30BCE80F00CEF81820F0
:100F6000334ACEF81000CEF81410CEF81C3070467C
:100F700002231F21137001F013FC91E702F0F2FB32
:100F80002C4CDFF8B8E0A446BCE80F00CEF80C30DB
:100F9000294BCEF800009C450EF1100E04F1100410
:100FA0004EF80C1C4EF8082CEDD12068A388CEF822
:100FB000000025212148AEF8043001F0F1FB6FE775
:100FC00005A802F0F1FBDDE90513079C1C4A00911E
:100FD000CDE9013480219DF82C30184809F080FBC0
:100FE00081B2164801F0DCFBDDE908130A9C009190
:100FF000CDE90134134A9DF82D301048802109F0C5
:101000006FFB81B20D4801F0CBFB49E7054801F0C9
:10101000CDFA45E7034801F099FA41E70D020020B7
:101020000E020020100A002078600120585800208D
:101030000C02002000CF000820CF00085C610120D6
:1010400078CE0008BCCE000818CE000838CE0008C4
:1010500058CE0008164A1378023B032B00D970477C
:1010600070B5144B02F580441878D4F8386E01211D
:10107000FFF7DAFDA4F5804001F002FB0D4B0021E3
:101080001878FFF7D1FDD4F8385EAE420FD004F0E7
:1010900087F904F5646393ED000AD4F83C2E94F8C4
:1010A000443E01462846BDE8704002F041BA70BD9A
:1010B000100A00200C02002008B5144B1A7802B95F
:1010C00008BD134A13481268002119701249536A67
:1010D00000F0F2FB60B9114A0F49114800F01AFC08
:1010E0000E49104800F042FD094B1B685B6A08BDC1
:1010F0000D4B0E4A1B680E48802109F0F1FABDE83D
:10110000084081B20A4801F04BBB00BF0F0200202B
:101110002C600120C45F0120F4090020E0090020B8
:10112000B05F0120A45501200802002028CF00084C
:101130005C61012070B5A2B00024AD4B05941A6B20
:1011400042F008021A631B6B10944FF470400121A7
:1011500003F00803CDE90C010593A648059B0CA9F3
:10116000CDE90E4404F078FC0122A2484FF470410E
:1011700004F02AFE0694A04A069B934205DC069BD7
:1011800001330693069B9342F9DD00224FF4704130
:101190009848974D002404F017FE04F0DBF8002176
:1011A000302216A809F012FBCDE91144CDE9134411
:1011B0000A9415942A6C914B42F080522A642A6C4E
:1011C00002F080520A920A9A0B941A6842F4804202
:1011D0001A601B6803F480430B930B9B01224FF4AE
:1011E00080330226CDE916234FF48003CDE91C633A
:1011F00008224FF4A873CDE91E2316A80222072364
:10120000CDE9202304F04CF90F234FF4A05C119397
:1012100005214FF4805311A8CDE914C3CDE9126420
:1012200004F05CFBCDE9184407941A942B6B7148C9
:1012300043F001032B632B6B03F001030793079B20
:1012400008942B6B33432B632B6B33400893089B21
:1012500009942B6B43F004032B632B6B03F0040303
:101260000993099B11942B6B43F008032B632B6BA1
:1012700003F0080311934FF47042012316A9CDE93E
:101280001623119B04F0E8FB5A4822464FF47041A4
:1012900004F09AFD01254FF40413012258481895D3
:1012A00016A9CDE9162304F0D7FB314622460620C5
:1012B00004F0A0F8062004F0CFF84FF404134FF424
:1012C00000525048189416A9CDE9162304F0C4FB27
:1012D00022460321282004F08DF8282004F0BCF8D1
:1012E00049494A4A4A4B0C62C1E9002308464FF477
:1012F0008043C1E90434C1E90244C1E9064405F070
:10130000F3FA444A444B13600C264FF4E133104681
:10131000C2E904465360C2E90244C2E9064404F04B
:10132000F9FD3E4BDFF824E15E611846C3E9024453
:101330001C619C61DC614FF46123C0E900E304F0AF
:10134000E9FD374A4FF080415323C2E900131046AC
:101350004FF0FF33D36094601461946106F034FE63
:10136000304A3148946040F24733C2E90003802696
:1013700040F2E7331046D3601461966106F024FE14
:10138000224629461D2004F035F81D2004F064F89B
:1013900001F00EFA234806F0BDFC244801F0ECFAF7
:1013A000234800F049FC1D4A2149224800F070FF03
:1013B000214800F09FFA214800F0D2FB1249204852
:1013C00000F09EF90346002842D031461D4A1E48CF
:1013D00009F086F981B21C4801F0E2F905484FF4A2
:1013E000804104F0F5FC642003F0E0FFF6E700BF65
:1013F00000380240000C02403F420F0000700040E5
:101400000000024000080240086101200054004032
:10141000801A06007860012000440040C06001206E
:101420002C600120E45F0120000400403412CDABA9
:1014300058580020100A0020B05F0120A455012058
:10144000C45F012050CF00085C6101200010014002
:10145000574E584D06F1300C34460FCC644505F11B
:10146000100506F1100645F8100C45F80C1C45F85F
:10147000082C45F8043CEFD12F214E484E4E4D4DDF
:1014800001F08EF94D4801F097FA4D4801F094FAB9
:101490004C4801F091FA4C4801F08EFA4B4801F0AB
:1014A0008BFA01F0D3FA06F1300C34460FCC6445C8
:1014B00005F1100506F1100645F8100C45F80C1C56
:1014C00045F8082C45F8043CEFD1B3783288AB706E
:1014D00038482A80322101F063F93D493D48012214
:1014E00004F0C8FD01224FF480513B4804F06CFC2D
:1014F000642003F05BFF00224FF48051364804F073
:1015000063FC642003F052FF344932484FF4FA730D
:101510001C2204F033FD00283FD1314E254C06F14A
:10152000300C35460FCD654504F1100406F1100668
:1015300044F8100C44F80C1C44F8082C44F8043C03
:10154000EFD103CE338820606160238119483921AF
:1015500001F026F90A244FF4FA7303201021CDE993
:101560000031204ACDE902048021124809F0B8F880
:101570004021104801F014F901F060F901F092FAED
:1015800080210346184A0B4809F0AAF881B209489D
:1015900001F006F901F070FAFCE7322003F006FFD3
:1015A0000E490C484FF4FA731C2204F0E7FCB4E730
:1015B0008CCF00085C610120BCCF000828DF000848
:1015C0001CDF000810DF00080800002004DF00080E
:1015D0000E02002078600120000C0240F0CF0008CD
:1015E00010D000084CD000088CD00008044B0268D2
:1015F0009A4200D07047034B01221A70704700BF17
:10160000000400400F020020044B02689A4200D000
:101610007047034B01221A70704700BF004400401E
:101620000D02002010B54FF00A0C88B00E23CDE952
:10163000013C04AB0093144601233B2205F01AFA47
:10164000034638BBBDF810C0BDF81210BDF8140039
:101650001A469CFA9CFC6CF30F0249BA61F31F42D4
:101660002260BDF81A20BDF8181052BA6281BDF888
:101670001C2049BA218152BABDF81610A28140BA85
:101680001A4649BA60F30F0261F31F4218466260BE
:1016900008B010BD064A0748802109F021F881B240
:1016A000044801F07DF80123184608B010BD00BFC2
:1016B000F8D000085C61012030B50A2385B0012410
:1016C000CDE9014300920D460A46234601790068A0
:1016D00005F0D0F908B905B030BD074A00902B4697
:1016E0008021064808F0FCFF81B2044801F058F858
:1016F000204605B030BD00BF24D100085C61012048
:1017000030B5002385B0D0250022016005718283A9
:101710008360C3600361436183610DF10F02752132
:101720000446FFF7C9FF054688BB9DF80F30682BBC
:1017300030D1204A2048802108F0D2FF1E482221C3
:1017400001F02EF80123DFF87CE0DFF86CC023778E
:1017500074460FCCCCF80C30184BCCF800009C42EF
:101760000CF1100C0EF1100E4CF80C1C4CF8082C5F
:10177000EED1BEE803009EF80030CCF80000CCF8B3
:1017800004100D488CF80830382101F009F828467B
:1017900005B030BD68210A4A00910748802108F051
:1017A0009FFF05483A2100F0FBFF0225284605B0BF
:1017B00030BD00BF94D100085C610120ECD100086D
:1017C00054D10008BCD10008B1F900309FED356A52
:1017D000DFED356A90ED057A9FED345ADFED345A2E
:1017E00007EE903AF8EEE77A67EE867A67EEA67A29
:1017F00077EEC77A9FED2F7AC2ED007AB1F9023009
:10180000D0ED064A07EE903AF8EEE77A67EE867A70
:1018100067EEA67A77EEE47AC2ED017AB1F9043088
:1018200007EE903AF8EEE77A67EE867A67EEA67AE8
:10183000C2ED027AB1F9083090ED026A06EE903AF4
:10184000F8EEE66AC6EE877A77EEC67AC2ED037ADC
:10185000B1F90A3090ED036A06EE903AF8EEE66AC6
:10186000C6EE877A77EEC67AC2ED047AB1F90C300B
:1018700090ED046A06EE903AF8EEE66AC6EE877AD4
:1018800077EEC67AC2ED057AB1F9063007EE103A66
:10189000B8EEC77AC7EE057A77EEA57AC2ED067A7A
:1018A000704700BF000080380AE81C410000AA43CE
:1018B000B81E12420000034330B5037F87B0A3B1C6
:1018C00003460D4602AA017900680193FFF7AAFEBC
:1018D000044610B1204607B030BD01982A4602A93F
:1018E000FFF772FF204607B030BD0424204607B042
:1018F00030BD00BF0023DFF818C004490360002298
:101900004360C0F808C0C160027470470AD7233C26
:1019100048E17A3F00B52DED068BD1ED009AD1ED6F
:10192000028A9FED4D9A91ED018A9FED4CAA68EED7
:10193000A88A69EEA97A85B077EEA87AB0EE480A4F
:10194000F1EEE70ACDE901200391B4EEE09AF1EE61
:1019500010FAC8BFF0EE490A07F05AFD28EE088ACF
:10196000F0EE407A38EE288AB0EE690AF1EEC80A45
:1019700067EE8A8AB4EEE09AF1EE10FAC8BFF0EE94
:10198000490A07F045FD0298019A037C039920EE6D
:101990000A0ADBBB0123037480ED010AC0ED008A53
:1019A000D1ED046A91ED037AD1ED055AD1ED007ABB
:1019B00091ED016A26EEA65A27EE077AD1ED026A6A
:1019C000C2ED008A37EE057A65EEA55A26EE066A64
:1019D00067EEA77A37EE257A77EE867A66EEA66A04
:1019E000B1EEC76A4368536077EEA67A92ED027A49
:1019F00082ED026AF1EEE76A76EE477AC2ED036A9B
:101A0000C2ED047A05B0BDEC068B00BDD0ED037AC3
:101A1000D1ED046A91ED037A90ED026A90ED005ADF
:101A2000D0ED015A27EE877A67EEA67AF7EE006AC4
:101A300076EEC66A37EE057A77EEA57A27EE067A55
:101A400066EEA88A67EE867A26EE800A77EE288A06
:101A500037EE800AA0E700BFBD378635E02E65422D
:101A6000002961D000B5DFED3C7A85B003468A00DD
:101A700000EB810E8446BCEC017AE64577EE877A6E
:101A8000F9D106EE901AB8EEE66A9FED337AC7EE0A
:101A9000866AF3EC017A77EEE67A9E4567EEA77ADE
:101AA00037EE277AF5D10129034629D0013907EE0F
:101AB000901AF8EEE77A87EE270AB5EE400AF1EEC3
:101AC00010FA35D4F1EEC07A9FED247AF4EEC77A9D
:101AD000F1EE10FA22D49FED217A77EE877AB7EEF5
:101AE000006A86EE277A1A44D3ED007A77EEE67A1A
:101AF00067EE877AE3EC017A9A42F5D105B000BD32
:101B0000B5EE407AF1EE10FA1FD4F1EEC77A9FEDF0
:101B1000137AF4EEC77AF1EE10FADCD5002105B0A5
:101B20005DF804EB08F052BE0A46002108F04EBEF4
:101B3000CDE90220CDED016A07F0D8FCDDE90223F2
:101B4000DDED016AF0EE407AC5E7CDE90220CDED8A
:101B5000016AB0EE470AEFE70000000095BFD633F8
:101B600040F60C22002108F031BE00BFD0F8002A58
:101B7000D1F800C002F07F0303EB830300EB830383
:101B80000132C3F800C0D1F804C0C3F804C0D1F8D2
:101B900008C0C3F808C0D1F80CC0C3F80CC009696C
:101BA0001961D0F8043AC0F8002A7F2B03D9012329
:101BB00080F8083A70470133632BC0F8043AF6D82E
:101BC000704700BF38B590F8083A93B3D0F8003AA0
:101BD0000D460C4601F5966EA3F1640C01F5C87133
:101BE0002A460CF07F0303EB830300EB8303D3ED62
:101BF000007AE2EC017AD3ED017AC2ED637AD3ED9B
:101C0000027AC2EDC77AD3ED037AEEEC017A1B6952
:101C1000CEF88C318A420CF1010CE2D105F5FA655F
:101C20002046642104F5C874FFF71AFFA542F7D1D6
:101C30000123184638BD00BF2DE9F04100F570437F
:101C40002DED028B03F6FC42054631489FED318AAB
:101C500086B0106005F57D424FF00008002105F5C3
:101C60007D40116005F5FC474022C3F8048D83F8E0
:101C7000488D4146083005F5FA4608F0A7FD402298
:101C80004146304608F0A2FD2C46C7F80080C7F850
:101C90000480C7F8088000F079FE20EE080AA4EC62
:101CA000010AB442F7D105F5FA459FED1B8A40358C
:101CB00000F06CFE20EE080AA5EC010ABD42F7D147
:101CC0000FA3D3E9002310A5D5E90045CDE90423EE
:101CD00003211023CDE90031CDE902450F4A104818
:101CE0004FF4FA73802108F0FBFC81B20C4806B077
:101CF000BDEC028BBDE8F04100F052BDAFF30080B7
:101D0000000000A081FBE13F000000C0ED9ABB3F56
:101D10000AD7233C6ED7DC3D0DDC0F3FF8D100081D
:101D20005C61012070B52DED028B00F5FA449FED4A
:101D30004D6A0D4600F5FA4E00F5FA6C4034014646
:101D4000BEEC017A2A460B46F3EC017AF2EC016A0A
:101D500067EEA67A634537EE277AF5D1B5EEC07AFD
:101D6000F1EE10FAD4BFF0EE467AF0EE477AA645CF
:101D70008EED557ACEED427A01F5FA6103F5FA6CF3
:101D8000DED100F5FC4500F5FC4400F5FB410C35C7
:101D9000B4EC017AA1F140032A46F3EC017AF2ECAB
:101DA000016A67EEA67A994237EE277AF5D1A54205
:101DB00084ED257A84ED127A01F14001E8D100F535
:101DC000E04606F5656306F64C62D3ED007A92EDC7
:101DD000007A9FED248AF4EEC77A06F65463F1EE9A
:101DE00010FAD3ED008AD8BFF0EE477AF4EEE78A16
:101DF000F1EE10FA00F5FC4400F5FC45D8BFF0EE1A
:101E0000678A4C34583594ED000A30EE680A07F0C2
:101E100001FBA4EC010AA54238EE008AF3D19FED44
:101E2000127A38EE078AF7EE007A87EE887A06F69D
:101E30004C6206F5656306F65466D2ED007A67EEED
:101E4000877AC2ED007AD3ED007A67EE877AC3ED28
:101E5000007AD6ED007A67EE877AC6ED007ABDEC9F
:101E6000028B70BD0000000095BFD6332DE9F04114
:101E700000EB820300F5E04200F570450C4602F6E7
:101E80004C6105F54B660968316002F5656102F643
:101E90000C670E6805F6B44103F57C430E6002F64C
:101EA000546105F6B84209681160D3ED2C7AB7EE9B
:101EB000007A77EEC77A00F57B4600F57C4C00F59A
:101EC0007C4100F5FC4800F5FC4EC3ED2C7AE83669
:101ED0000CF1B00CBC3108F110080EF14C0EBCEC4A
:101EE000017A0CED047AD7ED007A67EE877A4346E3
:101EF000324646ED017AB3EC017A5CED017A67EE89
:101F0000877A7345E2EC017AF5D18C4506F14006FB
:101F1000E5D100F5FA4305F54B6705F6B4469FEDAC
:101F20002D6A403300F5FB4C05F6B8451BE0D2EDB9
:101F3000007AD7ED006A93ED0F7A96ED005AD5ED51
:101F4000005A66EEA76A27EE057AD3ED1F7A76EE81
:101F5000866A67EEA57A37EE267A634577EE877A4A
:101F6000E1EC017A0FD0D3ED467AF5EEC07AF1EECE
:101F700010FA1A4603F10403D9DCF0EE467A634501
:101F8000E1EC017AEFD100F5FD4500F57B4E2435FB
:101F90000EF1E40029460EF1A40E04F5FA6C9EED54
:101FA000467A2346AEEC017A0A46F3EC017A67EEF4
:101FB000277A6345E2EC017AF7D1864501F5FA61AB
:101FC000EDD12846B1EE040ABDE8F0414FF4FA51D4
:101FD00000F018BC0000000000F5704C0CF6FC434B
:101FE00000F5FD42D3ED006A243200F5FA410346C4
:101FF000B2EC017AD3ED007A27EE267A77EEC77A33
:10200000E3EC017A8B42F3D100F57B4200F5FA4311
:10201000A4324033B2EC017AD1ED007A27EE267A71
:1020200077EEC77AE1EC017A9942F3D100F57B4271
:10203000E43200F5FC41B2EC017AD3ED007A27EEF0
:10204000267A77EEC77AE3EC017A8B42F3D100F57A
:102050007C4300F5FC40A4330C30B3EC017AD1EDA5
:10206000007A27EE267A77EEC77AE1EC017A884289
:10207000F3D1DCF8043D0133CCF8043D704700BFD8
:1020800030B583B0154604460191FFF74BFE05F5C8
:10209000FC53123304EB8303D3ED017A9FED170A4F
:1020A000B4EEE70AF1EE10FAD8BFB0EE670A07F017
:1020B000EDF904F5704CB1EE400A9CF8483D0199E9
:1020C0008DED010A03F57D500230013304EB8000F1
:1020D00003F00F0380ED000A8CF8483D04F57D43C2
:1020E00083ED000A2A462046FFF7C0FE2046FFF790
:1020F00073FF9DED010A03B030BD00BF95BFD6331D
:1021000000F5E04303F64C6103F5656291ED007A5A
:10211000D2ED007AB4EEE77AF1EE10FA0DD4F0EEDB
:10212000477A002003F6546393ED007AB4EEE77A21
:10213000F1EE10FAC8BF022070470120F2E700BF9D
:10214000F0B52DED028B90ED008A9FED4A7A87B0B5
:102150000446F0EE488A00F5FA420346F3EC017AB1
:10216000B4EEE78AF1EE10FAF4EEE87AC8BFB0EE0A
:10217000678AF1EE10FAC8BFF0EE678A934237EE35
:10218000277AEBD1DFED3C7AC7EE277A17EE900A7B
:10219000FEF7BAF902460B4618EE900ACDE9042381
:1021A000FEF7B2F90B46024618EE100ACDE90223FB
:1021B000FEF7AAF9314ACDE900018021304808F044
:1021C0008FFA81B22E4800F0EBFA04F5704304F563
:1021D0007D42D3F8043D10681D46FEF795F904F5DD
:1021E0007D4304F57D42DFED237A06460F46083332
:1021F0004832B3EC017A934277EE877AF9D19FEDBA
:10220000217A67EE877A04F5E04417EE900AFEF72C
:102210007BF91D4ACDE902012B46CDE900678021FB
:10222000174808F05DFA81B2154800F0B9FA04F6D3
:1022300054631868FEF768F9CDE9040104F5656395
:1022400004F64C641868FEF75FF9CDE902012068D6
:10225000FEF75AF90D4ACDE900018021084808F03F
:102260003FFA81B2064807B0BDEC028BBDE8F040F2
:1022700000F096BA000000000000FA4538D20008CD
:102280005C6101200000803D70D20008A4D20008EB
:1022900038B50D461446002144F6486208F096FA17
:1022A0004722C0E901540A490A4808F00EFB0948D0
:1022B000462100F075FA0A238021074A054808F0F4
:1022C0000FFABDE8384003482E2100F069BA00BF7C
:1022D000ECD200085C61012034D3000890F800C003
:1022E000BCF1010F57D8F0B500F5804585B095F8E1
:1022F000363E092B17460E46044629D8BCF1000F7E
:1023000058D04FF4FA6202FB034031460C3003937D
:1023100008F0DBFA039B384844F62C622344802102
:102320009F5495F8363E01970133DBB20A2285F8B7
:10233000363E0092314A08F0D3F981B22E4800F0BF
:102340002FFA95F8363E092B27D8012005B0F0BDAD
:102350002B4D294C05F1200EAC46BCE80F00F4458E
:1023600004F1100405F1100544F8100C44F80C1C9D
:1023700044F8082C44F8043CEED107CD2B88A38107
:10238000AB78206061601C48A2602E21A37300F02E
:1023900007FA0020DAE70020704702232370194A69
:1023A00015480A23802108F09BF91348362100F0D4
:1023B000F7F9CAE7DFF850C0DFF83CE0012303700B
:1023C000BCE80F00CEF80000CEF80410CEF80820CC
:1023D000CEF80C30BCE80F00CEF81000CEF8141088
:1023E00070461F21CEF81C30CEF8182000F0D8F926
:1023F00095F8363E85E700BF5C610120B4D3000844
:1024000064D30008E0D3000894D300082DE9F04D10
:1024100000F580472DED028BD7F8383E454A013351
:1024200084B080218046444808F05AF981B242487D
:1024300000F0B6F997F8363E002B75D008F59C45AC
:102440009FED3E8A2B3508F10C06002415F8012F6C
:10245000D8F804003146FFF713FE10EE100A38EEEC
:10246000008AFEF751F82A7897F8363E0134824602
:102470008B46CDE900328021314A2F482346CDE9F1
:1024800002AB08F02DF981B22B4800F089F997F8DA
:10249000363EE2B2934206F5FA66D7D807EE903A96
:1024A000B8EE677AC8EE077A07F56462254E224CCB
:1024B000C2ED007AD7F83C2E1344C7F83C3E17EE25
:1024C000900A0293FEF720F81F4ACDE9000180210F
:1024D000194808F005F981B2174800F061F906F1D2
:1024E000300735460FCDBD4204F1100406F1100649
:1024F00044F8100C44F80C1C44F8082C44F8043C34
:10250000EFD103CE33882381B37820606160A3725A
:1025100009483A2100F044F9032388F8003004B058
:10252000BDEC028BBDE8F08D9FED047AB0EE478ADA
:10253000B8E700BF18D400085C610120000000006B
:1025400050D40008C0D4000880D400080378012BC0
:1025500000D9704730B5124DDFF84CE083B08446A7
:102560002C460FCCCEF80C300E4BCEF800009C421F
:102570000EF1100E05F110054EF80C1C4EF8082C4B
:10258000EED12868CDF804C02321CEF8000006481B
:1025900000F006F9019B03221A7003B030BD00BFA2
:1025A000FCD400081CD500085C61012010B544F67D
:1025B0002C62044600210C3008F008F90023237037
:1025C000DFF840C0DFF840E004F58044A4F8453E61
:1025D000BCE80F00CEF80000CEF80410BCE8030001
:1025E000CEF80C30BCF80030CEF81000CEF8141045
:1025F000CEF80820AEF8183070461921BDE810401A
:1026000000F0CEB820D500085C61012030B5037819
:10261000052B00F5804496BF154A164B52F823301F
:1026200094F8462E89B004F5646105460868059261
:1026300094F8442E07930492FDF766FFCDE902015A
:10264000D4F83C0ED4F8381E079B0B4ACDE9001095
:1026500080210A4808F044F8011E03DD074889B2CA
:1026600000F09EF8686809B0BDE83040FFF768BD2B
:1026700034DF0008E4D200083CD500085C6101208A
:1026800038B503780446052B72D8DFE803F005055A
:10269000343803060023037038BD00F580453A4AFC
:1026A00095F8453E3948802108F01AF881B237483C
:1026B00000F076F844F62C62002104F10C0008F0DA
:1026C00085F8DFF8D8C000232370A5F8453EBCE8A4
:1026D0000F002E4C20606160BCE80300E360BCF892
:1026E000003020616161A260238320461921BDE88A
:1026F000384000F055B8BDE83840FFF787BE244D9C
:10270000DFF888C0AE46BEE80F00CCF80C30214B95
:10271000CCF800009E450CF1100C05F110054CF8AA
:102720000C1C4CF8082CEDD12B4607CB1B78CCF8B1
:102730000000CCF80410CCF808208CF80C301348BA
:102740003C2100F02DF804F5804044F62C62D0F8CE
:10275000383E0133C0F8383E002104F10C0008F087
:1027600035F8002323702046BDE83840FFF74EBF00
:10277000094A0648802107F0B3FF81B2034800F000
:102780000FF80523237038BDCCD500085C6101200B
:102790008CD50008BCD50008FCD5000820D5000861
:1027A0000A4664230146014803F0E8BB7860012033
:1027B00010B5104805F078FADFF844E0DFF83CC0C7
:1027C000BEE80F00ACE80F00BEE80F00ACE80F0059
:1027D0009EE803004CF8040B2CF8021B4FEA114E44
:1027E0008CF800E0BDE81040034804496423262229
:1027F00003F0C4BB2C600120786001205C610120E3
:102800005CD60008C1B100EB8101B1EE407A03E073
:1028100000ED010A81420FD0F0EC017AF4EEC07AAB
:10282000F1EE10FAF4DCF4EEC77AF1EE10FAF1D51D
:10283000814200ED017AEFD1704700BFF0B583B05F
:10284000EFF30885404E414FDFF828C1404CAB1BE9
:102850007A1B01930092BCE80F000FC49CE80F00A4
:1028600007C41C222370A4F11C016423394803F01F
:1028700085FB3B46384A8021A4F11C0007F030FF5D
:10288000A4F11C0164232122324803F077FB2B467C
:10289000324A334D8021A4F11C0007F021FFA4F13E
:1028A0001C01642321222B4803F068FB33462D4A88
:1028B0008021A4F11C0007F013FFA4F11C01642384
:1028C0002122244803F05AFB009B274A8021A4F1CF
:1028D0001C0007F005FFA4F11C0182B264231D480F
:1028E00003F04CFB019B214A8021A4F11C0007F05E
:1028F000F7FEA4F11C0182B26423164803F03EFBEC
:102900001B4A4FF4FA438021A4F11C0007F0E8FEB3
:10291000A4F11C01642322220E4803F02FFB0FCDEB
:10292000A4F11C0CACE80F0095E80F00ACE8070020
:10293000084823701C226423A4F11C0103B0BDE8E5
:10294000F04003F01BBB00BFA47201200000022076
:102950005C61012078600120A4D60008C4D600087C
:102960006CD70008E4D6000804D7000828D7000870
:102970004CD7000884D6000800B90248024B186002
:10298000704700BFEFBEADDE00000020074A0848D8
:102990001168084B00FB013300EE103ABBEEE00A71
:1029A000F7EE007A30EE670A1360704700000020EF
:1029B0000D6619005FF36E3C00B5DFF888C0036850
:1029C0009CF80020072A83B01ED8511CC9B28CF88D
:1029D0000010DFF874C04CF82200DFF860C0154A20
:1029E0000820CDE90010002B08BF63468021124863
:1029F00007F076FE011E02DC012003B000BD0E4888
:102A000089B2FFF7CDFEF7E70C490D4A0A48002BC3
:102A100008BF0B4600938021082307F061FE011ECA
:102A200002DC002003B000BD034889B2FFF7B8FE06
:102A30000020F7E7F0D700085C6101208CD7000880
:102A400090D70008DC610120E061012070B5084EDC
:102A500033785BB1074D002455F8043F5B6803B140
:102A6000984732780134E3B29A42F5D870BD00BF7E
:102A7000DC610120DC61012070B5084E33785BB168
:102A8000074D002455F8043F9B6803B198473278FE
:102A90000134E3B29A42F5D870BD00BFDC61012079
:102AA000DC610120014B1878704700BFDC61012018
:102AB0000120704730B51B4B1B7885B01BB9012531
:102AC000284605B030BD13460C464FF4FA62014665
:102AD000009215480393224605F092FB039B05469E
:102AE00088B902F05DFC04460F4806F04FF8042850
:102AF000E6D002F055FC001BB0F5FA6FF4D90225C0
:102B0000284605B030BD094A009380212346084875
:102B100007F0E6FD81B20648FFF742FE032528468E
:102B200005B030BD00620120046201201CD80008FD
:102B30005C61012030B51B4B1B7885B01BB90125AA
:102B4000284605B030BD13460C464FF4FA620146E4
:102B5000009215480393224605F054FC039B05465A
:102B600088B902F01DFC04460F4806F00FF804284F
:102B7000E6D002F015FC001BB0F5FA6FF4D902257F
:102B8000284605B030BD094A0093802123460848F5
:102B900007F0A6FD81B20648FFF702FE042528468D
:102BA00005B030BD006201200462012050D8000849
:102BB0005C61012000B589B00548694605F02CFF2D
:102BC00010B9069809B000BD002009B000BD00BFD3
:102BD0000462012010B58CB0314804A905F01CFF37
:102BE00000283AD1049B002B33D12E4BDDE90A019A
:102BF0000191A0FB0112090D41EA023102912A4A1A
:102C000000908021294807F06BFD81B22748FFF72B
:102C1000C7FD274A049B2548802107F061FD81B24A
:102C20002248FFF7BDFD234A0A9B2048802107F078
:102C300057FD81B21D48FFF7B3FD80211E4A1B4896
:102C40000B9B07F04DFD81B21848FFF7A9FD0CB0B2
:102C500010BD012B21D0194BC8E7194CDFF84CE00F
:102C6000A446BCE80F00CEF80C30164BCEF800009E
:102C70009C450EF1100E04F110044EF80C1C4EF899
:102C8000082CEDD12068A388CEF800002521074844
:102C9000AEF80430FFF784FDD9E70B4BA6E700BF81
:102CA0000462012084D80008C0D800085C610120BB
:102CB00000D900081CD9000838D90008E4D200085F
:102CC00098D80008B8D800088CD80008F0B55F4E36
:102CD00033788BB0002B40F085805D4C5D4800253B
:102CE0000195236B43F004032363236B03F0040378
:102CF0000193019B0295236B43F008032363236B2D
:102D000003F008030293029B0395636C43F4006392
:102D10006364636C03F4006303934FF4F85202237B
:102D2000CDE9042301220323CDE9062304A90C23C2
:102D30000893039A042702F08FFE4748049704A9DA
:102D400002F08AFE29468022444807F03FFD434AAC
:102D5000434B42F8043C101F7623536105F03EFEBE
:102D60000546D8B93F484FF40061856105F066FE1D
:102D700002F016FB044605E002F012FB001BB0F562
:102D8000FA6F43D8374805F001FF0428F4D1012336
:102D90003370FFF71FFF28460BB0F0BD324D334EA6
:102DA0000FCD30607160B26007CDF3602B88306169
:102DB0007161B3833046AB78B3771E21B261FFF700
:102DC000EFFC24484FF4F85102F05AFF22483946EC
:102DD00002F056FF636C012523F400632846636408
:102DE0000BB0F0BD1F4805F0F7F91A484FF4F85141
:102DF00002F046FF0421184802F042FF144A536CC7
:102E0000002123F400635364317066E7184E174DB8
:102E100006F1300734460FCCBC4205F1100506F12F
:102E2000100645F8100C45F80C1C45F8082C45F820
:102E3000043CEFD103CE3378286069602B720B48D5
:102E40003821FFF7ADFC0225A5E700BF0062012095
:102E50000038024000080240000C024008620120D5
:102E6000002C01400462012054D900085C6101205B
:102E700074D9000808B10120704708B5FFF718FEA3
:102E800028B9084B03221A701878C0B208BDFFF7A2
:102E90001DFF044B003818BF012018701878C0B20D
:102EA00008BD00BF0400002008B10120704708B52C
:102EB000FFF7FEFD044B18B91A7842F002021A70AF
:102EC0001878C0B208BD00BF0400002078B90948D6
:102ED0000078C00709D408B5084611461A46FFF71E
:102EE000E9FD003818BF012008BD03207047042009
:102EF000704700BF0400002078B909480078C00777
:102F000009D408B5084611461A46FFF713FE0038E3
:102F100018BF012008BD032070470420704700BF80
:102F20000400002050B9134B187810F001031DD194
:102F3000032903D8DFE801F0030915050423184627
:102F40007047012111601846704700B583B0CDE984
:102F50000023FFF72FFE009A019B1060184603B074
:102F600000BD4FF4007111801846704703231846C6
:102F7000704700BF040000202DE9F041244F94B0B9
:102F800005460E469046012401E0BC4232D0CDE910
:102F90000064204A2B46302108A807F0A1FB02A9B3
:102FA00008A801F08BFD042804F10104EDD10622EC
:102FB00008A9404601F018FB70B100908021164A24
:102FC000164808AB07F08CFB81B21448FFF7E8FB0A
:102FD000002014B0BDE8F081114A104808AB8021F0
:102FE00007F07EFB81B20D48FFF7DAFB012014B039
:102FF000BDE8F08180210B4A08482B4607F070FBA2
:10300000011EE5DD054889B2FFF7CAFBE0E700BF16
:10301000A0860100B0D90008C0D900085C61012079
:10302000F4D9000820DA000870B50125B2B098493B
:103030009848012201F0B0FA0D28044635D0002C42
:1030400069D1954801F062FD10F0F70F6ED0924BF8
:1030500000908021914A924807F042FB81B290484B
:10306000FFF79EFB03242B468E4A8D480094802157
:1030700007F036FB8A483E21FFF792FB8A4A5369E4
:10308000322001330135536102F090F9042DCED185
:10309000864A83482346802107F022FB804851213D
:1030A00032B0BDE87040FFF77BBB432280497C48CB
:1030B00007F00BFC7A484221FFF772FB4FF40073D4
:1030C000009373487B4B0022012101F01BFE002876
:1030D00040F0D780DFF828C2714E0CF1300E644604
:1030E0000FCC744506F110060CF1100C46F8100CCC
:1030F00046F80C1C46F8082C46F8043CEFD168480A
:103100002F21FFF74DFB62496248012201F044FA8A
:103110000446002C95D0684A23468021604807F079
:10312000DFFA81B25E48FFF73BFB9BE7634801F0A3
:10313000EDFC10F0F70F02D0604B009089E7604B78
:10314000604A6149544801261E70FFF715FF0028A8
:1031500088D05E4A5E495948FFF70EFF002881D0AB
:103160005C4BDFF8A0C11E705B4B06941E70BCE880
:103170000F000AAD0FC5BCE80F000FC59CE80700A3
:1031800003C52A7028220DEB020106AB4D4801F061
:1031900021FB10230322CDE90032A0214F4A4FF436
:1031A000FA730AA807F09CFA06AB29220AA9454837
:1031B00001F010FB6423CDE90036494A4FF4FA735D
:1031C000A0210AA807F08CFA06AB41220AA93D48C3
:1031D00001F000FB0A23CDE902362BA3D3E900233B
:1031E000A021CDE900230AA83E4A3F4E07F078FA15
:1031F00006AB02460AA9334801F0ECFA3B496C22BF
:103200000AA807F062FB06AB6B220AA92D4801F061
:10321000E1FA2C4801F0DEFB0FCE0AAD0FC50FCE50
:103220000FC50FCE0FC596E8030045F8040B25F82F
:10323000021B090C29702548059405AB0AA9362202
:1032400001F0C8FA23462A4A102106A807F048FAD6
:103250000134024605AB1D4806A901F0BBFAB4F5DE
:10326000FA7FEFD105AB23491848022201F0B2FAE8
:10327000164801F0AFFB02F093F81F4B186032B014
:1032800070BD1E4A034648E700000040E17A843FD3
:10329000B8D10008186F012064DB00086CDB00085F
:1032A0005C61012038DD0008886401207CDD0008B5
:1032B00068DA00088862012034DB0008A0DB00081F
:1032C000146F0120EC6E0120A8DB0008BC6E012009
:1032D000ACDB0008E86E0120B86E0120DCDB0008E2
:1032E00008DC00084CDC0008F8DC00088CDC000876
:1032F00030DD0008F0D90008E46E0120ACDA0008E7
:1033000004DB0008B0DB0008F8B5194D2B780F2B53
:1033100026D800290C4606DB9F290A4626D99F2776
:103320003A463C4602E000273A463C46114E337886
:10333000014603EB830C104803EB4C13181807F0FD
:10334000C4FA327880F8A070013202F00F023270B5
:103350002A780346012002442A7000221A55F8BD3B
:10336000064A5368013353600020F8BD0F46DDE77D
:10337000A4640120A6640120A864012088640120BF
:1033800010B5354C237884B05BB1344B1B78BBB996
:1033900002F006F8324B196841F28732401A904227
:1033A00001D804B010BD2278002A3ED12D4B1B78E5
:1033B000002BF6D02C4804B0BDE8104001F00ABB49
:1033C0002A4B2B491B782B480022039203EB8302E4
:1033D00003EB4213194403AB91F8A020019101F0D3
:1033E000F9F9034628B90199039A91F8A01091427E
:1033F00023D0214A2148802107F072F981B21F4869
:10340000FFF7CEF91E4917488A68013200238A6007
:103410001C4A037017482370137001F03BFB1248DD
:1034200001F038FBFFF700FEB2E7124801F0D2FAD4
:1034300001F0B6FF0A4B1860B8E7114A1368013370
:1034400013600A4A1378013303F00F031370034A21
:103450001378013B13709BE7E86E0120A464012000
:10346000E46E0120B86E0120BC6E0120A56401202D
:10347000A8640120EC6E0120D0DD00085C61012011
:1034800088640120146F0120DFF89CC09CF800C004
:10349000BCF1000F06D0DFF894C09CF800C0BCF16E
:1034A000000F01D1012070472DE9F043BBB08046E9
:1034B00012EE100A11EE907A11EE106A10EE905A88
:1034C00010EE104A0E9311928946FDF71DF8CDE9D2
:1034D0000C013846FDF718F8CDE90A013046FDF732
:1034E00013F8119A0692CDE908012846FDF70CF869
:1034F000CDE904012046FDF707F80A4ACDF800900F
:10350000CDE902014346A02112A807F0E9F80146DF
:1035100012A8FFF7F9FE800080F00400C0B23BB0B3
:10352000BDE8F08308DE0008146F0120E86E01207A
:10353000DFF85CC09CF800C0BCF1000F06D0DFF8DB
:1035400054C09CF800C0BCF1000F01D101207047AD
:1035500030B50446AFB010EE100ACDE904230D4695
:10356000FCF7D2FF094A0095CDE902012346A021CC
:1035700006A807F0B5F8014606A8FFF7C5FE8000CB
:1035800080F00400C0B22FB030BD00BF34DE0008B0
:10359000146F0120E86E01202DE9F04FDFF8BCC167
:1035A00091B09CF800C0BDF86CB0BCF1000F00F009
:1035B000AD80DFF8ACC19CF800C0BCF1000F00F09A
:1035C000A5801A9C002C00F09C80164600220392D5
:1035D0001F46584A03460D4604A8302111EE10AA92
:1035E00010EE909A10EE108A07F07AF803AB0246BC
:1035F00004A9514801F0EEF80346002874D14D4A61
:103600002B46302104A807F06BF803AB024604A94F
:10361000494801F0DFF80346002865D1474A009782
:103620003346302104A807F05BF803AB024604A937
:10363000414801F0CFF80346002855D14046FCF739
:1036400063FF3F4ACDE90001302104A807F048F8A4
:1036500003AB024604A9384801F0BCF80346002831
:1036600042D14846FCF750FF354ACDE900013021F0
:1036700004A807F035F803AB024604A92E4801F070
:10368000A9F8034600282FD15046FCF73DFF2D4AEC
:10369000CDE90001302104A807F022F803AB02466F
:1036A00004A9254801F096F80346E8B9BBF1000FDC
:1036B00031D01A9A02EB8B0501E0AA422BD0106898
:1036C0001446FCF721FF204ACDE90001302104A86F
:1036D00007F006F803AB024604A9174801F07AF890
:1036E000221D03460028E8D0184A1948802106F018
:1036F000F7FF81B21648FFF753F8164A13690133F2
:1037000013610323184611B0BDE8F08F012318465A
:1037100011B0BDE8F08F03AB0F490748022201F05A
:1037200059F803460028DFD10A49CA680132CA6045
:10373000EDE700BF54DE0008BC6E01205CDE00082F
:1037400064DE00086CDE000874DE00087CDE000821
:103750005C61012088640120F0D90008146F012009
:10376000B86E012008B50B4B1B781BB90A4B1B78B0
:103770005BB908BD094801F02DF901F011FE084BB5
:103780001860054B1B78002BF3D0BDE808400548B6
:1037900001F020B9E86E0120B86E0120EC6E012026
:1037A000E46E0120BC6E0120F8B130B50F4BDFF89C
:1037B00048E01D7884460446BEE80F00ACE80F00E0
:1037C0009EE807008CE8070015B92576657630BDC0
:1037D000074B084A1B781578003B18BF0123003DB2
:1037E00018BF01252376657630BD7047146F012020
:1037F000E86E0120B86E012088640120016881B163
:1038000091F800C0BCF1200F13D90A46634603E0CB
:1038100012F8013F202B0CD93A2BF9D1BCF1300F13
:1038200002D04FF0FF30704701318A42F9D10132A6
:1038300002600020704700BF48B10268034632B101
:10384000107820B1B3F804C0D088844503D0002399
:1038500009200B60704700B583B05078CDE90013A4
:10386000FFF722FB10F00100009904D1019B1B68B7
:103870000B6003B000BD092000230B6003B000BD46
:10388000C3780BB90020704770B582B0C26A01924C
:1038900000F130010446012340780E46FFF72CFB6F
:1038A000C8B9216A019AA369E070511A99420FD2EE
:1038B000A578012D02D80BE0A369019A60781A441B
:1038C00031460123013D0192FFF716FB012DF3D193
:1038D000002002B070BD012002B070BD70B582B092
:1038E0000546FFF7CDFF50B92B78032B09D00022F6
:1038F00068781146FFF716FB003818BF012002B0A8
:1039000070BD2B79012BF2D104464FF4007205F102
:10391000300021460193064606F058FF4AF655222C
:10392000A5F82E220C4A2A6302F1FF5202F500523A
:103930002032C5F81422EA68C5F81C22EA69286911
:10394000C5F818020132019B6878EA623146FFF738
:10395000D3FA2C71CBE700BF525261410A46C16ACB
:10396000914201D10020704710B582B00446019207
:10397000FFF786FF019A08B102B010BD60780123FD
:1039800004F13001FFF7A2FA019A10B101204FF0C3
:10399000FF32E26202B010BD4FF0000C30B563465A
:1039A0002E25C4695A1CE35C202B01EB0C0E08D0B9
:1039B000052B08BFE523092A18D08EF809300CF131
:1039C000010C0B2A01D01346EBE78C4400238CF842
:1039D0000930C369DB7A0B72C369DB690B60C369A9
:1039E000D3F81630CB801B0C8B8030BDE64601EB44
:1039F0000C048E4465720CF1020C8EF80A301346EA
:103A0000CFE700BF30B54FF0FF350023A94283B0A8
:103A10000446C370C56222D1B4F82E224AF655235B
:103A20009A422AD194F83030E92B08D0EB2B02D0FF
:103A3000022003B030BD94F83230902BF8D1D4F886
:103A40006630114A23F07F4393421BD0D4F88200A2
:103A50000E4BC01A18BF0120400003B030BD0A460B
:103A600001914078012304F13001FFF72FFA019A08
:103A700030B10420E56203B030BD032003B030BD97
:103A8000E262C9E70020E8E746415400464154336A
:103A90002DE9F041002386B00B6001911546FFF738
:103AA000ADFE013000F0B9808D4B1C68002C00F099
:103AB000BC8001990C60237805F0FE0563B1607845
:103AC000FFF7F2F9C60707D415B1410700F1A98045
:103AD000002006B0BDE8F08100202080FFF7CAF981
:103AE000C20700F18E8015B1430700F19A800021D2
:103AF0002046FFF787FF022868D0042800F097804F
:103B0000012898BF002178D8B4F83B30B3F5007F86
:103B100073D1B4F8460000B9606D94F84020A061FC
:103B2000531E012BA27068D894F83D306381002B9E
:103B300063D05D1E1D4260D1B4F841E0A4F808E0F6
:103B40001EF00F0F59D1B4F8435005B9256DE68F1B
:103B5000002E52D000FB02F206EB1E1C9444654579
:103B60004BD3A5EB0C059D4247D3B5FBF3F54FF6C0
:103B7000F5777318BD420CEB0106B04605F1020C57
:103B800057D92362B4F85A30A6625EEA0303C4F838
:103B900014C0E16131D14FEA8C0303F2FF13E26DEF
:103BA0006262B0EB532F28D3B4F860204FF0FF339C
:103BB0008020012AC4E90333207170D00323494ACD
:103BC0002370138801331380E38081E702AD04F58D
:103BD000F77304F22E2029461A7902B19A6841F847
:103BE000042B10339842F7D12968032069B90435B2
:103BF00006AB9D42F8D1042819D00D2006B0BDE8CF
:103C0000F081032006B0BDE8F08120460191FFF766
:103C1000F9FE01280199EAD876E70B2006B0BDE845
:103C2000F0810A2006B0BDE8F0810C20E6E7012013
:103C3000E4E740F6F576B542E161C4F82880C4F8BF
:103C400014C0236213D9BEF1000FD6D04FEA4C0145
:103C50001A4401F2FF13B0EB532F6262CDD34FF041
:103C6000FF338022C4E9033322710223A7E7BEF1A8
:103C7000000FC2D013440CF0010202F2FF120CEB51
:103C80004C0C02EB5C02B0EB522F6362B5D34FF0E9
:103C9000FF338022C4E90333227101238FE701310E
:103CA0002046FFF75BFE002888D1B4F82E22207151
:103CB0004AF655239A4281D1226B0B4B9A427FF4EC
:103CC0007DAF03F1FF53D4F8142203F500532033E2
:103CD0009A427FF473AFD4F8183223616EE700BFC5
:103CE0004C71012048710120525261412DE9F0418F
:103CF0000378022B82B004460D4616463ED0032BB5
:103D00002AD0012B4FD1026A01EB510102EB512263
:103D10000F46C16A8A424AD100F13001781C15F081
:103D20000102C7F308039046074673D0CA5C02F04D
:103D30000F0242EA0612CA540123256AE370E36ABD
:103D400005EB50259D426ED1C0F308031944330999
:103D500001220B70E27022E0026AC36A02EBD11208
:103D60009A4244D100F13001AD0005F4FE75012204
:103D70004B5966F31B034B51E27010E0026AC36AB1
:103D800002EB11229A421ED100F130016D0005F4C0
:103D9000FF754A194E550123310A5170E370002016
:103DA00002B0BDE8F081022002B0BDE8F081CDE9AB
:103DB0000032FFF765FDDDE90032002858D0012010
:103DC00002B0BDE8F0810092FFF75AFD009A00288A
:103DD000F5D104F1300160780123CDE90012FFF73D
:103DE00075F8002840D1019A0099E262CEE700926E
:103DF000FFF746FD009A0028E1D104F13001607818
:103E00000123CDE90012FFF761F868BB019A009920
:103E1000E262A9E7CE540123256AE370E36A05EB69
:103E20005025AB4216D020460091FFF729FD00999E
:103E30000028C4D1607801232A46FFF747F898B9D3
:103E40000099E562C7F308031944B8F1000F7FF445
:103E50007EAF02E0C0F3080319440B78C6F30322D7
:103E600023F00F03134373E74FF0FF33E362A6E73A
:103E700004F1300160780091FFF728F8DDE90012C5
:103E80000028F1D1E26249E701292DD94269914226
:103E90002AD22DE9F0410378022B82B005460E4666
:103EA00032D0032B22D0012B3AD101EB5104016A0D
:103EB000D0F82CC001EB5422624535D1C4F308037D
:103EC0002B44621C93F83030174601EB52226245B6
:103ED0002846984666D00092FFF7D2FC009A002848
:103EE00057D04FF0FF301CE001207047026AC36AD0
:103EF00002EBD1129A423CD1B10001F4FE716B1871
:103F0000186B20F070400CE0026AC36A02EB1122C9
:103F10009A421ED1730003F4FF73EB18188E00E071
:103F2000012002B0BDE8F081CDE90023FFF7A8FC35
:103F3000DDE900230028D4D16878009205F1300132
:103F4000FEF7C4FF009A002839D1296AEA62944634
:103F5000B4E70092FFF794FC009A0028C1D168787A
:103F6000012305F13001FEF7B1FF40BB009AEA6280
:103F7000D0E70092FFF784FC009A0028B1D168785E
:103F8000012305F13001FEF7A1FFC0B9009AEA62F2
:103F9000B2E76878012305F13001FEF797FF70B9A9
:103FA000009AEA62C7F30803EB1893F8303048EA46
:103FB0000320F3074CBF0009C0F30B00B1E74FF03B
:103FC000FF33EB628DE700BF38B5816805680023D9
:103FD000036129B92B78022B19D96B6ABBB1194639
:103FE0006B8903BB0446284605E001280DD96B699F
:103FF00098420AD22068FFF747FF431C0146F4D1DC
:10400000012038BD0023C0E90513022038BD2B89EB
:10401000002BFAD06B6AC0E90513002BF5D03035C0
:10402000C561002038BD6A698C1E023A9442E9D20B
:10403000AA6A04FB0323EEE701293AD9F8B505681B
:104040006B698B420E4625D91146074622BB28468E
:1040500011E0FFF74BFEF0B9D5E90432911E8B4217
:1040600005D22979013341F001012B612971A24266
:1040700021D9386826463146FFF706FF044600225C
:1040800031462846BCB1012C04D0631C15D06B69A5
:104090009E42DED30220F8BD012AFBD09342F9D91B
:1040A0004FF0FF322846FFF721FE0028F3D1386891
:1040B000E1E7022070470020F8BD0120F8BD00BFF5
:1040C0002DE9F04106460768884600293BD1FD6886
:1040D0007B69002D35D09D4228BF01252C4606E086
:1040E00001284FD0013051D0AC4239D07B69013426
:1040F0009C4202D3012D33D0022430682146FFF7C1
:10410000C3FE0028ECD1012C3CD97B699C4239D2FA
:104110004FF0FF3221463846FFF7E8FD80BBB8F18B
:10412000000F21D1D7E90423023B9A42FC6001D859
:10413000013A3A613B7943F001033B712046BDE807
:10414000F0810125CAE73846FFF79EFE01280446A4
:1041500018D9431C1AD07B698342EFD84546BDE786
:1041600000242046BDE8F081414601290AD07B6940
:10417000984507D222463846FFF7B8FD0028D1D02F
:10418000012803D001242046BDE8F0814FF0FF3420
:10419000D4E700BF826992B32DE9F04F046920345F
:1041A000B4F5001F83B026D20D4601680346C4F360
:1041B00008008946074648B101F1300808EB0702BC
:1041C0001C61DA61002003B0BDE8F08F596901324B
:1041D0009A6149B1B9F80A20013A12EA542292468A
:1041E0000FD009F13008E9E7B9F80820B2EB541F05
:1041F000F7D800229A61042003B0BDE8F08F0420B4
:10420000704748460093FFF73FFE0128009B834616
:1042100019D9B0F1FF3F5ED0D9F81420824214D9E9
:10422000861E09F13008C3F814B0D9F81420023AF8
:10423000B24205D9B9F80A10D9F8282006FB012A9C
:10424000C3F818A0BAE70220BDE7002DD1D0596904
:1042500000931846FFF734FF0546834600283CD0FC
:104260000128F0D0431C36D04846FFF709FB014631
:1042700088BB09F130004FF400728046019106F0CE
:10428000A5FAD9F81420B9F80A00009B023AAE1E2C
:10429000964236BFD9F82820019A06FB0022C9F8B9
:1042A0002C20E0B100210BE00099D9F82C20B9F8BE
:1042B0000A00019B013101328842C9F82C200FD934
:1042C0004FF0010289F803204846CDE90013FFF7BB
:1042D000D7FA0028E8D0012075E7072073E70146E8
:1042E000521AC9F82C209EE72DE9F04F036883B0DD
:1042F0001A468A4611F8013B2F2BFAD05C2BF8D0D6
:10430000002383609AF800301F2B40F2CC806E4F60
:10431000044600F120094FF020369046C9F80460A9
:10432000C9F80060C9F807609AF80030202B0CD952
:10433000D64600254FF0080C01202F2B63D05C2BB4
:1043400061D02E2B05D0654540D3062003B0BDE8D3
:10435000F08FBCF10B0FF8D008254FF00B0C1EF8B6
:10436000013F202B00F10100E7D8824494F820207F
:104370002568E52A04BF052284F82020202B8CBF65
:10438000002301239B0084F82B302046FFF71CFEFE
:104390000028DBD105F130030193D4F818B0EB6AA3
:1043A0009B453FD02846FFF76BFA0028CED10199F4
:1043B000687801235A46FEF789FD002830D04FF077
:1043C000FF330120EB6203B0BDE8F08F190602D580
:1043D0003E4A803BD35C3E4A2221994210D012F8DB
:1043E000011FBA42F9D1A3F16101A3F12002C9B2C0
:1043F000D2B2192998BF134609F805300135AEE746
:10440000002BF0D0A1E70AEB000211782F29924689
:1044100002F10102F9D05C29F7D0002DA6D194E772
:10442000C5F82CB0E1690B78002B44D091F80BB0A3
:104430000BF03F03A371C87A10F008000AD00021E6
:104440002046FFF7A7FE0028A7D0042894F82B30B9
:1044500033D07BE74A1E04F11F0C0A3101E0002B28
:10446000EDD112F8013F1CF801EF8A42A3EB0E03D5
:10447000F5D1002BE3D194F82B305A073FF566AF06
:104480001BF0100F1BD0226998F80010C2F308022D
:1044900008F13003134403295A8B04BF9B8A42EA74
:1044A0000342A2603AE7802380F82B3003B0BDE8D6
:1044B000F04FFFF789BD94F82B305B0701D405203E
:1044C00044E7042042E700BFCEDE00086CDF0008AE
:1044D000C0DE000870B582B006680446FFF774FDC0
:1044E000054698B9A269F36A9A42304611D1E0694B
:1044F0000378E52B15D001219BB12046FFF74AFE3A
:1045000003460028EED0042809D10725284602B02A
:1045100070BD0192FFF7B4F9019A034618B31D4626
:10452000F4E7A269F36A9A4213D12022002106F02F
:104530004DF9E26904F12003013A2B3413F8011B11
:1045400002F8011F9C42F9D101232846F37002B002
:1045500070BD30460192FFF793F9019A68B10125C9
:10456000284602B070BD7078012306F13001FEF7D5
:10457000ADFC019A48B9F262B9E77078012306F1FF
:104580003001FEF7A3FC019A18B14FF0FF33F3623C
:10459000E5E7F262E069C8E710B584B0144601901F
:1045A00003A800910391FFF729F9013016D00D49B6
:1045B0000B680BB100221A70019B6BB10022012C19
:1045C0001A700B6002D0002004B010BD01A968462B
:1045D000FFF75EFA04B010BD0B60F4E70B2004B0E7
:1045E00010BD00BF4C7101202DE9F0478EB0019144
:1045F000002800F094801546064602F03F0802A904
:1046000002F03F0201A8FFF743FA044628B1002355
:10461000336020460EB0BDE8F087029B8DF8120093
:104620000A900199039303A81F46FFF75DFE05F06A
:104630001C03002835D19DF93720824274DB9DF898
:104640001200DDF828908BB310F0110F6ED16907BE
:104650007FD42A0730D55E4BC9F80E30C9F8163022
:10466000202389F80B303B78B9F81A10032B04BFCC
:10467000B9F8143041EA03414FF00003A9F81A30A9
:104680003A78032A4FF0000208BFA9F81430C9F89D
:104690001C200123FD6AFB7000295CD148F0400812
:1046A0000BE00BB1042845D00446B0E7C3063FD465
:1046B000AD0701D5C10739D4FD6AC6E908593B7871
:1046C000B9F81A10032B04BFB9F8143041EA0341BA
:1046D000B160D9F81C50F5603760FB88B38018F0E2
:1046E000200F4FF0000386F810807374F36173613C
:1046F0008FD0002D8DD075617B895B029D4242D9A0
:1047000030680093FFF7C0FB009B01280146A5EB32
:1047100003051BD9421CF1D1B061012477E70924BC
:1047200020460EB0BDE8F087062470E707246EE748
:1047300004246CE703A8FFF7CDFE0028B4D19DF850
:104740001200DDF8289048F0080884E7B0610224E0
:104750005DE708245BE78DF8120003A80091CDF80F
:104760002890FFF769FC009900289DD1FA6AAA42B7
:1047700001F1FF3A38461CD0FFF782F80123D8B187
:10478000C7F80CA0C9E7C5F30803B161002B3FF4DB
:1047900040AF7B690239023B9942D8D27A89BB6A21
:1047A00001FB0233002BD2D003EB5523F36130E73A
:1047B000FD62C7F80CA071E778782A4607F130014E
:1047C000FEF784FB0028F3D04FF0FF33FB62D7E7FE
:1047D0000000214A2DE9F04F984685B000230F468E
:1047E000C8F8003003A904461546FFF725F800284D
:1047F00054D1607C002852D1227C910740F1C180C5
:104800006369EB4228BFDD43002D00F0A1808346A1
:10481000C3F3080A039EBAF1000F43D17289013A2B
:1048200012EA532A0ED1002B40F08980A06800289C
:1048300000F0A980012871D0431C3DD0A368A0617D
:1048400003B9A060F26AE3699A4200F09380A36919
:104850007269023B023A934260D27189B26A01FBEB
:104860000322002A5AD06B0A0AEB02095ED00AEB37
:104870000300884288BFA1EB0A03707801934A467F
:104880003946FEF739FBB8B9F16A019BA1EB090281
:104890009A42C0F08F804FEA432A2CE0092005B0ED
:1048A000BDE8F08FD4F81C90F36A4B450CD030462D
:1048B000FEF7E6FF00284FD04FF00109484684F884
:1048C000119005B0BDE8F08F534606F13001CAF5EE
:1048D000007AAA4501EB030228BFAA46013A07EB7A
:1048E0000A003B4613F8011B02F8011F9842F9D158
:1048F0004FF00103F3706369E26853449A4238BF92
:104900001A466361E260D8F80030B5EB0A055344FB
:10491000C8F800301AD06369574479E74FF00209AC
:10492000484684F8119005B0BDE8F08F6369E168EE
:104930008B4230D2C4F81C90C3F3080AB4E7A169D3
:104940002046FFF7BDFB00287FF474AF227C584659
:1049500042F040022274A2E706F130017078019122
:1049600001234A46FEF7B2FA0199E8B14FF0FF334E
:10497000F362A1E73046FEF783FF00283FF467AFFC
:104980009AE707208BE751462046FFF799FB00285E
:104990007FF450AFDAE73046FEF772FF00288BD184
:1049A000C6F82C906369C5E7C6F82C906369C3F319
:1049B00008038CE707EB422206F12F0102F5007C89
:1049C00012F8010B01F8010F6245F9D10022F270D3
:1049D00061E700BF38B103682BB11A781AB181883A
:1049E000DA88914201D00920704770B5044682B040
:1049F00005465878FEF758FAC30705D4207C10F016
:104A0000400004D102B070BD092002B070BD23681F
:104A1000226A18461E46DB6A9A421ED16B6ADA7A0F
:104A200042F02002DA72AA6829689A76100AD876CB
:104A30000978032918D0E968154AD961C3F8162006
:104A40004FF00001012259823046F270FEF746FF16
:104A50002B7C23F040032B74D4E70192FEF710FF68
:104A6000019A30B10120CDE7120C110A1A7559755F
:104A7000E1E77078012306F13001FEF727FA019A89
:104A800018B14FF0FF33F362ECE7F262C6E700BF04
:104A90000000214A10B582B00446FFF79BFF08B121
:104AA00002B010BD01A92046FEF7C6FE10B9206075
:104AB00002B010BD092002B010BD00BF10B58EB00D
:104AC0000C460190002203A901A8FEF7E1FF03466E
:104AD00010B118460EB010BD019903A8FFF704FCF1
:104AE00003460028F5D19DF9372082420CDB214690
:104AF000002CEED0099A6072002AEAD0009003A838
:104B0000FEF74AFF009BE4E70623E2E72DE9F043C6
:104B10008FB00222019002A901A8FEF7B9FF029C02
:104B20000394034618B118460FB0BDE8F083009017
:104B3000019903A8FFF7D8FB0346C0B10428F2D1BE
:104B4000009903A8FFF7BCFA63895B020646069347
:104B500090B1012800F09F8001300FD10123002285
:104B6000314603A80093FFF767FA009BDBE70823B1
:104B700018460FB0BDE8F0830723F0E72046FEF7A4
:104B80007FFE03460028E9D162690093023AB11E14
:104B900091423EBF6089A26A01FB00274FF4007278
:104BA0004FF0000104F1300028BF1F4605F00EFE53
:104BB0004FF02032217822636263C4F83720504AD4
:104BC000C4F84620330A2E2210200329994684F87F
:104BD0004B3084F84A60009B84F8302084F83B0016
:104BE0005BD0D4F838C0059B616BD4F83CE0206BF7
:104BF000C4F858C0D4F848C02065C4F868C0206C18
:104C0000C4F85CE06165D4F84CE0616C84F86A300B
:104C10001B0AC4F86CE02066616684F8512084F8B1
:104C20006B3063891D46C3B13B46E36200934FF08E
:104C30000103E3702046FEF723FE00288ED1009B7F
:104C4000014601334FF4007204F13000009305F087
:104C5000BDFD009BEA199342E7D103A8FFF73AFC98
:104C6000034600287FF47BAF0A9B254AC3F8162031
:104C70009E7683F81B902278032A03D1320C110A06
:104C80001A75597510210122D9722046E270FEF77B
:104C900025FE034647E7022361E7310C84F8441000
:104CA000090A206B84F84510E16B2065E16584F802
:104CB00051200599626AD4F834E0D4F838C0C4F8B9
:104CC00054E08A4207BF002211460B460A0AD4F874
:104CD00044E0C4F864E0090C206CE56CC4F858C0EA
:104CE00084F86410D4F848C0C4F868C0090AE566BE
:104CF000206684F86B2084F86A3084F8651090E7A9
:104D00000000214A2DE9F04F8DB00D46099009A809
:104D100014461F46FEF772FD013000F09A80B64B34
:104D20001B680BB100221A700020FEF7A3F8C6071B
:104D300000F18B8010F0040018D10AAA0321FEF7BD
:104D4000F1F820B90A9A531EB3F5004F7AD3012324
:104D50000A937CB1A94BA4F500729A4202D8631E53
:104D6000234207D013200DB0BDE8F08F0A200DB00C
:104D7000BDE8F08F169B169A5B0A22F4FF7A9946DB
:104D80002AF0010A002B59D00BAA01210020FEF7BE
:104D9000C9F8002840F0588115F008020B9B0592D5
:104DA0005BD13E2B4AD93F3B4FF03F0856E06FF0B6
:104DB0002000A0EB080008F101040390019408F121
:104DC0002100A3F1210402900494180B0E46002A3E
:104DD00000F06B81964640F6F574B3FBFEF1A142FC
:104DE00040F25581023149004FF0020B029C01F262
:104DF000FF1104EB5121C8EB0E1C8C44019C009464
:104E00009C451BD8039C294431402144049CBBF1A0
:104E1000020FA4EB010CBCFBFEFC40F06D814FF6D1
:104E2000F574A44500F2258140F6F574A44500F21E
:104E30008F811AB94FEA4E02802AC8D90E200DB0D0
:104E4000BDE8F08F1A4284D081E703200DB0BDE8A1
:104E5000F08F0B200DB0BDE8F08F80467F2B0B93B9
:104E6000ECD9B4F5813F4FEA5422BFF47BAF15F083
:104E70000200069040F0EA80E8077FF573AF022059
:104E80000A99032801F1FF35C1F100018FD1002AF1
:104E900000F01C8102929346029A08F1200C0E4603
:104EA000B3FBF2F056494FEA800EA0F57F40F6388A
:104EB00088420EF2072EC1D80CEB5E214FEA5E202D
:104EC00005EB010E0EEA060E0190AEEB0100C8EBF9
:104ED000021E8E449E45B1D8019C00F12001A3EB37
:104EE000040EAEEB010E04914FF6F571BEFBF2FE1F
:104EF0008E4540F2B58002920CEB00020092002237
:104F0000CDF818E003924FF0030B4FF4007200212C
:104F10003846079305F05AFC3A49079B7A1E07F179
:104F20000A0C11F8010B02F8010F6245F9D1029A3F
:104F30007A73049ABA73120AFA73BBF1030218BFA8
:104F40000122B3F5803F38BFFB744FEA42023ABFFB
:104F50001B0A3B753B62BA7400234FF40072A7F83A
:104F60000B207B770122BB77FB77274B3A74BB6121
:104F70000022F823BBF1030F7A747B75CDF81C80F7
:104F800087F81C8000F0ED800198204AC7F82620A1
:104F90004A221F4B87F82A20020AFA758022B87528
:104FA00087F8242003F1130007F12A0213F8011BEC
:104FB00002F8011F8342F9D14AF655233946A7F872
:104FC000FE31424601230020FDF796FF01460028EE
:104FD0003AD107F5FF7352463846049305F0F6FBC5
:104FE0004FF6F8733B80FF23BB70BBF1010318BF82
:104FF0004FF0FF33FB7019E04C71012000FEFF0001
:10500000FFFFFE0FD0DE00083F00FF002900002157
:10501000F0DE000801464FF40072384605F0D6FB7A
:10502000019BF218E31A0092019374D0019C009E38
:10503000A1454B46324628BF2346394600200193FE
:10504000FDF75AFF0028E5D0012090E605F00701A2
:1050500002294FD005F00100C0F10300C0B20FE7F4
:10506000BBF1000F7FF4EAAE52083FF4E7AE93467F
:1050700016E7A2B94FEA4E0EBEF1400F38D9069995
:1050800019BBBEF1800F3FF6D9AE7246A3E601EB25
:1050900041010131490803314FF0010BA6E60698A2
:1050A000314600283FF4CAAEF4E64FF0010EDFF8B7
:1050B0004CC2714606E03CF8021F4FEA4E0E002932
:1050C0003FF489AE8142F6D985E6314601201E467D
:1050D000DFF82CE25B0C844604E03EF8020F4FEA56
:1050E0004C0C08B19842F8D9CDF808C03346D2E646
:1050F00072466CE60320C3E640F6F5729445CDE9AE
:10510000011ECDF818C03FF699AE01222021CDE94D
:1051100003129346F9E6DDE90223BBF1030F08BF52
:1051200013460393009A05E0DDE900231A44E31ACD
:1051300003937FD0039C4C452346394628BF4B46FA
:105140000020CDE90023FDF7D7FE0028ECD07BE757
:10515000CDE9011E20220121CDE90321CDF818C09F
:10516000D3E6614A3A63614A019BC7F842204A226A
:105170007B6287F846205E4B0222FA62802287F823
:10518000402003F1130007F1460213F8011B02F857
:10519000011F8342F9D14AF65522A7F8FE2139466C
:1051A000012342460020FDF7A7FE089000287FF467
:1051B0004BAF012308F10602394607F5FF76049646
:1051C000FDF79AFE089E4FF400723146384605F00E
:1051D000FDFA4AF65523A7F8FE31069B013BC7F8B6
:1051E000E831444B3B6003F1FF5303F50053203398
:1051F000C7F8E4310223C7F8EC3108F107020123B4
:1052000039463046FDF778FE012308EB03023946A4
:105210003046FDF771FE52463146384605F0D6FA63
:105220006FF007033B604FF0FF337B606FF070431C
:10523000BB60FBE6BBF1030F53D00B9BB3F5803F84
:105240004CD2BBF1020F14BF4FF001094FF004091B
:10525000059B002B39D1059E4FF40072314638462C
:1052600005F0B4FA0B9B049D2348079C4AF6552C85
:10527000A5F800C043F6C16108EB0302B2FBF1F2EE
:10528000910887F8C5211A0A41F03F0187F8CA3111
:1052900087F8CB214FF0FE0C1A0C1B0EC7F8BE018D
:1052A00087F8C41187F8CC2187F8CD3187F8C291EF
:1052B000394687F8C64101233246304687F8C3C1D4
:1052C000FDF71AFE00287FF4BFAE002211461046FB
:1052D000FDF728FE003818BF012048E54FF0060909
:1052E000B6E74FF00C09B3E70100060029000021E2
:1052F000DCDE000852526141000101004CDF000871
:105300005CDF000810B5104B104A1B68127882B0A1
:1053100004464FF47A70B0FBF2F0B3FBF0F000F00B
:10532000A9F808B90F2C02D9012002B010BD02461D
:10533000019021464FF0FF3000F05CF8044B0198DB
:105340001C6002B010BD00BF1C0000201400002033
:105350001800002008B50B4B1A6842F400721A605E
:105360001A6842F480621A601A6842F480721A6005
:10537000032000F02DF80F20FFF7C4FF03F0C2FE5A
:10538000002008BD003C0240034A044B11681B7812
:105390000B441360704700BF5071012014000020BF
:1053A000014B1868704700BF5071012038B50446A2
:1053B000FFF7F6FF631C054602D0044B1B781C4424
:1053C000FFF7EEFF401BA042FAD338BD14000020C7
:1053D0000749CA6803024FF6FF0003F4E063024086
:1053E000134343F0BF6343F40033CB60704700BF07
:1053F00000ED00E000B5164BDB68C3F30223A3F118
:10540000030CBCF1040F19D84FF0FF3EC3F10703A2
:105410000EFA03F30EFA0CFE22EA0E02DB431940E9
:1054200001FA0CF1114300284FEA01110ADB00F1E7
:10543000604000F5614080F8001300BD00220F239A
:105440009446ECE7034B00F00F00C318197600BD3B
:1054500000ED00E0FCEC00E0002807DB044A410915
:10546000012300F01F00834042F82130704700BF45
:1054700000E100E00138B0F1807F01D301207047E6
:105480004FF0E0230022586104484FF0F00C072150
:1054900080F823C09A6110461961704700ED00E062
:1054A000002800F06F8170B50368DD0782B0044604
:1054B00031D59E498A6802F00C02042A00F0F2807D
:1054C0008A6802F00C02082A00F0E8806368B3F5ED
:1054D000803F00F0F180B3F5A02F944B1A6800F0E4
:1054E0007E8122F480321A601A6822F480221A60C7
:1054F0006368002B00F00881FFF752FF054605E0C6
:10550000FFF74EFF401B642800F2FB80874B1B68AF
:105510009B03F5D52368990729D5844B9A6812F027
:105520000C0F00F094809A6802F00C02082A00F038
:105530008A80E368002B00F00E817D4B01221A6007
:10554000FFF72EFF054605E0FFF72AFF401B022864
:1055500000F2D780754B1B689E07F5D57349226909
:105560000B6823F0F80343EAC2030B6023681A07B1
:1055700054D45D0732D56D4A136C13F0805300F09C
:10558000818000266B4B1B68D80540F1A880A3687A
:10559000012B00F0F180052B644B1A6F00F02D8178
:1055A00022F001021A671A6F22F004021A67A36838
:1055B000002B00F0B780FFF7F3FE054607E0FFF78A
:1055C000EFFE41F28833401B984200F29A80574B1D
:1055D0001B6F9A07F3D5002E40F00981A369D3B160
:1055E000524A926802F00C02082A00F0CD80022B89
:1055F0004F4B4FF000021A6600F00781FFF7D0FE14
:10560000044604E0FFF7CCFE001B022879D8474B84
:105610001B689B01F6D4002002B070BD636903B320
:10562000434B0122C3F8802EFFF7BAFE054604E083
:10563000FFF7B6FE401B022863D83C4B5B6F9B070D
:10564000F6D5236895E75B685A023FF572AF374B92
:105650001B689B0736D5E368012B33D0012002B0CD
:1056600070BD334AC2F8803EFFF79AFE054604E05B
:10567000FFF796FE401B022843D82C4B5B6F9E071A
:10568000F6D4DEE70193136C43F080531364136C7C
:1056900003F080530193019B012673E74A6851028E
:1056A0007FF514AF214A126892037FF534AF626828
:1056B000002A7FF430AFD1E71C4A136843F48033EB
:1056C000136015E7194A2169136823F0F80343EAC8
:1056D000C103136023681A077FF54BAF9EE7154A95
:1056E000136843F480731360FFF75AFE0546114BAD
:1056F0001B68D9053FF54BAFFFF752FE401B022850
:10570000F5D9032002B070BDFFF74AFE054604E05C
:10571000FFF746FE401B6428F3D8044B1B689E032A
:10572000F6D4F7E6FFF73CFE05460CE000380240F1
:105730000000474200700040FFF732FE41F288331C
:10574000401B9842DDD8494B1B6F9B07F4D4002EB9
:105750003FF444AF4BE0464A1360FFF721FE054695
:1057600004E0FFF71DFE401B0228CAD83F4B1B6810
:105770009907F6D42368FAE63C4A136F43F0010315
:10578000136714E701207047012B3FF467AF374BD5
:10579000E2695B6803F4800191427FF45FAF226AA3
:1057A00003F03F0191427FF459AF616A47F6C0723E
:1057B0001A40B2EB811F7FF451AFA26A520803F482
:1057C0004031013AB1EB024F7FF448AFE26A03F097
:1057D0007063B3EB026F14BF012000201CE742F49A
:1057E00080221A601A6842F480321A6080E61F4AEA
:1057F000136C23F080531364F0E642F004021A673E
:105800001A6F42F001021A67D1E6FFF7C9FD05469B
:1058100005E0FFF7C5FD401B02283FF672AF134BB2
:105820001B689901F5D4D4E90731626A0B4343EA56
:105830008213D4E90A2052080D490C4C43EA006354
:10584000013A0A4843EA0243012243600A66FFF72D
:10585000A7FD054605E0FFF7A3FD401B02283FF624
:1058600050AF23689A01F6D5D5E600BF0038024054
:105870000000474208B516498B6803F00C03042B5F
:105880001BD0082B01D0134808BD4A684B684968F3
:1058900013F4800302F03F0211D10E48C1F38811C6
:1058A000A1FB0001FBF760F9094B5B68C3F30143FF
:1058B00001335B00B0FBF3F008BD074808BD0648A4
:1058C000C1F388110023A1FB0001FBF74DF9EBE7C1
:1058D000003802400024F40000127A0058B1494A0E
:1058E000136803F007038B4207D21170136803F0AB
:1058F00007038B4201D0012070472DE9F041036876
:105900009A0716D55F0705D53F4A936843F4E053DD
:10591000936003681E0704D53B4A936843F46043D1
:105920009360394A8468936823F0F00323439360BB
:105930000368DD078846074621D54268012A59D009
:10594000931E012B304B1B6851D9990724D52E4C3F
:10595000A36823F003031343A360FFF721FD41F283
:105960008835064604E0FFF71BFD801BA84246D899
:10597000A3687A6803F00C03B3EB820FF3D1214ADA
:10598000136803F00703434509D982F800801268C1
:1059900002F00702424502D00120BDE8F0813B68D9
:1059A0005A0707D5184AF968936823F4E0530B4364
:1059B00093603B681B0707D5134A3969936823F442
:1059C000604343EAC1039360FFF754FF0E4A0F4C54
:1059D00092680F49C2F303120346A25C0D48D340FC
:1059E00000680B60FFF78EFC0020BDE8F081980195
:1059F000ADD4D1E7044B1B689C03A8D4CCE70320AB
:105A0000CBE700BF003C024000380240F4DF000852
:105A10001C00002018000020044B05499B68054A23
:105A20000868C3F38223D35CD84070470038024033
:105A30001C000020ECDF0008044B05499B68054A68
:105A40000868C3F34233D35CD84070470038024043
:105A50001C000020ECDF00082DE9F04F0023DFF8E8
:105A600008E283B001264FF0030803E00133102B56
:105A700000F0CC800C6806FA03F202EA040CA243A0
:105A8000F4D14A6802F0030202F1FF395C00B9F177
:105A9000010F08FA04F515D8826822EA0509CA68D8
:105AA000A24042EA090282604A68D0F80490C2F338
:105AB00000129A4029EA0C0942EA090242604A6847
:105AC00002F00302032A25D0C26822EA05098A6887
:105AD000A24042EA0902C2604A6802F00302022AB6
