:020000040800F2
:100000000000022015570008A1560008A556000858
:10001000A9560008AD560008B156000800000000BF
:10002000000000000000000000000000B5560008BD
:10003000B956000800000000BD560008C15600086F
:1000400065570008655700086557000865570008A0
:100050006557000865570008655700086557000890
:100060006557000865570008655700086557000880
:100070006557000865570008655700086557000870
:100080006557000865570008655700086557000860
:100090006557000865570008655700086557000850
:1000A0006557000865570008655700086557000840
:1000B00065570008C556000865570008E95600084E
:1000C000F556000865570008655700086557000891
:1000D00065570008D1560008DD560008655700082E
:1000E0006557000865570008655700086557000800
:1000F00065570008655700086557000865570008F0
:1001000065570008655700086557000865570008DF
:1001100065570008655700086557000865570008CF
:1001200065570008655700086557000865570008BF
:100130006557000800000000000000006557000837
:10014000655700086557000865570008655700089F
:10015000655700086557000865570008655700088F
:10016000655700086557000865570008655700087F
:1001700065570008655700080000000000000000F7
:080180006557000865570008EF
:1001900001F0FF01102A2BDB10F0070F08D010F838
:1001A000013B013A8B422DD010F0070F42B3F6D13C
:1001B000F0B441EA012141EA014122F007047FF055
:1001C00000070023F0E80256083C85EA010586EAAC
:1001D000010685FA47F5A3FA87F586FA47F6A5FAE8
:1001E00087F68EB9EED1F0BC01F0FF0102F00702F4
:1001F00032B110F8013B013A83EA010313B1F8D19F
:100200000020704701387047002D06BF354603387F
:10021000073815F0010F07D1013015F4807F02BFB8
:10022000013015F4C03F0130F0BC0138704700BF09
:10023000034613F8012B002AFBD1181A0138704726
:1002400081F0004102E000BF83F0004330B54FEA87
:1002500041044FEA430594EA050F08BF90EA020FF4
:100260001FBF54EA000C55EA020C7FEA645C7FEA87
:10027000655C00F0E2804FEA5454D4EB5555B8BFAA
:100280006D420CDD2C4480EA020281EA030382EA1B
:10029000000083EA010180EA020281EA0303362DAD
:1002A00088BF30BD11F0004F4FEA01314FF4801C80
:1002B0004CEA113102D0404261EB410113F0004F92
:1002C0004FEA03334CEA133302D0524263EB430349
:1002D00094EA050F00F0A780A4F10104D5F1200EE7
:1002E0000DDB02FA0EFC22FA05F2801841F1000142
:1002F00003FA0EF2801843FA05F359410EE0A5F116
:1003000020050EF1200E012A03FA0EFC28BF4CF046
:10031000020C43FA05F3C01851EBE37101F00045FC
:1003200007D54FF0000EDCF1000C7EEB00006EEB09
:100330000101B1F5801F1BD3B1F5001F0CD3490893
:100340005FEA30004FEA3C0C04F101044FEA4452EA
:1003500012F5800F80F09A80BCF1004F08BF5FEA71
:10036000500C50F1000041EB045141EA050130BD51
:100370005FEA4C0C404141EB0101013C28BFB1F563
:10038000801FE9D291F0000F04BF01460020B1FAAE
:1003900081F308BF2033A3F10B03B3F120020CDA81
:1003A0000C3208DD02F1140CC2F10C0201FA0CF05F
:1003B00021FA02F10CE002F11402D8BFC2F1200CC4
:1003C00001FA02F120FA0CFCDCBF41EA0C0190407A
:1003D000E41AA2BF01EB0451294330BD6FEA0404C3
:1003E0001F3C1CDA0C340EDC04F11404C4F12002AE
:1003F00020FA04F001FA02F340EA030021FA04F3C0
:1004000045EA030130BDC4F10C04C4F1200220FA16
:1004100002F001FA04F340EA0300294630BD21FA54
:1004200004F0294630BD94F0000F83F4801306BF1A
:1004300081F480110134013D4EE77FEA645C18BF0E
:100440007FEA655C29D094EA050F08BF90EA020FA5
:1004500005D054EA000C04BF1946104630BD91EA9D
:10046000030F1EBF0021002030BD5FEA545C05D1A0
:100470004000494128BF41F0004130BD14F58004DF
:100480003CBF01F5801130BD01F0004545F0FE4153
:1004900041F470014FF0000030BD7FEA645C1ABF88
:1004A000194610467FEA655C1CBF0B46024650EABF
:1004B000013406BF52EA033591EA030F41F40021EB
:1004C00030BD00BF90F0000F04BF0021704730B571
:1004D0004FF4806404F132044FF000054FF0000146
:1004E00050E700BF90F0000F04BF0021704730B507
:1004F0004FF4806404F1320410F0004548BF4042DC
:100500004FF000013EE700BF42004FEAE2014FEA30
:1005100031014FEA02701FBF12F07F4393F07F4F0B
:1005200081F06051704732F07F4208BF704793F00E
:100530007F4F04BF41F40021704730B54FF4607421
:1005400001F0004521F000411CE700BF50EA010224
:1005500008BF704730B54FF000050AE050EA0102CD
:1005600008BF704730B511F0004502D5404261EB3D
:1005700041014FF4806404F132045FEA915C3FF47E
:10058000D8AE4FF003025FEADC0C18BF03325FEA1B
:10059000DC0C18BF033202EBDC02C2F1200300FACC
:1005A00003FC20FA02F001FA03FE40EA0E0021FAF1
:1005B00002F11444BDE600BF70B54FF0FF0C4CF4DF
:1005C000E06C1CEA11541DBF1CEA135594EA0C0F91
:1005D00095EA0C0F00F0DEF82C4481EA030621EACC
:1005E0004C5123EA4C5350EA013518BF52EA033507
:1005F00041F4801143F4801338D0A0FB02CE4FF0B9
:100600000005E1FB02E506F00042E0FB03E54FF0E8
:100610000006E1FB03569CF0000F18BF4EF0010EE0
:10062000A4F1FF04B6F5007F64F5407404D25FEADC
:100630004E0E6D4146EB060642EAC62141EA55518F
:100640004FEAC52040EA5E504FEACE2EB4F1FD0CD1
:1006500088BFBCF5E06F1ED8BEF1004F08BF5FEA4F
:10066000500E50F1000041EB045170BD06F0004601
:1006700046EA010140EA020081EA0301B4EB5C04AE
:10068000C2BFD4EB0C0541EA045170BD41F48011A6
:100690004FF0000E013C00F3AB8014F1360FDEBFCB
:1006A000002001F0004170BDC4F10004203C35DAA7
:1006B0000C341BDC04F11404C4F1200500FA05F32A
:1006C00020FA04F001FA05F240EA020001F00042CB
:1006D00021F0004110EBD37021FA04F642EB060141
:1006E0005EEA430E08BF20EAD37070BDC4F10C046B
:1006F000C4F1200500FA04F320FA05F001FA04F22F
:1007000040EA020001F0004110EBD37041F100011A
:100710005EEA430E08BF20EAD37070BDC4F1200525
:1007200000FA05F24EEA020E20FA04F301FA05F28D
:1007300043EA020321FA04F001F0004121FA04F235
:1007400020EA020000EBD3705EEA430E08BF20EA05
:10075000D37070BD94F0000F0FD101F0004640003F
:1007600041EB010111F4801F08BF013CF7D041EAC1
:10077000060195F0000F18BF704703F000465200C5
:1007800043EB030313F4801F08BF013DF7D043EA96
:100790000603704794EA0C0F0CEA135518BF95EA4C
:1007A0000C0F0CD050EA410618BF52EA4306D1D1D3
:1007B00081EA030101F000414FF0000070BD50EAF2
:1007C000410606BF1046194652EA430619D094EA7C
:1007D0000C0F02D150EA013613D195EA0C0F05D166
:1007E00052EA03361CBF104619460AD181EA0301BA
:1007F00001F0004141F0FE4141F470014FF0000072
:1008000070BD41F0FE4141F4780170BD70B54FF00C
:10081000FF0C4CF4E06C1CEA11541DBF1CEA13558C
:1008200094EA0C0F95EA0C0F00F0A7F8A4EB05046E
:1008300081EA030E52EA03354FEA013100F0888065
:100840004FEA03334FF0805545EA131343EA12632E
:100850004FEA022245EA111545EA10654FEA0026E3
:100860000EF000419D4208BF964244F1FD0404F59C
:10087000407402D25B084FEA3202B61A65EB0305F8
:100880005B084FEA32024FF480104FF4002CB6EBB5
:10089000020E75EB030E22BFB61A754640EA0C0035
:1008A0005B084FEA3202B6EB020E75EB030E22BF75
:1008B000B61A754640EA5C005B084FEA3202B6EBB6
:1008C000020E75EB030E22BFB61A754640EA9C0075
:1008D0005B084FEA3202B6EB020E75EB030E22BF45
:1008E000B61A754640EADC0055EA060E18D04FEA03
:1008F000051545EA16754FEA06164FEAC30343EAA3
:1009000052734FEAC2025FEA1C1CC0D111F4801F6F
:100910000BD141EA00014FF000004FF0004CB6E768
:1009200011F4801F04BF01430020B4F1FD0C88BF07
:10093000BCF5E06F3FF6AFAEB5EB030C04BFB6EB12
:10094000020C5FEA500C50F1000041EB045170BD05
:100950000EF0004E4EEA113114EB5C04C2BFD4EB32
:100960000C0541EA045170BD41F480114FF0000EB6
:10097000013C90E645EA060E8DE60CEA135594EA32
:100980000C0F08BF95EA0C0F3FF43BAF94EA0C0F35
:100990000AD150EA01347FF434AF95EA0C0F7FF4AA
:1009A00025AF104619462CE795EA0C0F06D152EAFE
:1009B00003353FF4FDAE1046194622E750EA4106E2
:1009C00018BF52EA43067FF4C5AE50EA41047FF4F3
:1009D0000DAF52EA43057FF4EBAE12E74FF0FF3C58
:1009E00006E000BF4FF0010C02E000BF4FF0010C29
:1009F0004DF804CD4FEA410C7FEA6C5C4FEA430CA2
:100A000018BF7FEA6C5C1BD001B050EA410C0CBFF0
:100A100052EA430C91EA030F02BF90EA020F002052
:100A2000704710F1000F91EA030F58BF994208BFB9
:100A300090422CBFD8176FEAE37040F00100704776
:100A40004FEA410C7FEA6C5C02D150EA013C07D1CD
:100A50004FEA430C7FEA6C5CD6D152EA033CD3D018
:100A60005DF8040B704700BF8446104662468C4612
:100A70001946634600E000BF01B5FFF7B7FF002845
:100A800048BF10F1000F01BD4DF808EDFFF7F4FF6E
:100A90000CBF012000205DF808FB00BF4DF808EDF9
:100AA000FFF7EAFF34BF012000205DF808FB00BF1C
:100AB0004DF808EDFFF7E0FF94BF012000205DF83E
:100AC00008FB00BF4DF808EDFFF7CEFF94BF0120F3
:100AD00000205DF808FB00BF4DF808EDFFF7C4FFEC
:100AE00034BF012000205DF808FB00BF4FEA410C35
:100AF0007FEA6C5C02D150EA013C0AD14FEA430C18
:100B00007FEA6C5C02D152EA033C02D14FF0000054
:100B100070474FF0010070474FEA410212F5001292
:100B200015D211D56FF47873B3EB625212D94FEA34
:100B3000C12343F0004343EA505311F0004F23FA1E
:100B400002F018BF404270474FF00000704750EA73
:100B5000013005D111F0004008BF6FF00040704730
:100B60004FF00000704700BF53B94AB9002908BFD1
:100B700000281CBF4FF0FF314FF0FF3000F00CB8E1
:100B8000ADF1080C6DE904CE08F0AAF8DDF804E038
:100B9000DDE9022304B07047704700BF0348044BEF
:100BA000834202D0034B03B118477047D80100209D
:100BB000D8010020000000000548064B1B1AD90F81
:100BC00001EBA301491002D0034B03B11847704752
:100BD000D8010020D80100200000000010B5064C0C
:100BE000237843B9FFF7DAFF044B13B10448AFF39E
:100BF00000800123237010BDD801002000000000F8
:100C0000A090000808B5054B1BB105490548AFF396
:100C10000080BDE80840FFF7CFBF00BF0000000024
:100C2000DC010020A0900008B0FA80F238B552092B
:100C300004460D460E48102102F07CFAA4F1010290
:100C4000B2FA82F20A482021520902F073FAA4F1A2
:100C50000202B2FA82F206484021520902F06AFA10
:100C60002A460348BDE83840802102F063BA00BF3D
:100C7000000002402DE9F04FADB00024AD4B0F94C1
:100C80001A6B42F008021A631B6B1A944FF47040FF
:100C9000012103F00803CDE916010F93A6480F9B2D
:100CA00016A9CDE9184402F031F90122A2484FF407
:100CB000704102F03FFA1094A04A109B934205DC69
:100CC000109B01331093109B9342F9DD00224FF4E7
:100CD00070419948974DDFF8B482002402F02AFA57
:100CE00001F092FD0021302220A805F01BFFCDE984
:100CF0001B44CDE91D4414941F942A6C904B42F080
:100D000080522A642A6C02F080521492149A15942C
:100D10001A6842F480421A601B6803F480431593FA
:100D2000159B01224FF480330226CDE920234FF496
:100D30008003CDE9266308224FF4A873CDE9282368
:100D400020A802220723CDE92A2301F003FE0F2366
:100D50001B934FF4A0574FF4805305211BA8CDE9F6
:100D60001E73CDE91C6402F013F8CDE922441194FE
:100D700024942B6B704843F001032B632B6B03F01F
:100D800001031193119B12942B6B33432B632B6B39
:100D900033401293129B13942B6B43F004032B6389
:100DA0002B6B03F004031393139B1B942B6B43F0E7
:100DB00008032B632B6B03F008031B934FF4704263
:100DC000012320A9CDE920231B9B02F09FF85A485C
:100DD00022464FF4704102F0ADF901274FF404139D
:100DE00001225848229720A9CDE9202302F08EF84D
:100DF00031462246062001F057FD062001F086FD0F
:100E00004FF404134FF400524F48229420A9CDE927
:100E1000202302F07BF822460321282001F044FD24
:100E2000282001F073FD4949494A4A4B0C62C1E947
:100E3000002308464FF48043C1E90434C1E9024469
:100E4000C1E9064402F006FF434A444B13601046D2
:100E50004FF4E1330C25C2E904455360C2E9024472
:100E6000C2E9064402F00CFA3D4BDFF824C15D6193
:100E700018463C4D1C61C3E902449C61DC614FF49F
:100E80006123C0E900C302F0FBF94FF0804E532309
:100E9000C5E900E328464FF0FF33EB60AC602C61FE
:100EA000AC6104F047FA304A40F24733C2E90083AC
:100EB000104640F2E7338026D36094601461966157
:100EC00004F038FA224639461D2001F0EDFC1D20C1
:100ED00001F01CFD01F06CFB234804F0D1F823481D
:100EE00001F04AFC224800F0A7FD1D4A2049214894
:100EF00001F0CEF8204800F0FBFB204800F02EFD6A
:100F000012491F4800F0FAFA0346002842D0314641
:100F10001C4A1D4805F090FD81B21B4801F040FBC2
:100F200005484FF4804102F009F9642001F098FC73
:100F3000F6E700BF00380240000C02403F420F00BD
:100F4000007000400000024000080240F0600120F4
:100F500000540040801A06006060012000440040F8
:100F6000A860012014600120CC5F01203412CDABB9
:100F700040580020F8090020985F01208C5501207E
:100F8000AC5F0120B89000084461012000040040DB
:100F900000100140DFF8B8C29C4F0CF1300E3E4605
:100FA00064460FCC744506F110060CF1100C46F89F
:100FB000100C46F80C1C46F8082C46F8043CEFD1FF
:100FC0009248924E2F2101F0EBFADFF888C20CF123
:100FD000300E64460FCC744506F110060CF1100C6F
:100FE00046F8100C46F80C1C46F8082C46F8043C51
:100FF000EFD1BCF8003033809CF80230B3708348E6
:10100000322101F0CDFA82498248012202F0E8F94A
:1010100001224FF48051804802F08CF8642001F0E6
:101020001FFC00224FF480517B4802F083F86420BB
:1010300001F016FC794977484FF4FA731C2202F04C
:1010400053F9002840F0BC80DFF80CC26F4C0CF163
:10105000300E66460FCE764504F110040CF1100CEC
:1010600044F8100C44F80C1C44F8082C44F8043CD8
:10107000EFD1BCE80300BCF8003020606160238140
:101080006248674CDFF8C4A1DFF8B491DFF8CC8187
:10109000392101F085FA03220A214FF4FA73CDE9D0
:1010A00002211021CDE900315E4A5848802105F027
:1010B000C3FC4FF0000B5548402101F071FA01F0DC
:1010C000BDFACDF82CB02378B3B12B6856495748F8
:1010D000002222705B6A00F0EDFA00287BD00B9BA7
:1010E000534A4A48802105F0A7FC81B2474801F0E5
:1010F00057FA2378002BE8D101F0ACFB9AF8083AB4
:1011000006462BB1A0EB0B03B3F57A7F80F0A880E5
:1011100099F80030023B032B69D998F80030002B76
:10112000D1D03B4B002188F800101A78772AD3B22F
:101130001CD8712B40F2DE80723B052B16D8DFE8FD
:1011400003F0362D1524151B3A4E02233A4A13702C
:101150000FCE38607960BA60FB600FCE386179617C
:101160002A48BA611F21FB6101F01AFA284929486F
:10117000012202F035F9A6E7304800F0E1FE2449EB
:101180002448012202F02CF99DE72D4801F0DEF8F9
:101190001F492048012202F023F994E7284801F072
:1011A00035F91B491B48012202F01AF98BE7244844
:1011B00001F0FCF816491748012202F011F982E704
:1011C000322001F04DFB154912484FF4FA731C22EE
:1011D00002F08AF838E71B4A13491B4800F098FAD6
:1011E00018491A4800F0C0FB2B685B6A84E7124B71
:1011F000012118781E46FFF717FD114801F040F94C
:1012000030780021FFF710FD87E700BF446101201F
:10121000F601002060600120000C02405891000897
:10122000F7010020B4910008DC090020AC5F012028
:10123000F491000814930008F401002040580020A5
:10124000F8090020C8090020985F01208C55012072
:10125000F49000082491000878910008F50100201E
:101260002B6850495048D3F824B000F0A9FB00285F
:1012700060D02B684B495A6A4C485B6A0C93A2EBCE
:101280000B020D9200F04EFC484800F039FE0B9B1B
:101290000D9A01330B932B685B6A08920C9A9B1A88
:1012A0000993434B83461868FFF72EF9CDE90601F1
:1012B000404B1868FFF728F9CDE904013E4B186848
:1012C000FFF722F90B9B3D4ACDF800B0CDE90201B2
:1012D00080213B4805F0B0FB81B2394801F060F94C
:1012E00058460021FFF7A0FC99F80030012B3AD9AD
:1012F000B3460FE7312B33D0322B3FF425AF302BE1
:101300007FF434AF2F4B304E19700FCE38607960B8
:10131000BA6007CEFB603861337879612848BA61DA
:101320001C213B7701F03CF928492948012202F0B1
:1013300057F8C8E6DFF8ACC0BCE80F003860796049
:10134000BA60BCE80700FB6038619CF80030796146
:101350001B48BA611C213B77B34601F021F9B2E684
:101360001C4E0123F2E6174B0E491A781A4800F07A
:10137000B5FE08B9B346CBE6184B194A93F8363E8A
:101380000193104B0E481B7800930A23029380218F
:101390000B9B05F051FB81B2094801F001F9B346FE
:1013A000B6E600BFF80100208C550120405800200F
:1013B00094D6002090D600208CD600203C920008C5
:1013C00044610120F4010020D4920008F6010020BD
:1013D00060600120F4920008F8090020F84900201C
:1013E000909200081C920008044B02689A4200D0B8
:1013F0007047034B01221A70704700BF0004004081
:10140000F7010020044B02689A4200D07047034B5A
:1014100001221A70704700BF00440040F50100200F
:1014200010B54FF00A0C88B00E23CDE9013C04AB97
:101430000093144601233B2202F0D2FC034638BB42
:10144000BDF810C0BDF81210BDF814001A469CFA81
:101450009CFC6CF30F0249BA61F31F422260BDF895
:101460001A20BDF8181052BA6281BDF81C2049BA82
:10147000218152BABDF81610A28140BA1A4649BA63
:1014800060F30F0261F31F421846626008B010BD9E
:10149000064A0748802105F0CFFA81B2044801F0DE
:1014A0007FF80123184608B010BD00BF3493000830
:1014B0004461012030B50A2385B00124CDE9014300
:1014C00000920D460A4623460179006802F088FC26
:1014D00008B905B030BD074A00902B468021064868
:1014E00005F0AAFA81B2044801F05AF8204605B086
:1014F00030BD00BF609300084461012030B5002377
:1015000085B0D02500220160057182838360C360AD
:101510000361436183610DF10F0275210446FFF7FA
:10152000C9FF054688BB9DF80F30682B30D1204A93
:101530002048802105F080FA1E48222101F030F871
:101540000123DFF87CE0DFF86CC0237774460FCC12
:10155000CCF80C30184BCCF800009C420CF1100C6D
:101560000EF1100E4CF80C1C4CF8082CEED1BEE815
:1015700003009EF80030CCF80000CCF804100D48B1
:101580008CF80830382101F00BF8284605B030BD42
:1015900068210A4A00910748802105F04DFA054864
:1015A0003A2100F0FDFF0225284605B030BD00BFFE
:1015B000D09300084461012028940008909300080B
:1015C000F8930008B1F900309FED356ADFED356A18
:1015D00090ED057A9FED345ADFED345A07EE903ADC
:1015E000F8EEE77A67EE867A67EEA67A77EEC77A44
:1015F0009FED2F7AC2ED007AB1F90230D0ED064AA4
:1016000007EE903AF8EEE77A67EE867A67EEA67A0A
:1016100077EEE47AC2ED017AB1F9043007EE903A40
:10162000F8EEE77A67EE867A67EEA67AC2ED027A7E
:10163000B1F9083090ED026A06EE903AF8EEE66AEB
:10164000C6EE877A77EEC67AC2ED037AB1F90A3030
:1016500090ED036A06EE903AF8EEE66AC6EE877AF7
:1016600077EEC67AC2ED047AB1F90C3090ED046AD7
:1016700006EE903AF8EEE66AC6EE877A77EEC67A1C
:10168000C2ED057AB1F9063007EE103AB8EEC77A26
:10169000C7EE057A77EEA57AC2ED067A704700BFED
:1016A000000080380AE81C410000AA43B81E12421C
:1016B0000000034330B5037F87B0A3B103460D4656
:1016C00002AA017900680193FFF7AAFE044610B14F
:1016D000204607B030BD01982A4602A9FFF772FFE5
:1016E000204607B030BD0424204607B030BD00BFFF
:1016F0000023DFF818C00449036000224360C0F8EB
:1017000008C0C160027470470AD7233C48E17A3FA1
:1017100000B52DED068BD1ED009AD1ED028A9FED3B
:101720004D9A91ED018A9FED4CAA68EEA88A69EE68
:10173000A97A85B077EEA87AB0EE480AF1EEE70A0A
:10174000CDE901200391B4EEE09AF1EE10FAC8BFA2
:10175000F0EE490A04F008F828EE088AF0EE407A24
:1017600038EE288AB0EE690AF1EEC80A67EE8A8A76
:10177000B4EEE09AF1EE10FAC8BFF0EE490A03F0B9
:10178000F3FF0298019A037C039920EE0A0ADBBB5F
:101790000123037480ED010AC0ED008AD1ED046AD3
:1017A00091ED037AD1ED055AD1ED007A91ED016A00
:1017B00026EEA65A27EE077AD1ED026AC2ED008A1C
:1017C00037EE057A65EEA55A26EE066A67EEA77A29
:1017D00037EE257A77EE867A66EEA66AB1EEC76AAC
:1017E0004368536077EEA67A92ED027A82ED026A40
:1017F000F1EEE76A76EE477AC2ED036AC2ED047A4B
:1018000005B0BDEC068B00BDD0ED037AD1ED046AC6
:1018100091ED037A90ED026A90ED005AD0ED015AF5
:1018200027EE877A67EEA67AF7EE006A76EEC66A4A
:1018300037EE057A77EEA57A27EE067A66EEA88A65
:1018400067EE867A26EE800A77EE288A37EE800ADF
:10185000A0E700BFBD378635E02E6542002961D084
:1018600000B5DFED3C7A85B003468A0000EB810EBF
:101870008446BCEC017AE64577EE877AF9D106EE2C
:10188000901AB8EEE66A9FED337AC7EE866AF3ECFB
:10189000017A77EEE67A9E4567EEA77A37EE277AE9
:1018A000F5D10129034629D0013907EE901AF8EE47
:1018B000E77A87EE270AB5EE400AF1EE10FA35D442
:1018C000F1EEC07A9FED247AF4EEC77AF1EE10FAC9
:1018D00022D49FED217A77EE877AB7EE006A86EE02
:1018E000277A1A44D3ED007A77EEE67A67EE877AA4
:1018F000E3EC017A9A42F5D105B000BDB5EE407A2D
:10190000F1EE10FA1FD4F1EEC77A9FED137AF4EEE0
:10191000C77AF1EE10FADCD5002105B05DF804EBD2
:1019200005F000B90A46002105F0FCB8CDE9022017
:10193000CDED016A03F086FFDDE90223DDED016AEA
:10194000F0EE407AC5E7CDE90220CDED016AB0EEB8
:10195000470AEFE70000000095BFD63340F60C229F
:10196000002105F0DFB800BFD0F8002AD1F800C090
:1019700002F07F0303EB830300EB83030132C3F820
:1019800000C0D1F804C0C3F804C0D1F808C0C3F83F
:1019900008C0D1F80CC0C3F80CC009691961D0F8AF
:1019A000043AC0F8002A7F2B03D9012380F8083AB3
:1019B00070470133632BC0F8043AF6D8704700BF74
:1019C00038B590F8083A93B3D0F8003A0D460C4673
:1019D00001F5966EA3F1640C01F5C8712A460CF06E
:1019E0007F0303EB830300EB8303D3ED007AE2EC88
:1019F000017AD3ED017AC2ED637AD3ED027AC2EDBA
:101A0000C77AD3ED037AEEEC017A1B69CEF88C31FC
:101A10008A420CF1010CE2D105F5FA6520466421F9
:101A200004F5C874FFF71AFFA542F7D10123184641
:101A300038BD00BF000000002DE9F04100F5704303
:101A40002DED028B03F6FC42054631489FED318AAD
:101A500086B0106005F57D424FF00008002105F5C5
:101A60007D40116005F5FC474022C3F8048D83F8E2
:101A7000488D4146083005F5FA4605F053F84022F6
:101A80004146304605F04EF82C46C7F80080C7F8AE
:101A90000480C7F8088000F079FE20EE080AA4EC64
:101AA000010AB442F7D105F5FA459FED1B8A40358E
:101AB00000F06CFE20EE080AA5EC010ABD42F7D149
:101AC0000FA3D3E9002310A5D5E90045CDE90423F0
:101AD00003211023CDE90031CDE902450F4A10481A
:101AE0004FF4FA73802104F0A7FF81B20C4806B0CE
:101AF000BDEC028BBDE8F04100F052BDAFF30080B9
:101B0000000000A081FBE13F000000C0ED9ABB3F58
:101B10000AD7233C6ED7DC3D0DDC0F3F3494000820
:101B20004461012070B52DED028B00F5FA449FED64
:101B30004D6A0D4600F5FA4E00F5FA6C4034014648
:101B4000BEEC017A2A460B46F3EC017AF2EC016A0C
:101B500067EEA67A634537EE277AF5D1B5EEC07AFF
:101B6000F1EE10FAD4BFF0EE467AF0EE477AA645D1
:101B70008EED557ACEED427A01F5FA6103F5FA6CF5
:101B8000DED100F5FC4500F5FC4400F5FB410C35C9
:101B9000B4EC017AA1F140032A46F3EC017AF2ECAD
:101BA000016A67EEA67A994237EE277AF5D1A54207
:101BB00084ED257A84ED127A01F14001E8D100F537
:101BC000E04606F5656306F64C62D3ED007A92EDC9
:101BD000007A9FED248AF4EEC77A06F65463F1EE9C
:101BE00010FAD3ED008AD8BFF0EE477AF4EEE78A18
:101BF000F1EE10FA00F5FC4400F5FC45D8BFF0EE1C
:101C0000678A4C34583594ED000A30EE680A03F0C8
:101C1000ADFDA4EC010AA54238EE008AF3D19FED98
:101C2000127A38EE078AF7EE007A87EE887A06F69F
:101C30004C6206F5656306F65466D2ED007A67EEEF
:101C4000877AC2ED007AD3ED007A67EE877AC3ED2A
:101C5000007AD6ED007A67EE877AC6ED007ABDECA1
:101C6000028B70BD0000000095BFD6332DE9F04116
:101C700000EB820300F5E04200F570450C4602F6E9
:101C80004C6105F54B660968316002F5656102F645
:101C90000C670E6805F6B44103F57C430E6002F64E
:101CA000546105F6B84209681160D3ED2C7AB7EE9D
:101CB000007A77EEC77A00F57B4600F57C4C00F59C
:101CC0007C4100F5FC4800F5FC4EC3ED2C7AE8366B
:101CD0000CF1B00CBC3108F110080EF14C0EBCEC4C
:101CE000017A0CED047AD7ED007A67EE877A4346E5
:101CF000324646ED017AB3EC017A5CED017A67EE8B
:101D0000877A7345E2EC017AF5D18C4506F14006FD
:101D1000E5D100F5FA4305F54B6705F6B4469FEDAE
:101D20002D6A403300F5FB4C05F6B8451BE0D2EDBB
:101D3000007AD7ED006A93ED0F7A96ED005AD5ED53
:101D4000005A66EEA76A27EE057AD3ED1F7A76EE83
:101D5000866A67EEA57A37EE267A634577EE877A4C
:101D6000E1EC017A0FD0D3ED467AF5EEC07AF1EED0
:101D700010FA1A4603F10403D9DCF0EE467A634503
:101D8000E1EC017AEFD100F5FD4500F57B4E2435FD
:101D90000EF1E40029460EF1A40E04F5FA6C9EED56
:101DA000467A2346AEEC017A0A46F3EC017A67EEF6
:101DB000277A6345E2EC017AF7D1864501F5FA61AD
:101DC000EDD12846B1EE040ABDE8F0414FF4FA51D6
:101DD00000F018BC0000000000F5704C0CF6FC434D
:101DE00000F5FD42D3ED006A243200F5FA410346C6
:101DF000B2EC017AD3ED007A27EE267A77EEC77A35
:101E0000E3EC017A8B42F3D100F57B4200F5FA4313
:101E1000A4324033B2EC017AD1ED007A27EE267A73
:101E200077EEC77AE1EC017A9942F3D100F57B4273
:101E3000E43200F5FC41B2EC017AD3ED007A27EEF2
:101E4000267A77EEC77AE3EC017A8B42F3D100F57C
:101E50007C4300F5FC40A4330C30B3EC017AD1EDA7
:101E6000007A27EE267A77EEC77AE1EC017A88428B
:101E7000F3D1DCF8043D0133CCF8043D704700BFDA
:101E800030B583B0154604460191FFF74BFE05F5CA
:101E9000FC53123304EB8303D3ED017A9FED170A51
:101EA000B4EEE70AF1EE10FAD8BFB0EE670A03F01D
:101EB00099FC04F5704CB1EE400A9CF8483D01993C
:101EC0008DED010A03F57D500230013304EB8000F3
:101ED00003F00F0380ED000A8CF8483D04F57D43C4
:101EE00083ED000A2A462046FFF7C0FE2046FFF792
:101EF00073FF9DED010A03B030BD00BF95BFD6331F
:101F000000F5E04303F64C6103F5656291ED007A5C
:101F1000D2ED007AB4EEE77AF1EE10FA0DD4F0EEDD
:101F2000477A002003F6546393ED007AB4EEE77A23
:101F3000F1EE10FAC8BF022070470120F2E700BF9F
:101F4000F0B52DED028B90ED008A9FED4A7A87B0B7
:101F50000446F0EE488A00F5FA420346F3EC017AB3
:101F6000B4EEE78AF1EE10FAF4EEE87AC8BFB0EE0C
:101F7000678AF1EE10FAC8BFF0EE678A934237EE37
:101F8000277AEBD1DFED3C7AC7EE277A17EE900A7D
:101F9000FEF7BAFA02460B4618EE900ACDE9042382
:101FA000FEF7B2FA0B46024618EE100ACDE90223FC
:101FB000FEF7AAFA314ACDE900018021304804F049
:101FC0003BFD81B22E4800F0EBFA04F5704304F5B6
:101FD0007D42D3F8043D10681D46FEF795FA04F5DE
:101FE0007D4304F57D42DFED237A06460F46083334
:101FF0004832B3EC017A934277EE877AF9D19FEDBC
:10200000217A67EE877A04F5E04417EE900AFEF72E
:102010007BFA1D4ACDE902012B46CDE900678021FC
:10202000174804F009FD81B2154800F0B9FA04F62A
:1020300054631868FEF768FACDE9040104F5656396
:1020400004F64C641868FEF75FFACDE902012068D7
:10205000FEF75AFA0D4ACDE900018021084804F044
:10206000EBFC81B2064807B0BDEC028BBDE8F04046
:1020700000F096BA000000000000FA4574940008D1
:10208000446101200000803DAC940008E094000809
:1020900038B50D461446002144F6486204F042FD6E
:1020A0004722C0E901540A490A4804F0BAFD094828
:1020B000462100F075FA0A238021074A054804F0FA
:1020C000BBFCBDE8384003482E2100F069BA00BFD0
:1020D00028950008446101207095000890F800C020
:1020E000BCF1010F57D8F0B500F5804585B095F8E3
:1020F000363E092B17460E46044629D8BCF1000F80
:1021000058D04FF4FA6202FB034031460C3003937F
:1021100004F087FD039B384844F62C622344802159
:102120009F5495F8363E01970133DBB20A2285F8B9
:10213000363E0092314A04F07FFC81B22E4800F016
:102140002FFA95F8363E092B27D8012005B0F0BDAF
:102150002B4D294C05F1200EAC46BCE80F00F44590
:1021600004F1100405F1100544F8100C44F80C1C9F
:1021700044F8082C44F8043CEED107CD2B88A38109
:10218000AB78206061601C48A2602E21A37300F030
:1021900007FA0020DAE70020704702232370194A6B
:1021A00015480A23802104F047FC1348362100F02B
:1021B000F7F9CAE7DFF850C0DFF83CE0012303700D
:1021C000BCE80F00CEF80000CEF80410CEF80820CE
:1021D000CEF80C30BCE80F00CEF81000CEF814108A
:1021E00070461F21CEF81C30CEF8182000F0D8F928
:1021F00095F8363E85E700BF44610120F095000860
:10220000A09500081C960008D09500082DE9F04D17
:1022100000F580472DED028BD7F8383E454A013353
:1022200084B080218046444804F006FC81B24248D4
:1022300000F0B6F997F8363E002B75D008F59C45AE
:102240009FED3E8A2B3508F10C06002415F8012F6E
:10225000D8F804003146FFF713FE10EE100A38EEEE
:10226000008AFEF751F92A7897F8363E0134824603
:102270008B46CDE900328021314A2F482346CDE9F3
:1022800002AB04F0D9FB81B22B4800F089F997F832
:10229000363EE2B2934206F5FA66D7D807EE903A98
:1022A000B8EE677AC8EE077A07F56462254E224CCD
:1022B000C2ED007AD7F83C2E1344C7F83C3E17EE27
:1022C000900A0293FEF720F91F4ACDE90001802110
:1022D000194804F0B1FB81B2174800F061F906F12A
:1022E000300735460FCDBD4204F1100406F110064B
:1022F00044F8100C44F80C1C44F8082C44F8043C36
:10230000EFD103CE33882381B37820606160A3725C
:1023100009483A2100F044F9032388F8003004B05A
:10232000BDEC028BBDE8F08D9FED047AB0EE478ADC
:10233000B8E700BF54960008446101200000000087
:102340008C960008FC960008BC9600080378012BC8
:1023500000D9704730B5124DDFF84CE083B08446A9
:102360002C460FCCCEF80C300E4BCEF800009C4221
:102370000EF1100E05F110054EF80C1C4EF8082C4D
:10238000EED12868CDF804C02321CEF8000006481D
:1023900000F006F9019B03221A7003B030BD00BFA4
:1023A00038970008589700084461012010B544F69A
:1023B0002C62044600210C3004F0B4FB002323708F
:1023C000DFF840C0DFF840E004F58044A4F8453E63
:1023D000BCE80F00CEF80000CEF80410BCE8030003
:1023E000CEF80C30BCF80030CEF81000CEF8141047
:1023F000CEF80820AEF8183070461921BDE810401C
:1024000000F0CEB85C9700084461012030B5037835
:10241000052B00F5804496BF154A164B52F8233021
:1024200094F8462E89B004F5646105460868059263
:1024300094F8442E07930492FEF766F8CDE9020162
:10244000D4F83C0ED4F8381E079B0B4ACDE9001097
:1024500080210A4804F0F0FA011E03DD074889B222
:1024600000F09EF8686809B0BDE83040FFF768BD2D
:10247000C899000820950008789700084461012059
:1024800038B503780446052B72D8DFE803F005055C
:10249000343803060023037038BD00F580453A4AFE
:1024A00095F8453E3948802104F0C6FA81B2374894
:1024B00000F076F844F62C62002104F10C0004F0E0
:1024C00031FBDFF8D8C000232370A5F8453EBCE8F7
:1024D0000F002E4C20606160BCE80300E360BCF894
:1024E000003020616161A260238320461921BDE88C
:1024F000384000F055B8BDE83840FFF787BE244D9E
:10250000DFF888C0AE46BEE80F00CCF80C30214B97
:10251000CCF800009E450CF1100C05F110054CF8AC
:102520000C1C4CF8082CEDD12B4607CB1B78CCF8B3
:102530000000CCF80410CCF808208CF80C301348BC
:102540003C2100F02DF804F5804044F62C62D0F8D0
:10255000383E0133C0F8383E002104F10C0004F08D
:10256000E1FA002323702046BDE83840FFF74EBF54
:10257000094A0648802104F05FFA81B2034800F05E
:102580000FF80523237038BD089800084461012026
:10259000C8970008F8970008389800085C9700086A
:1025A0000A4664230146014800F09EBE6060012097
:1025B00010B5104802F02EFDDFF844E0DFF83CC013
:1025C000BEE80F00ACE80F00BEE80F00ACE80F005B
:1025D0009EE803004CF8040B2CF8021B4FEA114E46
:1025E0008CF800E0BDE8104003480449642326222B
:1025F00000F07ABE14600120606001204461012077
:1026000098980008C1B100EB8101B1EE407A03E077
:1026100000ED010A81420FD0F0EC017AF4EEC07AAD
:10262000F1EE10FAF4DCF4EEC77AF1EE10FAF1D51F
:10263000814200ED017AEFD1704700BFF0B583B061
:10264000EFF30885404E414FDFF828C1404CAB1BEB
:102650007A1B01930092BCE80F000FC49CE80F00A6
:1026600007C41C222370A4F11C016423394800F024
:102670003BFE3B46384A8021A4F11C0004F0DCF903
:10268000A4F11C0164232122324800F02DFE2B46C8
:10269000324A334D8021A4F11C0004F0CDF9A4F19D
:1026A0001C01642321222B4800F01EFE33462D4AD4
:1026B0008021A4F11C0004F0BFF9A4F11C016423E3
:1026C0002122244800F010FE009B274A8021A4F11B
:1026D0001C0004F0B1F9A4F11C0182B264231D486E
:1026E00000F002FE019B214A8021A4F11C0004F0AD
:1026F000A3F9A4F11C0182B26423164800F0F4FD92
:102700001B4A4FF4FA438021A4F11C0004F094F911
:10271000A4F11C01642322220E4800F0E5FD0FCD38
:10272000A4F11C0CACE80F0095E80F00ACE8070022
:10273000084823701C226423A4F11C0103B0BDE8E7
:10274000F04000F0D1BD00BF18630120000002205E
:102750004461012060600120E098000800990008B1
:10276000A899000820990008409900086499000879
:1027700088990008C098000800B90248024B186008
:10278000704700BFEFBEADDE00000020074A0848DA
:102790001168084B00FB013300EE103ABBEEE00A73
:1027A000F7EE007A30EE670A1360704700000020F1
:1027B0000D6619005FF36E3C10B5104B104A1B6894
:1027C000127882B004464FF47A70B0FBF2F0B3FB9B
:1027D000F0F000F0A9F808B90F2C02D9012002B0DE
:1027E00010BD0246019021464FF0FF3000F05CF82A
:1027F000044B01981C6002B010BD00BF0C0000200B
:10280000040000200800002008B50B4B1A6842F4B1
:1028100000721A601A6842F480621A601A6842F400
:1028200080721A60032000F02DF80F20FFF7C4FF1C
:1028300002F016FE002008BD003C0240034A044B93
:1028400011681B780B441360704700BFC4610120FE
:1028500004000020014B1868704700BFC4610120CC
:1028600038B50446FFF7F6FF631C054602D0044B5B
:102870001B781C44FFF7EEFF401BA042FAD338BD83
:10288000040000200749CA6803024FF6FF0003F462
:10289000E0630240134343F0BF6343F40033CB6073
:1028A000704700BF00ED00E000B5164BDB68C3F3D6
:1028B0000223A3F1030CBCF1040F19D84FF0FF3E23
:1028C000C3F107030EFA03F30EFA0CFE22EA0E021E
:1028D000DB43194001FA0CF1114300284FEA0111C2
:1028E0000ADB00F1604000F5614080F8001300BD94
:1028F00000220F239446ECE7034B00F00F00C318AF
:10290000197600BD00ED00E0FCEC00E0002807DBDC
:10291000044A4109012300F01F00834042F821309E
:10292000704700BF00E100E00138B0F1807F01D3C3
:10293000012070474FF0E0230022586104484FF017
:10294000F00C072180F823C09A6110461961704786
:1029500000ED00E0002800F06F8170B50368DD072E
:1029600082B0044631D59E498A6802F00C02042ADE
:1029700000F0F2808A6802F00C02082A00F0E88079
:102980006368B3F5803F00F0F180B3F5A02F944B5E
:102990001A6800F07E8122F480321A601A6822F4EC
:1029A00080221A606368002B00F00881FFF752FF55
:1029B000054605E0FFF74EFF401B642800F2FB8050
:1029C000874B1B689B03F5D52368990729D5844B52
:1029D0009A6812F00C0F00F094809A6802F00C02D2
:1029E000082A00F08A80E368002B00F00E817D4BFE
:1029F00001221A60FFF72EFF054605E0FFF72AFFC8
:102A0000401B022800F2D780754B1B689E07F5D546
:102A1000734922690B6823F0F80343EAC2030B6091
:102A200023681A0754D45D0732D56D4A136C13F02E
:102A3000805300F0818000266B4B1B68D80540F165
:102A4000A880A368012B00F0F180052B644B1A6F5E
:102A500000F02D8122F001021A671A6F22F00402A1
:102A60001A67A368002B00F0B780FFF7F3FE054656
:102A700007E0FFF7EFFE41F28833401B984200F277
:102A80009A80574B1B6F9A07F3D5002E40F00981AF
:102A9000A369D3B1524A926802F00C02082A00F0EE
:102AA000CD80022B4F4B4FF000021A6600F00781D9
:102AB000FFF7D0FE044604E0FFF7CCFE001B02281F
:102AC00079D8474B1B689B01F6D4002002B070BD3B
:102AD000636903B3434B0122C3F8802EFFF7BAFEAC
:102AE000054604E0FFF7B6FE401B022863D83C4BC6
:102AF0005B6F9B07F6D5236895E75B685A023FF545
:102B000072AF374B1B689B0736D5E368012B33D078
:102B1000012002B070BD334AC2F8803EFFF79AFE32
:102B2000054604E0FFF796FE401B022843D82C4BD5
:102B30005B6F9E07F6D4DEE70193136C43F080537E
:102B40001364136C03F080530193019B012673E718
:102B50004A6851027FF514AF214A126892037FF54B
:102B600034AF6268002A7FF430AFD1E71C4A1368A3
:102B700043F48033136015E7194A2169136823F081
:102B8000F80343EAC103136023681A077FF54BAFCC
:102B90009EE7154A136843F480731360FFF75AFEEB
:102BA0000546114B1B68D9053FF54BAFFFF752FEA9
:102BB000401B0228F5D9032002B070BDFFF74AFE82
:102BC000054604E0FFF746FE401B6428F3D8044B9B
:102BD0001B689E03F6D4F7E6FFF73CFE05460CE0C3
:102BE000003802400000474200700040FFF732FE0C
:102BF00041F28833401B9842DDD8494B1B6F9B073D
:102C0000F4D4002E3FF444AF4BE0464A1360FFF784
:102C100021FE054604E0FFF71DFE401B0228CAD82E
:102C20003F4B1B689907F6D42368FAE63C4A136FBA
:102C300043F00103136714E701207047012B3FF4B1
:102C400067AF374BE2695B6803F4800191427FF420
:102C50005FAF226A03F03F0191427FF459AF616A8E
:102C600047F6C0721A40B2EB811F7FF451AFA26ADF
:102C7000520803F44031013AB1EB024F7FF448AF00
:102C8000E26A03F07063B3EB026F14BF012000200F
:102C90001CE742F480221A601A6842F480321A60FB
:102CA00080E61F4A136C23F080531364F0E642F071
:102CB00004021A671A6F42F001021A67D1E6FFF7A1
:102CC000C9FD054605E0FFF7C5FD401B02283FF69C
:102CD00072AF134B1B689901F5D4D4E90731626ACE
:102CE0000B4343EA8213D4E90A2052080D490C4CE5
:102CF00043EA0063013A0A4843EA0243012243607F
:102D00000A66FFF7A7FD054605E0FFF7A3FD401B98
:102D100002283FF650AF23689A01F6D5D5E600BFEA
:102D2000003802400000474208B516498B6803F09E
:102D30000C03042B1BD0082B01D0134808BD4A6894
:102D40004B68496813F4800302F03F0211D10E482A
:102D5000C1F38811A1FB0001FDF706FF094B5B6879
:102D6000C3F3014301335B00B0FBF3F008BD074838
:102D700008BD0648C1F388110023A1FB0001FDF73F
:102D8000F3FEEBE7003802400024F40000127A0062
:102D900058B1494A136803F007038B4207D21170F8
:102DA000136803F007038B4201D0012070472DE91F
:102DB000F04103689A0716D55F0705D53F4A936827
:102DC00043F4E053936003681E0704D53B4A9368BD
:102DD00043F460439360394A8468936823F0F003B6
:102DE000234393600368DD078846074621D5426880
:102DF000012A59D0931E012B304B1B6851D99907DA
:102E000024D52E4CA36823F003031343A360FFF7DC
:102E100021FD41F28835064604E0FFF71BFD801BCB
:102E2000A84246D8A3687A6803F00C03B3EB820F7C
:102E3000F3D1214A136803F00703434509D982F807
:102E40000080126802F00702424502D00120BDE86E
:102E5000F0813B685A0707D5184AF968936823F44C
:102E6000E0530B4393603B681B0707D5134A39694E
:102E7000936823F4604343EAC1039360FFF754FF70
:102E80000E4A0F4C92680F49C2F303120346A25C2C
:102E90000D48D34000680B60FFF78EFC0020BDE8B2
:102EA000F0819801ADD4D1E7044B1B689C03A8D4F2
:102EB000CCE70320CBE700BF003C024000380240D3
:102EC000E89900080C00002008000020044B054988
:102ED0009B68054A0868C3F38223D35CD8407047D7
:102EE000003802400C000020E0990008044B05491E
:102EF0009B68054A0868C3F34233D35CD8407047E7
:102F0000003802400C000020E09900082DE9F04F45
:102F10000023DFF808E283B001264FF0030803E046
:102F20000133102B00F0CC800C6806FA03F202EAA1
:102F3000040CA243F4D14A6802F0030202F1FF3903
:102F40005C00B9F1010F08FA04F515D8826822EA8D
:102F50000509CA68A24042EA090282604A68D0F8BC
:102F60000490C2F300129A4029EA0C0942EA0902CD
:102F700042604A6802F00302032A25D0C26822EAAE
:102F800005098A68A24042EA0902C2604A6802F062
:102F90000302022A18D14FEAD30A00EB8A0A0A690F
:102FA000DAF820B003F007094FEA89090F2702FA7F
:102FB00009F207FA09F92BEA090B42EA0B02CAF8EF
:102FC00020204A6802F00302A240046824EA0504B3
:102FD000224302604A6812F4403FA1D04C4C0022C8
:102FE0000192626C42F480426264626C02F480423C
:102FF0000192019A23F0030202F1804203F00305DB
:103000000F2702F59C32AD0007FA05F9414F94688D
:10301000B84224EA090421D007F58067B84252D0AB
:103020003D4FB84255D0DFF8F890484557D0DFF80B
:10303000F490484559D0DFF8F09048455BD0DFF870
:10304000EC9048455DD0DFF8E89048450CBF4FF064
:1030500007094FF0080909FA05F52C4394604C68FC
:10306000DEF80820E40254BF22EA0C024CEA020215
:10307000CEF808204C68DEF80C20A70254BF22EAE4
:103080000C024CEA0202CEF80C204C68DEF8042058
:10309000A50354BF22EA0C024CEA0202CEF8042037
:1030A0004C68DEF80020E40303F1010354BF22EA78
:1030B0000C024CEA0202102BCEF800207FF434AF51
:1030C00003B0BDE8F08F4FF0010909FA05F52C4374
:1030D000C4E74FF0020909FA05F52C43BEE74FF0AB
:1030E000030909FA05F52C43B8E74FF0040909FA7A
:1030F00005F52C43B2E74FF0050909FA05F52C4315
:10310000ACE74FF0060909FA05F52C43A6E700BF26
:10311000003802400000024000080240003C01402C
:10312000000C02400010024000140240001802404F
:10313000001C024002B9090481617047436901EA39
:10314000030221EA030141EA02418161704700BFA5
:10315000026802F10C0353E8003F23F490730C3231
:1031600042E800310029F3D1026802F1140353E868
:10317000003F23F00103143242E800310029F3D16B
:10318000036B012B05D02022002380F8422003632B
:103190007047026802F10C0353E8003F23F010036C
:1031A0000C3242E800310029F3D1ECE738B502686F
:1031B000C168136923F440530B431361044601684B
:1031C00083680069CA68034360690343E06922F4C5
:1031D000164222F00C0203431343CB602268A0691D
:1031E0005369244923F440730343536123688B429A
:1031F00005D0214A934202D0FFF768FE01E0FFF7B5
:1032000075FEE2691921B2F5004FD4E90053A0FB25
:10321000010113D09A009B0FFDF7A6FC174AA2FBF1
:1032200000135B09642101FB130000013230A2FB93
:1032300000201B0103EB5013AB6038BDDA184FF0D0
:1032400000035B41FDF790FC0C4AA2FB00314909E9
:10325000642303FB1103DB003233A2FB0323C3F31C
:1032600042121B0902EB011203F4F8731344AB6022
:1032700038BD00BF00100140001401401F85EB5114
:1032800078B310B590F84130044603F0FF021BB349
:103290002268242384F84130D36823F40053204665
:1032A000D360FFF783FF2268136923F4904313610F
:1032B00021684A6922F02A024A612068C268002314
:1032C000202142F40052C260636484F8411084F803
:1032D00042106363184610BD80F8402002F0DCF80D
:1032E000D6E70120704700BF2DE9F041044690F871
:1032F0004100202882B055D10D4601B11AB90120F4
:1033000002B0BDE8F08121211F460023636484F8E8
:1033100041100192FFF79EFA019AA284E284A2680A
:10332000B2F5805F06464DD04FF00008E38C9BB2AB
:103330009BB123681A68120604D4791C1DD11A683F
:103340001206FCD535B315F8012B5A60E28C013A10
:10335000E284E28C92B2002AEBD12268136858060C
:1033600004D47B1C22D113685906FCD520230020ED
:1033700084F8413002B0BDE8F081FFF76BFA801BA2
:10338000874225D327B32368DA681A681006F4D574
:10339000002DD8D1414631F8022BC2F308028846ED
:1033A0005A60D3E7022002B0BDE8F081FFF752FA7D
:1033B000831B9F420CD35FB12368DA681B685A06EF
:1033C000F4D5D3E72269002AAED1A8461546ADE769
:1033D0002023032084F8413002B0BDE8F08100BF13
:1033E000034690F84200202803D101B11AB9012008
:1033F000704702207047002018639A85DA851A69A1
:1034000099622221586483F8421022B11968CA686F
:1034100042F48072CA6019684A6942F001024A6146
:103420001A68D36843F020030020D360704700BFC0
:10343000704700BF704700BF08B5806B0023C3858D
:10344000FFF7F8FF08BD00BF704700BF90F842309B
:10345000222B4AD183680168826AB3F5805F45D028
:10346000002B4DD10369002B4AD14B681370826A3F
:103470000132C38D8262013B9BB2C385002B34D1E4
:1034800000B50168CA6822F0200283B0CA600168F2
:10349000CA6822F48072CA6001684A694FF0200C41
:1034A00022F001024A6180F842C04363026B012AA4
:1034B0002AD10363026802F10C0353E8003F23F0B2
:1034C00010030C3242E800310029F3D103681A6876
:1034D000D20605D501911A6801925B680193019BA0
:1034E000818DFFF7B1FF03B000BD70470369002B6A
:1034F000BBD14B68C3F308031380826A0232B8E77A
:103500004B6803F07F03B1E7FDF77CFF03B000BD1C
:1035100000B501680A68D1F80CE0D1F814C012F0C7
:103520000F0F85B0034617D112F0200F03D01EF005
:10353000200F40F0BF80186B012848D0100603D53B
:103540001EF0800F40F08980520603D51EF0400F18
:1035500040F0A48005B000BD1CF0010067D11EF44E
:10356000907FE8D012F0010F0FD01EF4807F00F0A2
:103570007081D3F844C012F0040F4CF0010CC3F872
:1035800044C000F0A880002856D112F0020F00F0CD
:10359000A580100700F1DC80586C0028DAD0900676
:1035A00003D51EF0200F40F059814A69596C02F092
:1035B000400201F008010A4340F09E801846019243
:1035C0000093FFF737FFDDE900325A64C2E7D00607
:1035D000B4D51EF0100FB1D0002203920A680392F6
:1035E0004A680392039A4A69B3F82CC0520640F124
:1035F000F180D86B0268526892B2002A00F03581DF
:10360000624580F03281DA85C269B2F5807F00F0D0
:10361000D78001F10C0252E8002F22F480720C31A5
:1036200041E8002019680A460028F2D19AE012F019
:10363000010F49D1500742D5586C40F00200586440
:1036400090073ED5586C40F0040058641007A3D58D
:10365000586C40F0080058649EE793F84120212AF6
:103660007FF478AF98681A6AB0F5805F00F00C813B
:10367000501C186212784A60DA8C013A92B2DA84ED
:10368000002A7FF467AF1968CA6822F08002CA6016
:103690001A68D36843F04003D3605BE7CA684FF011
:1036A000200C22F04002CA60184683F841C0FFF7A0
:1036B000BFFE4FE705B05DF804EBFFF7C7BE90070C
:1036C000C0D41007C4D467E71EF4807F7FF451AFE5
:1036D00012F0040FB0D112F0020F3ED112F0080F19
:1036E0003FF45AAF0EF0200C5CEA000CB0D15A6CDB
:1036F000002A7FF45AAF2DE718460093FFF728FD04
:10370000009B19684A6952061ED500E0196801F14C
:10371000140252E8002F22F04002143141E8002048
:103720000028F3D1DA6B7AB15D491165D86B00934B
:1037300001F080FE00283FF40DAF009BD86B036DB5
:1037400005B05DF804EB18471846FFF773FE01E774
:103750001EF0200F7FF47CAFC9E700283FF419AFBB
:1037600070E71A6802F1140151E8001F21F001010D
:10377000143242E800100028F3D1196801F1140254
:1037800052E8002F22F04002143141E800200028C6
:10379000F3D1202283F842201863196801F10C024A
:1037A00052E8002F22F010020C3141E800200028DE
:1037B000F3D1D86B009301F0EFFD009BB3F82CC060
:1037C00002225A63D98DACEB0101184689B2FFF78A
:1037D0003BFEBFE6D88DDA8D92B2002A3FF4BAAE36
:1037E000ACEB000C1FFA8CFCBCF1000F3FF4B2AE46
:1037F00001F10C0252E8002F22F490720C3141E8E2
:10380000002019680A460028F2D100E01A6802F187
:10381000140151E8000F20F001000A4642E80001BF
:103820000029F3D1202283F842201963186800F19F
:103830000C0252E8002F22F010020C3040E8002168
:103840000029F3D102225A6361461846FFF7FCFDB6
:1038500080E612F0040F7FF498AE3CE71846009320
:10386000FFF7F4FD009B19689FE662457FF472AE96
:10387000C169B1F5807F7FF46DAE022159631846AE
:103880001146FFF7E1FD65E6186900287FF4F0AE08
:103890001288C2F308024A601A6A02321A62EBE620
:1038A0003934000830B5044685B00D0C012DD4F82C
:1038B00000E002D10CE0581C17D1DEF81800C0F36C
:1038C000400C9445F7D0002005B030BD581C0CD1F9
:1038D000DEF8140021EA000C1FFA8CFCBCFA8CFC08
:1038E0004FEA5C1C6245F1D0EDE7CDE9022301917E
:1038F000FEF7B0FF089BC01A039B9842DDE9011256
:103900001AD9012D20681CD08069C043C0F3400043
:1039100080F00100C0B29042C8D10022202322636F
:1039200084F83D3084F83E20236C84F83C2043F03A
:10393000200323640120C7E7002BB7D1012D2068A5
:10394000E2D1406921EA000080B2B0FA80F040097B
:10395000E1E700BF10B5D0F800E084B00446DEF81F
:10396000140021EA000C1FFA8CF090B1DEF814006C
:10397000400510D4501C04D028E0DEF814305B055C
:1039800009D4DEF8143021EA03039BB2002BF4D1F2
:10399000184604B010BDDEF8003043F40073CEF8D2
:1039A00000302168002220236FF480604861226388
:1039B00084F83D3084F83E20236C43F004032364F4
:1039C0000023012084F83C3004B010BDCDE902236F
:1039D0000191FEF73FFF039B029AD4F800E00199A2
:1039E000C01A904201D8002AB9D1DEF8140021EAA9
:1039F000000080B20028B2D000232022236384F884
:103A00003D2084F83E30236C13432364D8E700BF85
:103A100070B5036816465A69540624D404460D4608
:103A20000DE0FEF717FF801BA842236800D81DB9E0
:103A30005A6912F0400218D05A69520613D45A69D2
:103A4000D106EED500226FF01000202158612263CC
:103A500084F83D1084F83E20236C2364002384F80E
:103A60003C30012070BD002070BD2023226384F80B
:103A70003D3084F83E20236C43F020032364EDE7BF
:103A800010B5036882B004465869000639D45869F5
:103A9000400522D4481C1AD0CDE90012FEF7DAFE08
:103AA000019A00992368801A884201D80029EBD135
:103AB000586910F08000E7D12023206384F83D305E
:103AC00084F83E00236C43F02003236413E05A691A
:103AD000120616D45A695105F9D500226FF4806098
:103AE00020215861226384F83D1084F83E20236C25
:103AF00043F0040323640023012084F83C3002B027
:103B000010BD002002B010BD2DE9F04390460268C0
:103B10009946136843F4806385B0136002680C9D76
:103B200013680D9E43F48073136002685369044662
:103B3000D8070F4604D4691C17D15369D907FCD59F
:103B400007F0FE031361424933462A462046FFF739
:103B500001FF88B1012005B0BDE8F08315B95369B4
:103B6000DB0742D55369D807EAD4FEF773FE801B02
:103B700085422268F3D3F1E72368039059690391E2
:103B80009B690393324629462046039BFFF778FF43
:103B9000002841D1B9F1010F236846D15FFA88F2BC
:103BA0001A61324629462046FFF76AFF002833D1C2
:103BB00002462068016841F4807101602B4600963E
:103BC0004FF001112046FFF76DFE226800283BD11F
:103BD00047F00103DBB21E491361204633462A46F3
:103BE00005B0BDE8F043FFF7B5BE002120232163F7
:103BF00084F83D3084F83E10236C84F83C1043F088
:103C0000200323641368DD0502D54FF40073236499
:103C1000032005B0BDE8F083236C042B9AD1226801
:103C2000136843F40073136094E74FEA18221A6193
:103C3000294632462046FFF723FF0028ECD12268B0
:103C40005FFA88F31361ACE71368DB05E0D5DCE7C6
:103C500002000100002800F0B78038B590F83D3030
:103C6000044603F0FF02002B00F09A802268242310
:103C700084F83D30136823F0010313602268136851
:103C800043F4004313602268136823F40043136075
:103C9000FFF71CF94D4B62689A423DD84C4B984255
:103CA0003DD9D4F800C04B49DCF80420A1FB003119
:103CB00022F03F0242EA9142CCF804208B0C2168AA
:103CC000DFF808C165680A6A654522F03F0208D935
:103CD000DFF808C14FF4967E0EFB03F3ACFB03C381
:103CE0009B09013313430B62D4E90021DFF8DCC0E8
:103CF000D369614523F44F4300F1FF3023F0FF0304
:103D00000FD84900B0FBF1F040F6FC7101300842D9
:103D100056D0C0F30B0014E02F4B9842C1D80120BD
:103D200038BDA568002D40D001EB810101EB810178
:103D3000B0FBF1F00130C0F30B00002842D040F49A
:103D400040400343D3612168206A0A68E36922F096
:103D5000C002034313430B602168E0688A6823694B
:103D600022F40342034322F0FF0213438B602168D5
:103D7000A069CA68636922F0FF0203431343CB6062
:103D800021680A6800234FF0200C42F001020A600B
:103D9000236484F83DC0236384F83E30184638BD60
:103DA00080F83C2001F0F4FB60E701EB4101B0FB3F
:103DB000F1F00130C0F30B0020B140F40040C0E747
:103DC0000420BEE70120BCE701207047A086010067
:103DD0007F841E0083DE1B43FF083D00D34D62102D
:103DE0002DE9F047044686B09A46BDF83C70109E17
:103DF00088469146FEF72EFD94F83D30202B04D0E6
:103E00000227384606B0BDE8F08705460090944981
:103E1000192301222046FFF745FD0028F0D194F830
:103E20003C30012BECD00123206884F83C3003683F
:103E3000DB0733D5D0F800C02CF4006CC0F800C00C
:103E40000E9860622220CDE9006584F83D00402094
:103E500084F83E00002020646785608D20858148BD
:103E6000E06253464A4641462046FFF74DFE07466C
:103E700078B9238D2268BBB1012B00F0E080022BC2
:103E800000F0CB8005905169059192690592059AE1
:103E900018E00127384606B0BDE8F087036843F014
:103EA000010303602068C5E7029353690293936995
:103EB0000293029B136843F400731360238D002B5D
:103EC00000F0A280032B49D8012B00F09080022B38
:103ED0006549009533464FF0000220466CD0FFF74D
:103EE000E1FC0028D5D121680B6823F480630B60C6
:103EF0002168636A09691970238D616A013B238512
:103F0000638D0131013B616202460095564963852C
:103F100020463346FFF7C6FC0028BAD12268136852
:103F200043F4007313602268636A12691A70616A4D
:103F3000628D4B1C6362238D013A6285013B2268CE
:103F4000238513694B70238D616A628D013B0131BA
:103F50009BB2013A616223856285B0E72A46314609
:103F60002046FFF755FD002893D12268636A126945
:103F70001A70618D238D626A0139013B61850132BE
:103F8000216862629BB223854869400797D5032B5D
:103F900005D10B6823F480630B602168626A0B69AA
:103FA0001370626A238D01326262628D013B9BB2A3
:103FB000013A2385628582E7FFF774FC00287FF4CD
:103FC00068AF2268136843F40073136023681A69AA
:103FD000636A1A70638D626A013B6385238D013BBE
:103FE0002385511C236861621B695370D9E72A46F7
:103FF00031462046FFF70CFD00287FF44AAF2368C6
:104000001A69636A1A70CCE70023202284F83D20E5
:1040100084F83C3084F83E30F3E6136823F4806380
:1040200013602268136843F40063136023680490EC
:104030005A6904929B690493049B238D3FE713689C
:1040400023F480631360236803905A6903929A698A
:104050000392039A1A6842F400721A60238D2EE7C5
:10406000020010000000FFFF04000100704700BFC5
:10407000704700BF704700BF704700BF704700BF68
:10408000704700BF704700BF90F83D20016D08B534
:10409000034659B9C26C0168012A826C1BD0C2F375
:1040A00007220A61026D0132026508BD016D012916
:1040B00009D0016D022914D003685A69120644BF61
:1040C00000221A6108BD826C0168D2B20A61026DD9
:1040D0000132026508BDD2B20A61026D0232026588
:1040E00008BDD2B2222A25D0418D89B2F1B9418DC5
:1040F00089B20029D9D1212AD7D1D0F800C0DCF863
:10410000042022F4E062CCF80420D0F800C0DCF8EF
:10411000002042F40072CCF800202022016380F8D5
:104120003D2080F83E10FFF7ADFF08BD212A0AD0E0
:104130005B8D08BD01680A6842F480720A60026DF6
:104140000132026508BD416A026809781161416A5D
:10415000428D0131013A4162428508BD704700BF7E
:10416000704700BF704700BF00B5364B364A1B682A
:10417000806BDB08A2FB032383B01B0A002203EB46
:1041800083030192C3EBC30390F83D10019306E053
:10419000019B0268013B019313689B0506D5019BB7
:1041A000002BF5D1036C43F020030364436B0BB188
:1041B0000022DA63836B0BB10022DA6302681368B2
:1041C00023F480631360436B4FF0000CA0F82AC007
:1041D0000BB1C3F850C0836B0BB100221A650268A3
:1041E000136823F00103136090F83D30602B1ED05C
:1041F00001F02803282B09D02022002380F83D203D
:1042000080F83E30FFF7ACFF03B000BD01680A68DC
:1042100042F001020A6001680A684FF0000C42F4A3
:1042200080620A60C0F830C080F83D30EAE70023C1
:10423000202280F83D2080F83E300364FFF792FF93
:1042400003B000BD0C00002089B5F81410B590F83B
:104250003D2090F83E30102B0446D2B239D0D9B26E
:10426000402936D002F02801282923683DD059681A
:10427000080507D4602A05D02021002284F83D10CB
:1042800084F83E20002222635A6812F4006234D17E
:1042900094F83D10602977D05A69500605D5626AB6
:1042A0001B691370636A013363622046FFF758FF8E
:1042B000236C190704D02268536823F4E063536029
:1042C00094F83D30226C5207DBB201D5282B30D058
:1042D00010BD222AC6D12268136823F4006313603C
:1042E00023685A681205C7D5CCE70022226384F8F8
:1042F0003D105A6812F40062CAD05A6822F4006273
:104300005A60636B93F83520012A1FD0294A1A6539
:10431000606B01F08FF80028CAD02268136823F080
:1043200001031360606B202184F83D10036D9847F2
:10433000BEE700232049E16220222363204684F85F
:104340003D2084F83E30FFF79BFE10BDA36B194A59
:104350001A65A06B01F06EF80028A9D023685A698D
:10436000510606D5626A1B691370626A23680132BE
:1043700062621A6822F001021A60A06B202184F8A0
:104380003D10036D984793E7202184F83D10226487
:104390005A69520606D5626A1B691370626A2368FD
:1043A000013262621A6822F0010220461A60FFF7A9
:1043B000D9FE7DE7694100080000FFFF30B50268C3
:1043C0005468D0F82CE090F83E10034690F83D0079
:1043D000102991B0C0B25FFA81FC26D0BCF1400F29
:1043E00023D0196C002900F0DD8051694FF0000CDA
:1043F00011F0020E00F09A80A50540F19980196C29
:1044000009B1D2F818C093F83D1001F0280128290D
:1044100000F0378200210E9150690E9092690E9241
:104420000E9A83F83C1011B030BD91690D46516968
:1044300011F0010F1CD1BEF52A0FF4D0BEF12A4FA6
:10444000F1D011F0080E3AD014F4007F3BD0596C33
:10445000C9B211615A6B002A00F00082D26B002AA7
:1044600000F0FC811A68536843F400635360DAE794
:1044700014F4007F27D0D96AB1F52A0F00F0FE812D
:10448000D96AB1F12A4F04BF0821D96293F83E10CE
:10449000402900F0EC811969B1F5804F00F00782E6
:1044A000196D002900F06981196D0129BBD15B6C80
:1044B000DB1103F0060343F0F1031361B3E711F0DE
:1044C000020F40F043816D0770D5D2F804E01EF46E
:1044D000006FA8D101F0040E090640F15681650570
:1044E00040F15381BEF1000F40F0538193F83D102D
:1044F0001C8D93F83E00D3F82CC0C9B2C0B2002C7A
:1045000040F0A582212900F0B68340288BD12229D2
:1045100089D1598D89B2002971D093F83E10402974
:1045200000F04181596A097811615BE1CD066BD4D5
:1045300000F0F70CBCF1210F01F0040000F0C28084
:10454000490640F1F780650540F1F480002840F00D
:10455000F48093F83D00598D89B2C0B200293FF430
:1045600062AF596A12690A705A8D596A013A5A85BE
:104570005A8D013192B25962002A7FF454AF2A2831
:104580007FF451AF19684A684FF0220C282422F4B6
:1045900080624A601846C3F830C083F83D40FFF798
:1045A0006BFD40E7D2F818C0516921E7506800055B
:1045B0003FF539AF01F00400490640F1FA80650586
:1045C00040F1F780002840F0F78093F83D10222951
:1045D0007FF429AFDC6A598D89B2032940F20E833A
:1045E000596A12690A705A8D596A013A5A855A8D68
:1045F00092B20131032A59627FF415AF1A685368E9
:1046000023F4806353600EE7A50591D593F83D40F0
:10461000516821F4E06151601A68CDF83CE05169BD
:104620000F91116841F00101116019680F9A0A6831
:1046300022F480620A601A6851680905E4B200F148
:10464000D8805A8D92B202B31A6851694D0709D5C4
:10465000596A12690A705A6A598D501C01391A68D0
:10466000586259855169480608D5596A12690A7015
:10467000596A5A8D0131013A59625A855A8D92B25E
:104680001AB11A6C42F004021A641A6C002A40F043
:10469000DF802A2C00F06B8193F83D20282A00F05F
:1046A00059811A6B222A02D0222C7FF4BCAE002240
:1046B00020211A63184683F83D1083F83E20FFF747
:1046C000DBFCB0E6090629D5650527D548BB93F87C
:1046D0003D00598D89B2C0B200293FF4A4AE596A99
:1046E000097811615A8D596A013A5A855A8D0131FA
:1046F00092B25962002A7FF496AE29287FF493AED5
:1047000019684A68282422F480624A601846C3F86F
:1047100030C083F83D40FFF7ADFC84E600283FF44D
:1047200082AEA0057FF57FAE598D89B200293FF496
:104730007AAEF7E600283FF476AEA1057FF573AEBA
:10474000598D89B200293FF46EAE48E014F4007F21
:104750003FF4B9AE93F83E10DC6AD3F830C093F85A
:104760003D002228C9B200F0D980CDF830E053696D
:104770000C9393690C930C9B55E65B6CDB1103F077
:10478000060343F0F00313614DE6BEF1000F3FF462
:104790004AAEA4057FF547AE212800F02D81BCF17B
:1047A000400F7FF440AE184611B0BDE83040FFF72F
:1047B0006BBC00283FF437AEA1057FF534AED86A54
:1047C000598D89B2042900F00E81598D89B20329CF
:1047D00000F05681598D89B2022900F08681596A0C
:1047E00012690A70596A5A8D0131013A59625A8523
:1047F00019E604F0F70122296AD0596B0968496863
:104800005985598D89B219B1196C41F004011964A7
:104810005168019321F400615160586B00F01CFE57
:104820000128019B0BD05A6B92491165586B00F01F
:1048300001FE019B18B1586B026D9047019B5A8D88
:1048400092B2002A7FF400AF1A6C002A3FF424AF22
:10485000184611B0BDE83040FFF7F8BC9A6B002A4B
:104860003FF4E1ADD26B002A7FF4FCADDBE5196DBE
:104870005B6C41BB03F0FE031361D4E50121D962F7
:1048800004E6506820F4806050601CF0800F0CBF7C
:10489000DA689A69CCF38001002081F0010183F885
:1048A0003C00C9B292B21846FFF7E8FBBBE593F8AB
:1048B0003D102129596C16BF41F0010101F0FE01A4
:1048C000C9B21161C6E543F00103DBB21361AAE589
:1048D000996B096849685985598D89B219B1196C64
:1048E00041F0040119645168019321F400615160A1
:1048F000986B00F0B1FD0128019B3FF4A2AE9A6BCA
:104900005C491165986B00F095FD019B00283FF410
:1049100098AE986B026D9047019B92E6186D10B9A6
:10492000402900F08D80196D21B91869B0F5404F0C
:1049300000F09180598D89B259BB0591516905915B
:10494000916905910599116841F400711160002287
:104950001A6568E500224848D86220211A63184683
:1049600083F83D1083F83E20FFF78AFB5BE52821A2
:104970001A63184683F83D100193FFF77DFB019BF6
:1049800093F83D20282AE5D01A6B222A7FF44BADFC
:104990008DE6598D89B2012900F08480598D89B244
:1049A000022900F0ED80116841F4806111601A68FD
:1049B000516808050FD5202C00F2E481072C40F245
:1049C000DD812E49083CE140C90704D5516841F416
:1049D000805151601A6800210B9151690B919269C5
:1049E0000B920B9AB3E7516821F48061516019680A
:1049F0005A6A09691170F5E6D86A93F83D102129C1
:104A00007FF411AD598D89B200297FF48BAD082850
:104A100000F0DB80202800F0D88010F5803F00F007
:104A2000D480506820F4E0605060112420221C6380
:104A3000184683F83E1083F83D20FFF717FBF2E499
:104A400003905369039393690393039BEBE4212938
:104A50007FF45BAD5DE50491516904919169049126
:104A60000499116841F4807111601A6D01321A6560
:104A7000D9E400BF694100080000FFFF0101000107
:104A80005168042821F48061516006D0022804D0C6
:104A900019680A6822F480620A6019685A6A09690A
:104AA00011709FE614F5803F00F02581082C00F07E
:104AB000FB80202C00F0F880BCF1120F00F07C810C
:104AC000102C00F27C8197492141CC0700F17781BD
:104AD000116841F4806111601A68002108915169E0
:104AE000089192690892089A31E7411E0F2909D866
:104AF000DFE801F0413C083C0808080808080808FD
:104B000008080841116841F40071116019685A6A77
:104B1000096911705A8D596A013A5A854C1C1A68F4
:104B20005C6212694A70598D5A6A1C6801320139F7
:104B300059855A626268202122F44072626083F8CB
:104B40003D1093F83E20402A4FF0000283F83E20AB
:104B500000F01D81082800F00E81202800F00B8154
:104B600012221A631846FFF783FA5CE4116841F4D5
:104B700080611160CAE7116821F480611160C5E7A6
:104B8000102C00F2A2806849E140C80740F19D80E6
:104B9000116841F4806111601A6851680D050CD5E7
:104BA000072C40F205816149083CE140CC0704D55F
:104BB000516841F4805151601A6800210A9151698D
:104BC0000A9192690A920A9AC1E6506820F4E0605C
:104BD000506018680268002142F4007220240260CC
:104BE000196383F83D4093F83E2083F83E10402A35
:104BF00018467FF422AFFFF745FA14E4D3F82CC02F
:104C0000BCF1020F3FF4FBAC01293FF6F8AC484978
:104C10000D90096846F2A810B1FBF0F101EB81019B
:104C20000D9104E0116811F4007100F083800D997A
:104C300001390D91DDF834C0BCF1000FF2D1196CCF
:104C400041F020011964516821F4E0615160196854
:104C50005A6A09691170598D5A6A01390132202046
:104C600059855A6283F83D00184683F83EC0FFF725
:104C700077FAFFF7D8BBBCF1080FA6D0BCF1200F24
:104C8000A3D01CF5803FA0D0516821F4E0615160B1
:104C9000112420221C63184683F83EE083F83D204F
:104CA000FFF7E4F9FFF7BFBB116821F480611160E1
:104CB0001A6800200990516909919169099109992F
:104CC000116841F40071116041E6116821F48061BE
:104CD000116019680A6842F400620A601A68516833
:104CE00009057FF56AAF202C7FF65AAF14F5803F97
:104CF0007FF463AF5CE7116821F4806111601A688A
:104D0000516811F4006148D0116821F4806111608C
:104D10001A68002006905169069192690692069AD7
:104D200015E600BFEBFFFEFF1400010001010001CA
:104D30000C000020106820F4806010601868426841
:104D400022F4E062426018685A6A006910705A8D55
:104D50002020013A5A8583F83D005A6A93F83E00B4
:104D600083F83E10013240285A622DD0082C02D020
:104D7000202C7FF4F5AE00221A63F3E6012C7FF4B9
:104D80002AAE23E614F5803F7FF425AE1EE61846D2
:104D90001A63FFF7E3F9FFF746BB079151690791E3
:104DA000916907910799116841F400711160CEE58E
:104DB000012C7FF402AFFBE6012C7FF475AF116884
:104DC00021F48061116087E618461963FFF7C6F980
:104DD000FFF729BBF0B501684B69D1F804E090F802
:104DE0003E2013F480745FFA82FC85B003F40072F5
:104DF00010D01EF4807F03F480660FD06FF4807EA5
:104E0000C1F814E0002A45D1002E00F08F8001681F
:104E1000012218E022B11EF4807F0AD105B0F0BD56
:104E20005D0533D41B05F9D51EF4807FF6D008222A
:104E30004CE06FF4007E03F4806625460222C1F840
:104E400014E086B30168B0F82AE01FFA8EF590F8F6
:104E50003DE0046BBCF1200F5FFA8EF63AD06FF4A0
:104E6000806EBCF1100FC1F814E042F0040E20D0A7
:104E7000BCF1400F1DD01C055DD47246036C1A4373
:104E8000026405B0BDE8F040FFF7E0B91EF4807F92
:104E9000C4D0D8E701686FF4007E03220125C1F871
:104EA00014E0002ECED11E05E8D5016845F00A02B7
:104EB0000CE0D0F800C0DCF8001041F40071CCF830
:104EC00000101905D9D5016842F00C026FF4006397
:104ED0004B61D3E71DBB06F0F70CBCF1210F03D0EB
:104EE000282E1CD1212C1AD190F83DC0D0F82CE0EE
:104EF000BEF1080F5FFA8CFC59D0BEF1200F56D0DE
:104F0000BCF1210F03F400631BD06FF4806CC1F877
:104F100014C0002B47D0016842F00802D6E76FF4B6
:104F2000806CC1F814C042F0040EA4E71A0506D53F
:104F300001680922CAE701684EF00802C6E70122AB
:104F40009CE7DFF8CCE0C0F82CE0C0F830C04FF0B0
:104F5000000E4FF0200C80F83DC080F83EE0D1F804
:104F600004C001902CF4E06CC1F804C004686FF434
:104F700080616161D0F800C0DCF8001021F480612C
:104F8000CCF800100168D1F814C01CF0800F18BFD5
:104F9000C1F810E0CDE90223FFF76CF8039BDDE9CF
:104FA0000102002BB7D1002A7FF468AF36E7BCF1CD
:104FB000280FA5D1DFF858C0C0F82CC0D1F804C024
:104FC00001902CF4E06CC1F804C0CDE90223036821
:104FD0006FF480615961D0F800C0DCF8001021F452
:104FE0008061CCF8001000214FF0200C016380F8A4
:104FF0003DC080F83E10FFF743F8039B13F4006FA9
:10500000DDE9010287D1002A7FF438AF06E700BF4F
:105010000000FFFF90F83D30012B2CD10368174AA8
:105020000221934280F83D101AD0B3F1804F17D07F
:10503000A2F57C42934213D002F5806293420FD0D6
:1050400002F5806293420BD002F57842934207D07A
:1050500002F57052934203D0A2F59432934204D1E8
:105060009A6802F00702062A03D01A6842F0010289
:105070001A60002070470120704700BF0000014007
:1050800090F83D30012B30D102681949022380F895
:105090003D30D36843F00103D36003688B4219D0DD
:1050A000B3F1804F16D0134A934213D002F58062B9
:1050B00093420FD002F5806293420BD002F5784202
:1050C000934207D002F57052934203D0A2F5943276
:1050D000934204D19A6802F00702062A03D01A68A4
:1050E00042F001021A60002070470120704700BFA3
:1050F0000000014000040040704700BF704700BF3F
:10510000704700BF704700BF70B50368DE681C6958
:10511000A107054601D5B20754D4610701D572072E
:105120003CD4230701D5300725D4E20601D5F30688
:1051300010D4E00701D5F1075BD4220601D5330670
:105140005FD4600601D5710663D4A20601D5B3060B
:1051500046D470BD2B686FF010021A612B680822CC
:105160002A77DB6913F4407F284666D0FFF7C6FF35
:1051700000232B77DDE72B686FF008021A612B689C
:1051800004222A77DB699907284653D1FFF7B4FF39
:105190002846FFF7B5FF00232B77C6E72B686FF093
:1051A00004021A612B6802222A779B6913F4407F5C
:1051B00028463CD1FFF7A0FF2846FFF7A1FF0023B8
:1051C0002B77AEE76FF002021A61012303770368C1
:1051D0009B699B0725D0FFF791FF00232B779CE766
:1051E0002B686FF020021A612846BDE8704000F07D
:1051F000CFB82B686FF001021A612846FCF7F4F86B
:105200009BE72B686FF080021A61284600F0C2F815
:1052100097E72B686FF040021A612846FFF772FF8C
:1052200093E7FFF769FF2846FFF76AFFD5E7FFF727
:1052300065FFC4E7FFF762FFADE7FFF75DFF2846B4
:10524000FFF75EFF94E700BF10B5DFF8D4C04A69EE
:105250000368D1F808E0604532D0B0F1804F2FD01C
:10526000DFF8C0C060454BD00CF5806C604547D07E
:10527000DFF8B4C0604543D0DFF8B0C060453FD030
:10528000DFF8ACC060453FD00CF5806C60453BD08A
:105290000CF5806C604537D0ACF5983C604533D058
:1052A0000CF5806C60452FD00CF5806C60452BD0E0
:1052B000C0F82CE00968816223F080031A4317E0EC
:1052C0004C68D1F80CC0C0F82CE023F070032343E5
:1052D00023F4407343EA0C03DFF844C00C68846293
:1052E00023F08003604542EA030201D10B690363A6
:1052F0000368012143F0040303604161026010BDB3
:105300004C6823F070032343D1F80CC0C0F82CE0A4
:1053100023F4407343EA0C03DFF810C0DEE700BF5C
:105320000000014000040040000C00400004014067
:105330000040014050B310B590F83D30044603F0F2
:10534000FF02F3B12146022384F83D3051F8040BEB
:10535000FFF77AFF012384F8463084F83E3084F862
:105360003F3084F8403084F8413084F8423084F88B
:10537000433084F8443084F8453084F83D300020D0
:1053800010BD80F83C2000F057F9DBE701207047A2
:10539000704700BF704700BF70B50446836D1E465E
:1053A000FDF758FA94F83530022B06D08023636558
:1053B000002384F83430012070BD2268136823F084
:1053C000160313602268536923F080035361236C32
:1053D000054653B32268136823F00803136022685C
:1053E000136823F00103136004E0FDF733FA401B58
:1053F000052810D823681B6813F00103F5D1E16D6F
:105400003F228A40184601210023B26084F83510FB
:1054100084F8343070BD032320226265184684F876
:105420003530002384F8343070BDA36C002BD1D10B
:10543000D5E700BF90F83530022B03D080234365B9
:10544000012070470268052380F83530136823F087
:10545000010300201360704790F83500704700BFCB
:1054600082B00C4B002100915A6C42F480425A6485
:105470005A6C02F480420092009A01911A6C42F038
:1054800080521A641B6C03F080530193019B02B09D
:10549000704700BF0038024000B5394903688BB03F
:1054A00000228B42CDE90422CDE90622089204D0E5
:1054B00034498B422ED00BB000BD334B0092186C98
:1054C00040F400301864186C00F40030009000982C
:1054D0000192186B40F0010018631B6B2B489FED85
:1054E000247B03F001034FF0030C019304A907236D
:1054F0008DED047BCDE907C3DDF804E0FDF706FD83
:10550000002202212620FDF7CFF92620FDF7FEF923
:105510000BB000BD1C4B0292586C40F01000586458
:10552000586C00F01000029002980392186B40F043
:10553000010018631B6B15489FED0F7B03F00103FF
:105540004FF0030C039304A907238DED047BCDE9F1
:1055500007C3DDF80CE0FDF7D9FC0022022125206D
:10556000FDF7A2F92520FDF7D1F90BB000BD00BF72
:105570000C00000002000000000600000200000015
:10558000004400400010014000380240000002408A
:1055900000B5274B016889B000229942CDE902226B
:1055A000CDE90422069201D009B000BD03F5F23323
:1055B0000092186C40F400101864186C00F400108D
:1055C000009000980192186B9FED157B40F002004F
:1055D00018631B6B17488DED027B9FED137B03F067
:1055E0000203019302A904238DED047BDDF804C0BE
:1055F0000693FDF78BFC002201211F20FDF754F9D3
:105600001F20FDF783F9002201212020FDF74CF92E
:105610002020FDF77BF909B000BD00BFAFF300808B
:105620000003000012000000010000000300000061
:10563000005400400004024000B50368B3F1804FFD
:1056400083B004D0144A934210D003B000BD03F5D8
:105650000E33002200921A6C42F001021A641B6C95
:1056600003F001030093009B03B000BD0B4B00222D
:105670000192196C41F0020119641B6C03F00203E2
:10568000019301211D20019BFDF70EF91D2003B0A0
:105690005DF804EBFDF73AB9000400400038024021
:1056A000FEE700BFFEE700BFFEE700BFFEE700BF6A
:1056B000FEE700BF704700BF704700BF704700BFE4
:1056C000FDF7BCB80148FFF71FBD00BFCC5F01204C
:1056D0000148FDF71DBF00BFA86001200148FDF78C
:1056E00017BF00BF606001200148FEF767BE00BF22
:1056F000F06001200148FFF76DBB00BFF0600120A2
:10570000034AD2F8883043F47003C2F888307047F7
:1057100000ED00E0DFF834D0FFF7F2FF0C480D4950
:105720000D4A002302E0D458C4500433C4188C42FC
:10573000F9D30A4A0A4C002301E013600432A24262
:10574000FBD301F047FAFBF795FA704700000220FF
:1057500000000020D8010020CC9D0008D8010020C6
:1057600018630120FEE7000000F0A8B808B52DED91
:10577000028BF0EE408A00F043F9B0EE408AB0EEC2
:10578000680A00F087F868B1DFED127AF4EEE78A74
:10579000F1EE10FA0BDCDFED107AF4EEE78AF1EEB1
:1057A00010FA0FD4B0EE480ABDEC028B08BD9FED95
:1057B0000B8A01F009FAB0EE480ABDEC028B2223F5
:1057C000036008BD01F000FA22239FED058A036003
:1057D000E8E700BF1772B142B5F1CFC20000807F89
:1057E0000000000008B52DED028BB0EE408A00F0FD
:1057F000FBF9B4EE488AF1EE10FA0FD6B5EEC08A86
:10580000F1EE10FA0ADCB5EE408AF1EE10FA08D19A
:1058100001F0DAF922239FED090A0360BDEC028B47
:1058200008BD01F0D1F9BDEC028B034621221A60BC
:105830000348BDE8084000F037B800BF000080FF13
:10584000F493000800B52DED028BB0EE408A83B0D2
:1058500000F030F8B4EE488AF1EE10FA06D6DFED2B
:105860000C7AB4EEE78AF1EE10FA03D403B0BDEC83
:10587000028B00BDCDED017A01F0A6F9DDED017AD4
:1058800087EEA70A2123036003B0BDEC028B00BDA5
:105890000000000010EE103A23F00040B0F1FF4F7E
:1058A0002CBF0020012070479FED010A704700BF08
:1058B0000000C07FB1EEC00A704700BF10EE903A02
:1058C00023F00041B1F1FF4FF0EE407A33D810EEF3
:1058D00010CA2CF00040B0F1FF4F2CD8B3F17E5F1E
:1058E0003DD09A1702F0020242EADC7230B371B383
:1058F000B1F1FF4F3ED0B0F1FF4F35D000B5401AA7
:10590000B0F1F45F83B04FEAE0512ADA002B3EDABF
:105910003C313CDA9FED310A012A41D0022A46D0BF
:105920003AB19FED2F7ADFED2F7A30EE070A30EE95
:10593000670A03B000BD30EEA70A7047022A0BD0F9
:105940009FED297A032A08BFB0EE470A70478C45BD
:105950000DDB9FED260A70479FED220A704700F08D
:105960003DBA9FED220AD7E7BCF1000FF1DA9FEDB7
:10597000200A7047B0F1FF4F02F1FF3220D0022A17
:1059800026D81C4B03EB820393ED000A704787EE89
:10599000A00A019200F0FEFA00F020FA019ABBE79B
:1059A00010EE103A03F1004300EE103AC1E79FED0C
:1059B0000C7ADFED0C7A30EE070A37EEC00AB8E752
:1059C000022A08D80C4B03EB820393ED000A7047C0
:1059D0009FED020A70479FED090A70470000000022
:1059E0002EBDBB33DB0F4940DB0F49C0DB0FC93F86
:1059F000DB0FC9BFF8990008049A0008DB0F493F84
:105A000010EE103A23F00042B2F1FF4F56D84FEAA1
:105A1000D37100F095806248834200F38780002BA9
:105A2000C0F287805F4B9A424BD95F4B9A4200F29B
:105A30009A805E4B5E4A03EB8103D3ED004A02EB92
:105A4000810281F0010370EE644AD2ED007A5B1AA4
:105A500034EEE70ADFED576A9FED575ADFED575AEC
:105A60009FED576A20EE007AA7EE265ADFED556AC1
:105A7000E5EE075AE5EE876AA6EE876AF0EE406A21
:105A8000E6EE476A20EE266A002B42D0B0EE007A9E
:105A900037EE667AB7EE000AC6EE076A13F17D0F9D
:105AA00077EEE67A77EEE47A30EE670A4FDB10EEB7
:105AB000102A02EBC35300EE103A704730EE000A92
:105AC0007047B2F1505F0AD2DFED3F7A70EE277A6D
:105AD000B7EE007AF4EEC77AF1EE10FA5DDC60EE14
