:020000040800F2
:1000000000000220999D0008E59C0008E99C00087A
:10001000FD9C0008119D0008259D000800000000BF
:10002000000000000000000000000000399D0008F2
:100030003D9D000800000000419D0008459D00080E
:10004000E99D0008E99D0008E99D0008E99D000878
:10005000E99D0008E99D0008E99D0008E99D000868
:10006000E99D0008E99D0008E99D0008E99D000858
:10007000E99D0008E99D0008E99D0008E99D000848
:10008000E99D0008E99D0008E99D0008E99D000838
:10009000E99D0008E99D0008E99D0008E99D000828
:1000A000E99D0008E99D0008E99D0008E99D000818
:1000B000E99D0008499D0008E99D00086D9D000824
:1000C000799D0008E99D0008E99D0008E99D000868
:1000D000E99D0008559D0008619D0008E99D000804
:1000E000E99D0008E99D0008E99D0008E99D0008D8
:1000F000E99D0008E99D0008E99D0008E99D0008C8
:10010000E99D0008E99D0008E99D0008E99D0008B7
:10011000E99D0008E99D0008E99D0008E99D0008A7
:10012000E99D0008E99D0008E99D0008E99D000897
:10013000E99D00080000000000000000E99D0008A3
:10014000E99D0008E99D0008E99D0008E99D000877
:10015000E99D0008E99D0008E99D0008E99D000867
:10016000E99D0008E99D0008E99D0008E99D000857
:10017000E99D0008E99D0008000000000000000063
:08018000E99D0008E99D00085B
:1001900001F0FF01102A2BDB10F0070F08D010F838
:1001A000013B013A8B422DD010F0070F42B3F6D13C
:1001B000F0B441EA012141EA014122F007047FF055
:1001C00000070023F0E80256083C85EA010586EAAC
:1001D000010685FA47F5A3FA87F586FA47F6A5FAE8
:1001E00087F68EB9EED1F0BC01F0FF0102F00702F4
:1001F00032B110F8013B013A83EA010313B1F8D19F
:100200000020704701387047002D06BF354603387F
:10021000073815F0010F07D1013015F4807F02BFB8
:10022000013015F4C03F0130F0BC0138704700BF09
:10023000034613F8012B002AFBD1181A0138704726
:1002400081F0004102E000BF83F0004330B54FEA87
:1002500041044FEA430594EA050F08BF90EA020FF4
:100260001FBF54EA000C55EA020C7FEA645C7FEA87
:10027000655C00F0E2804FEA5454D4EB5555B8BFAA
:100280006D420CDD2C4480EA020281EA030382EA1B
:10029000000083EA010180EA020281EA0303362DAD
:1002A00088BF30BD11F0004F4FEA01314FF4801C80
:1002B0004CEA113102D0404261EB410113F0004F92
:1002C0004FEA03334CEA133302D0524263EB430349
:1002D00094EA050F00F0A780A4F10104D5F1200EE7
:1002E0000DDB02FA0EFC22FA05F2801841F1000142
:1002F00003FA0EF2801843FA05F359410EE0A5F116
:1003000020050EF1200E012A03FA0EFC28BF4CF046
:10031000020C43FA05F3C01851EBE37101F00045FC
:1003200007D54FF0000EDCF1000C7EEB00006EEB09
:100330000101B1F5801F1BD3B1F5001F0CD3490893
:100340005FEA30004FEA3C0C04F101044FEA4452EA
:1003500012F5800F80F09A80BCF1004F08BF5FEA71
:10036000500C50F1000041EB045141EA050130BD51
:100370005FEA4C0C404141EB0101013C28BFB1F563
:10038000801FE9D291F0000F04BF01460020B1FAAE
:1003900081F308BF2033A3F10B03B3F120020CDA81
:1003A0000C3208DD02F1140CC2F10C0201FA0CF05F
:1003B00021FA02F10CE002F11402D8BFC2F1200CC4
:1003C00001FA02F120FA0CFCDCBF41EA0C0190407A
:1003D000E41AA2BF01EB0451294330BD6FEA0404C3
:1003E0001F3C1CDA0C340EDC04F11404C4F12002AE
:1003F00020FA04F001FA02F340EA030021FA04F3C0
:1004000045EA030130BDC4F10C04C4F1200220FA16
:1004100002F001FA04F340EA0300294630BD21FA54
:1004200004F0294630BD94F0000F83F4801306BF1A
:1004300081F480110134013D4EE77FEA645C18BF0E
:100440007FEA655C29D094EA050F08BF90EA020FA5
:1004500005D054EA000C04BF1946104630BD91EA9D
:10046000030F1EBF0021002030BD5FEA545C05D1A0
:100470004000494128BF41F0004130BD14F58004DF
:100480003CBF01F5801130BD01F0004545F0FE4153
:1004900041F470014FF0000030BD7FEA645C1ABF88
:1004A000194610467FEA655C1CBF0B46024650EABF
:1004B000013406BF52EA033591EA030F41F40021EB
:1004C00030BD00BF90F0000F04BF0021704730B571
:1004D0004FF4806404F132044FF000054FF0000146
:1004E00050E700BF90F0000F04BF0021704730B507
:1004F0004FF4806404F1320410F0004548BF4042DC
:100500004FF000013EE700BF42004FEAE2014FEA30
:1005100031014FEA02701FBF12F07F4393F07F4F0B
:1005200081F06051704732F07F4208BF704793F00E
:100530007F4F04BF41F40021704730B54FF4607421
:1005400001F0004521F000411CE700BF50EA010224
:1005500008BF704730B54FF000050AE050EA0102CD
:1005600008BF704730B511F0004502D5404261EB3D
:1005700041014FF4806404F132045FEA915C3FF47E
:10058000D8AE4FF003025FEADC0C18BF03325FEA1B
:10059000DC0C18BF033202EBDC02C2F1200300FACC
:1005A00003FC20FA02F001FA03FE40EA0E0021FAF1
:1005B00002F11444BDE600BF70B54FF0FF0C4CF4DF
:1005C000E06C1CEA11541DBF1CEA135594EA0C0F91
:1005D00095EA0C0F00F0DEF82C4481EA030621EACC
:1005E0004C5123EA4C5350EA013518BF52EA033507
:1005F00041F4801143F4801338D0A0FB02CE4FF0B9
:100600000005E1FB02E506F00042E0FB03E54FF0E8
:100610000006E1FB03569CF0000F18BF4EF0010EE0
:10062000A4F1FF04B6F5007F64F5407404D25FEADC
:100630004E0E6D4146EB060642EAC62141EA55518F
:100640004FEAC52040EA5E504FEACE2EB4F1FD0CD1
:1006500088BFBCF5E06F1ED8BEF1004F08BF5FEA4F
:10066000500E50F1000041EB045170BD06F0004601
:1006700046EA010140EA020081EA0301B4EB5C04AE
:10068000C2BFD4EB0C0541EA045170BD41F48011A6
:100690004FF0000E013C00F3AB8014F1360FDEBFCB
:1006A000002001F0004170BDC4F10004203C35DAA7
:1006B0000C341BDC04F11404C4F1200500FA05F32A
:1006C00020FA04F001FA05F240EA020001F00042CB
:1006D00021F0004110EBD37021FA04F642EB060141
:1006E0005EEA430E08BF20EAD37070BDC4F10C046B
:1006F000C4F1200500FA04F320FA05F001FA04F22F
:1007000040EA020001F0004110EBD37041F100011A
:100710005EEA430E08BF20EAD37070BDC4F1200525
:1007200000FA05F24EEA020E20FA04F301FA05F28D
:1007300043EA020321FA04F001F0004121FA04F235
:1007400020EA020000EBD3705EEA430E08BF20EA05
:10075000D37070BD94F0000F0FD101F0004640003F
:1007600041EB010111F4801F08BF013CF7D041EAC1
:10077000060195F0000F18BF704703F000465200C5
:1007800043EB030313F4801F08BF013DF7D043EA96
:100790000603704794EA0C0F0CEA135518BF95EA4C
:1007A0000C0F0CD050EA410618BF52EA4306D1D1D3
:1007B00081EA030101F000414FF0000070BD50EAF2
:1007C000410606BF1046194652EA430619D094EA7C
:1007D0000C0F02D150EA013613D195EA0C0F05D166
:1007E00052EA03361CBF104619460AD181EA0301BA
:1007F00001F0004141F0FE4141F470014FF0000072
:1008000070BD41F0FE4141F4780170BD70B54FF00C
:10081000FF0C4CF4E06C1CEA11541DBF1CEA13558C
:1008200094EA0C0F95EA0C0F00F0A7F8A4EB05046E
:1008300081EA030E52EA03354FEA013100F0888065
:100840004FEA03334FF0805545EA131343EA12632E
:100850004FEA022245EA111545EA10654FEA0026E3
:100860000EF000419D4208BF964244F1FD0404F59C
:10087000407402D25B084FEA3202B61A65EB0305F8
:100880005B084FEA32024FF480104FF4002CB6EBB5
:10089000020E75EB030E22BFB61A754640EA0C0035
:1008A0005B084FEA3202B6EB020E75EB030E22BF75
:1008B000B61A754640EA5C005B084FEA3202B6EBB6
:1008C000020E75EB030E22BFB61A754640EA9C0075
:1008D0005B084FEA3202B6EB020E75EB030E22BF45
:1008E000B61A754640EADC0055EA060E18D04FEA03
:1008F000051545EA16754FEA06164FEAC30343EAA3
:1009000052734FEAC2025FEA1C1CC0D111F4801F6F
:100910000BD141EA00014FF000004FF0004CB6E768
:1009200011F4801F04BF01430020B4F1FD0C88BF07
:10093000BCF5E06F3FF6AFAEB5EB030C04BFB6EB12
:10094000020C5FEA500C50F1000041EB045170BD05
:100950000EF0004E4EEA113114EB5C04C2BFD4EB32
:100960000C0541EA045170BD41F480114FF0000EB6
:10097000013C90E645EA060E8DE60CEA135594EA32
:100980000C0F08BF95EA0C0F3FF43BAF94EA0C0F35
:100990000AD150EA01347FF434AF95EA0C0F7FF4AA
:1009A00025AF104619462CE795EA0C0F06D152EAFE
:1009B00003353FF4FDAE1046194622E750EA4106E2
:1009C00018BF52EA43067FF4C5AE50EA41047FF4F3
:1009D0000DAF52EA43057FF4EBAE12E74FF0FF3C58
:1009E00006E000BF4FF0010C02E000BF4FF0010C29
:1009F0004DF804CD4FEA410C7FEA6C5C4FEA430CA2
:100A000018BF7FEA6C5C1BD001B050EA410C0CBFF0
:100A100052EA430C91EA030F02BF90EA020F002052
:100A2000704710F1000F91EA030F58BF994208BFB9
:100A300090422CBFD8176FEAE37040F00100704776
:100A40004FEA410C7FEA6C5C02D150EA013C07D1CD
:100A50004FEA430C7FEA6C5CD6D152EA033CD3D018
:100A60005DF8040B704700BF8446104662468C4612
:100A70001946634600E000BF01B5FFF7B7FF002845
:100A800048BF10F1000F01BD4DF808EDFFF7F4FF6E
:100A90000CBF012000205DF808FB00BF4DF808EDF9
:100AA000FFF7EAFF34BF012000205DF808FB00BF1C
:100AB0004DF808EDFFF7E0FF94BF012000205DF83E
:100AC00008FB00BF4DF808EDFFF7CEFF94BF0120F3
:100AD00000205DF808FB00BF4DF808EDFFF7C4FFEC
:100AE00034BF012000205DF808FB00BF4FEA410C35
:100AF0007FEA6C5C02D150EA013C0AD14FEA430C18
:100B00007FEA6C5C02D152EA033C02D14FF0000054
:100B100070474FF0010070474FEA410212F5001292
:100B200015D211D56FF47873B3EB625212D94FEA34
:100B3000C12343F0004343EA505311F0004F23FA1E
:100B400002F018BF404270474FF00000704750EA73
:100B5000013005D111F0004008BF6FF00040704730
:100B60004FF00000704700BF53B94AB9002908BFD1
:100B700000281CBF4FF0FF314FF0FF3000F00CB8E1
:100B8000ADF1080C6DE904CE0CF0EEFBDDF804E0ED
:100B9000DDE9022304B07047704700BF0348044BEF
:100BA000834202D0034B03B11847704778020020FC
:100BB00078020020000000000548064B1B1AD90FE0
:100BC00001EBA301491002D0034B03B11847704752
:100BD00078020020780200200000000010B5064CCA
:100BE000237843B9FFF7DAFF044B13B10448AFF39E
:100BF00000800123237010BD780200200000000057
:100C000028D7000808B5054B1BB105490548AFF3C7
:100C10000080BDE80840FFF7CFBF00BF0000000024
:100C20007C02002028D70008B0FA80F238B55209BB
:100C300004460D460E48102105F0FCFAA4F101020D
:100C4000B2FA82F20A482021520905F0F3FAA4F11F
:100C50000202B2FA82F206484021520905F0EAFA8D
:100C60002A460348BDE83840802105F0E3BA00BFBA
:100C7000000002402DE9F0418EB004F0C7FD0446AB
:100C80005E4890F8083A2BB15D4A1368E31AB3F551
:100C90007A7F02D20EB0BDE8F0815A4B1460196819
:100CA0004B6A59491D4601F0BDF8564B002800F02B
:100CB0008880196855484A6A554F521B4D6A5249F7
:100CC0000B9201F05FF9514801F04AFB4D4B0B9A32
:100CD0001B685B6A08925B1B09934E4D4E4B187064
:100CE0002B68013306462B6038680D93FFF70CFC28
:100CF000CDE906013B46B04653F8040D0C93FFF7CF
:100D000003FCCDE904013A4652F8080D0B92FFF7B7
:100D1000FBFB0D9B414A0096CDE902018021404832
:100D20000AF0CCF981B23E4801F06AFE304600215B
:100D3000FFF77AFF3B4B0C9E0B9AD3ED010A93ED24
:100D4000000A394B92ED001A97ED002AD6ED001AF1
:100D50001B7828682146424602F0E4FC0B9997ED87
:100D6000001A91ED000AD6ED000A274900914FF4D0
:100D7000FA7201922C4A2868127821462B4C43467D
:100D800002F0C8FD2378012B84D8274B1E491A781E
:100D9000204601F0D3FB00283FF47CAF04F58044EB
:100DA000214B94F8360E1978214A2B6800910A24B9
:100DB000CDE9010480211A480AF080F981B218486F
:100DC00017E01C4CDFF858C00FCCCCF80000CCF872
:100DD0000410CCF8082007CCCCF80C302378CCF8E1
:100DE0001000CCF8141060461C21CCF818208CF8A8
:100DF0001C300EB0BDE8F04101F002BE3C560120AF
:100E000094020020C4600120A8020020F0580020B5
:100E100044D70020A0020020980200206CD70008D0
:100E2000F4610120780A0020A4020020A80A002012
:100E3000C0D700084CD70008944B1A7802B9704705
:100E400010B5934A00218EB019701378303B472BB0
:100E50004CD8DFE813F05700790099004B004B00A5
:100E60004B004B004B004B004B004B004B004B002A
:100E70004B004B004B004B004B004B004B004B001A
:100E80004B004B004B004B004B004B004B004B000A
:100E90004B004B004B004B004B004B004B004B00FA
:100EA0004B004B004B004B004B004B004B004B00EA
:100EB0004B004B004B004B004B004B004B004B00DA
:100EC0004B00B9004B004B004B004B004B00DB00CC
:100ED0004B004B004B004B004B00120148004B00F5
:100EE00016014B0053006B4801F0C0FC68496A488A
:100EF00001220EB0BDE8104005F0F2BA674801F0DB
:100F00004FFAF3E7DFF8B4C1DFF8A0E1BCE80F0067
:100F1000CEF80820624ACEF804100021CEF8000076
:100F20001170BCE80700CEF80C30CEF810009CF829
:100F30000030CEF8141070461C21CEF818208EF820
:100F40001C3001F05DFDD1E7DFF874C1DFF85CE132
:100F5000BCE80F00CEF80000CEF80410CEF8082050
:100F6000CEF80C30BCE80F00CEF818204C4ACEF872
:100F70001000CEF81410CEF81C30704601231F214B
:100F8000137001F03DFDB1E7DFF838C1DFF81CE177
:100F9000BCE80F00CEF80000CEF80410CEF8082010
:100FA000CEF80C30BCE80F00CEF818203C4ACEF842
:100FB0001000CEF81410CEF81C30704602231F210A
:100FC000137001F01DFD91E702F08CFD354CDFF848
:100FD000DCE0A446BCE80F00CEF80C30324BCEF873
:100FE00000009C450EF1100E04F110044EF80C1C8C
:100FF0004EF8082CEDD12068A388CEF800002521FA
:101000002A48AEF8043001F0FBFC6FE704A802F0B8
:10101000D9FDDDE90413069C254A0091CDE9013490
:1010200080219DF8343021480AF048F881B21F48E9
:1010300001F0E6FC0799089C9DF835301D4A1B48D5
:10104000CDE9001480210AF039F881B2174801F087
:10105000D7FCDDE90B310A9C174A1448CDE902316F
:1010600009999DF83630CDE9001480210AF026F860
:1010700081B20E4801F0C4FC38E7064801F0C6FB17
:1010800034E7044801F092FB30E700BFA5020020DE
:10109000A6020020A80A002010610120F0580020BC
:1010A000A402002030D9000850D90008F4610120C2
:1010B00064D80008A8D80008E0D8000804D80008C0
:1010C00024D8000844D80008164A1378023B032BA2
:1010D00000D9704770B5144B02F580441878D4F8E5
:1010E000386E0121FFF7A0FDA4F5804001F0F8FB68
:1010F0000D4B00211878FFF797FDD4F8385EAE420B
:101100000FD004F083FB04F5646393ED000AD4F878
:101110003C2E94F8443E01462846BDE8704002F05B
:101120005DBB70BDA80A0020A4020020204A1378ED
:1011300003B9704710B51F491F480C680021117092
:10114000636A1E491C4600F0E7FC20BB1C4A1B4991
:101150001C4800F00FFD1A491B4800F037FE1B4ADF
:10116000164B1068D3ED052A93ED042AD3ED031A2C
:1011700093ED021AD3ED010A93ED000A144B0130EE
:101180001060144A1B781278214602F061FB094B6B
:101190001B685B6A10BD104B104A1B681048802109
:1011A00009F08CFFBDE8104081B20D4801F028BC69
:1011B000A7020020C46001205C6001208C0A00208E
:1011C000780A0020486001203C5601209C02002043
:1011D00098020020A4020020A002002058D9000894
:1011E000F461012070B5A2B00024AD4B05941A6BD8
:1011F00042F008021A631B6B10944FF470400121F7
:1012000003F00803CDE90C010593A648059B0CA942
:10121000CDE90E4404F056FE0122A2484FF470417D
:1012200005F008F80694A04A069B934205DC069B4D
:1012300001330693069B9342F9DD00224FF470417F
:101240009848974D002404F0F5FF04F0B9FA002106
:10125000302216A809F0A8FFCDE91144CDE91344C6
:101260000A9415942A6C914B42F080522A642A6C9D
:1012700002F080520A920A9A0B941A6842F4804251
:101280001A601B6803F480430B930B9B01224FF4FD
:1012900080330226CDE916234FF48003CDE91C6389
:1012A00008224FF4A873CDE91E2316A802220723B3
:1012B000CDE9202304F02AFB0F234FF4A05C119307
:1012C00005214FF4805311A8CDE914C3CDE9126470
:1012D00004F03AFDCDE9184407941A942B6B714839
:1012E00043F001032B632B6B03F001030793079B70
:1012F00008942B6B33432B632B6B33400893089B71
:1013000009942B6B43F004032B632B6B03F0040352
:101310000993099B11942B6B43F008032B632B6BF0
:1013200003F0080311934FF47042012316A9CDE98D
:101330001623119B04F0C6FD5A4822464FF4704113
:1013400004F078FF01254FF4041301225848189542
:1013500016A9CDE9162304F0B5FD31462246062034
:1013600004F07EFA062004F0ADFA4FF404134FF4B3
:1013700000525048189416A9CDE9162304F0A2FD96
:1013800022460321282004F06BFA282004F09AFA60
:1013900049494A4A4A4B0C62C1E9002308464FF4C6
:1013A0008043C1E90434C1E90244C1E9064405F0BF
:1013B0008FFD444A444B13600C264FF4E133104632
:1013C000C2E904465360C2E90244C2E9064404F09B
:1013D000D7FF3E4BDFF824E15E611846C3E90244C3
:1013E0001C619C61DC614FF46123C0E900E304F0FF
:1013F000C7FF374A4FF080415323C2E9001310461C
:101400004FF0FF33D36094601461946107F06EF97C
:10141000304A3148946040F24733C2E900038026E5
:1014200040F2E7331046D3601461966107F05EF92D
:10143000224629461D2004F013FA1D2004F042FA2A
:1014400001F0E6FA234806F0F7FF244801F0A6FB76
:10145000234800F021FD1D4A2149224801F048F8A7
:10146000214800F077FB214800F0AAFC12492048EF
:1014700000F0C6F90346002842D031461D4A1E48F6
:1014800009F01CFE81B21C4801F0BAFA05484FF47D
:10149000804104F0D3FE642004F0BEF9F6E700BFFB
:1014A00000380240000C02403F420F000070004034
:1014B0000000024000080240A061012000540040EA
:1014C000801A06001061012000440040586101208C
:1014D000C46001207C600120000400403412CDABC8
:1014E000F0580020A80A0020486001203C56012046
:1014F0005C60012080D90008F461012000100140E7
:10150000574E584D06F1300C34460FCC644505F16A
:10151000100506F1100645F8100C45F80C1C45F8AE
:10152000082C45F8043CEFD12F214E484E4E4D4D2E
:1015300001F066FA4D4801F051FB4D4801F04EFBB9
:101540004C4801F04BFB4C4801F048FB4B4801F084
:1015500045FB01F08DFB06F1300C34460FCC6445A1
:1015600005F1100506F1100645F8100C45F80C1CA5
:1015700045F8082C45F8043CEFD1B3783288AB70BD
:1015800038482A80322101F03BFA3D493D4801228A
:1015900004F0A6FF01224FF480513B4804F04AFEBC
:1015A000642004F039F900224FF48051364804F0E9
:1015B00041FE642004F030F9344932484FF4FA73A4
:1015C0001C2204F011FF00283FD1314E254C06F1BA
:1015D000300C35460FCD654504F1100406F11006B8
:1015E00044F8100C44F80C1C44F8082C44F8043C53
:1015F000EFD103CE338820606160238119483921FF
:1016000001F0FEF90A244FF4FA7303201021CDE90A
:101610000031204ACDE902048021124809F04EFD34
:101620004021104801F0ECF901F038FA01F04CFBD0
:1016300080210346184A0B4809F040FD81B2094851
:1016400001F0DEF901F02AFBFCE7322004F0E4F8B7
:101650000E490C484FF4FA731C2204F0C5FEB4E79F
:10166000BCD90008F4610120ECD9000864EE000840
:1016700058EE00084CEE00080800002040EE00087C
:10168000A602002010610120000C024020DA0008B0
:1016900040DA00087CDA0008BCDA0008044B026873
:1016A0009A4200D07047034B01221A70704700BF66
:1016B00000040040A7020020044B02689A4200D0B8
:1016C0007047034B01221A70704700BF004400406E
:1016D000A502002010B54FF00A0C88B00E23CDE90A
:1016E000013C04AB0093144601233B2205F054FD5A
:1016F000034638BBBDF810C0BDF81210BDF8140089
:101700001A469CFA9CFC6CF30F0249BA61F31F4223
:101710002260BDF81A20BDF8181052BA6281BDF8D7
:101720001C2049BA218152BABDF81610A28140BAD4
:101730001A4649BA60F30F0261F31F42184662600D
:1017400008B010BD064A0748802109F0B7FC81B2F5
:10175000044801F055F90123184608B010BD00BF38
:1017600028DB0008F461012030B587B00A2302931A
:1017700001240DF11703CDE900340D468DF8172033
:1017800023460A460179006805F068FC08B907B0ED
:1017900030BD074A00902B468021064809F08EFC98
:1017A00081B2044801F02CF9204607B030BD00BFDB
:1017B00054DB0008F461012030B50A2385B0012410
:1017C000CDE9014300920D460A462346017900689F
:1017D00005F0E2FC08B905B030BD074A00902B4681
:1017E0008021064809F06AFC81B2044801F008F93A
:1017F000204605B030BD00BF84DB0008F461012045
:1018000030B5002385B000224FF0D00C01608283F8
:1018100080F804C08360C3600361436183610DF19C
:101820000F0275210446FFF7C7FFD8B99DF80F30A6
:10183000682B1BD1714A7248802109F03FFC704827
:10184000222101F0DDF880226B212046FFF78CFF7A
:1018500040B9642003F0E0FF01226B212046FFF72E
:1018600083FF90B10125284605B030BD6821654A47
:1018700000916348802109F021FC6148392101F081
:10188000BFF80225284605B030BD0A2003F0C4FF8A
:10189000092219212046FFF767FF0028E2D1032221
:1018A0001A212046FFF760FF0028DBD108221B2108
:1018B0002046FFF759FF0028D4D102461C212046BC
:1018C000FFF752FF0028CDD1012238212046FFF733
:1018D0004BFF0028C6D1022237212046FFF744FFE4
:1018E00005460028BED10DF10F026B212046FFF7FF
:1018F00063FF9DF80F30444A4148802109F0DEFB28
:101900003F481B2101F07CF80DF10F021921204600
:10191000FFF752FF9DF80F303C4A3948802109F00B
:10192000CDFB37481B2101F06BF80DF10F021A2196
:101930002046FFF741FF9DF80F30354A304880219F
:1019400009F0BCFB2E481B2101F05AF80DF10F02E3
:101950001B212046FFF730FF9DF80F302D4A284805
:10196000802109F0ABFB26481B2101F049F80DF15D
:101970000F021C212046FFF71FFF9DF80F30264A5B
:101980001F48802109F09AFB1D481B2101F038F8FF
:101990000DF10F0238212046FFF70EFF9DF80F30A2
:1019A0001E4A1748802109F089FB15481B2101F0C8
:1019B00027F80123DFF86CE0DFF844C02377744692
:1019C0000FCCCCF80C30164BCCF800009C420CF13C
:1019D000100C0EF1100E4CF80C1C4CF8082CEED12B
:1019E000DEF80000BEF80430CCF8000035210448D1
:1019F000ACF8043001F004F835E700BFF4DB000870
:101A0000F4610120B4DB00081CDC00083CDC0008A9
:101A10005CDC00087CDC00089CDC0008BCDC000806
:101A20000CDD0008DCDC0008B1F900309FED356A00
:101A3000DFED356A90ED057A9FED345ADFED345ACB
:101A400007EE903AF8EEE77A67EE867A67EEA67AC6
:101A500077EEC77A9FED2F7AC2ED007AB1F90230A6
:101A6000D0ED064A07EE903AF8EEE77A67EE867A0E
:101A700067EEA67A77EEE47AC2ED017AB1F9043026
:101A800007EE903AF8EEE77A67EE867A67EEA67A86
:101A9000C2ED027AB1F9083090ED026A06EE903A92
:101AA000F8EEE66AC6EE877A77EEC67AC2ED037A7A
:101AB000B1F90A3090ED036A06EE903AF8EEE66A64
:101AC000C6EE877A77EEC67AC2ED047AB1F90C30A9
:101AD00090ED046A06EE903AF8EEE66AC6EE877A72
:101AE00077EEC67AC2ED057AB1F9063007EE103A04
:101AF000B8EEC77AC7EE057A77EEA57AC2ED067A18
:101B0000704700BF000080380AE81C410000AA436B
:101B1000B81E12420000034330B5037F87B0A3B163
:101B200003460D4602AA017900680193FFF7D2FD32
:101B3000044610B1204607B030BD01982A4602A9DC
:101B4000FFF772FF204607B030BD0424204607B0DF
:101B500030BD00BF0023DFF818C004490360002235
:101B60004360C0F808C0C160027470470AD7233CC4
:101B700048E17A3F00B52DED068BD1ED009AD1ED0D
:101B8000028A9FED4D9A91ED018A9FED4CAA68EE75
:101B9000A88A69EEA97A85B077EEA87AB0EE480AED
:101BA000F1EEE70ACDE901200391B4EEE09AF1EEFF
:101BB00010FAC8BFF0EE490A08F018F928EE088AB2
:101BC000F0EE407A38EE288AB0EE690AF1EEC80AE3
:101BD00067EE8A8AB4EEE09AF1EE10FAC8BFF0EE32
:101BE000490A08F003F90298019A037C039920EE50
:101BF0000A0ADBBB0123037480ED010AC0ED008AF1
:101C0000D1ED046A91ED037AD1ED055AD1ED007A58
:101C100091ED016A26EEA65A27EE077AD1ED026A07
:101C2000C2ED008A37EE057A65EEA55A26EE066A01
:101C300067EEA77A37EE257A77EE867A66EEA66AA1
:101C4000B1EEC76A4368536077EEA67A92ED027AE6
:101C500082ED026AF1EEE76A76EE477AC2ED036A38
:101C6000C2ED047A05B0BDEC068B00BDD0ED037A61
:101C7000D1ED046A91ED037A90ED026A90ED005A7D
:101C8000D0ED015A27EE877A67EEA67AF7EE006A62
:101C900076EEC66A37EE057A77EEA57A27EE067AF3
:101CA00066EEA88A67EE867A26EE800A77EE288AA4
:101CB00037EE800AA0E700BFBD378635E02E6542CB
:101CC000002961D000B5DFED3C7A85B003468A007B
:101CD00000EB810E8446BCEC017AE64577EE877A0C
:101CE000F9D106EE901AB8EEE66A9FED337AC7EEA8
:101CF000866AF3EC017A77EEE67A9E4567EEA77A7C
:101D000037EE277AF5D10129034629D0013907EEAC
:101D1000901AF8EEE77A87EE270AB5EE400AF1EE60
:101D200010FA35D4F1EEC07A9FED247AF4EEC77A3A
:101D3000F1EE10FA22D49FED217A77EE877AB7EE92
:101D4000006A86EE277A1A44D3ED007A77EEE67AB7
:101D500067EE877AE3EC017A9A42F5D105B000BDCF
:101D6000B5EE407AF1EE10FA1FD4F1EEC77A9FED8E
:101D7000137AF4EEC77AF1EE10FADCD5002105B043
:101D80005DF804EB09F010BA0A46002109F00CBA1C
:101D9000CDE90220CDED016A08F096F8DDE90223D5
:101DA000DDED016AF0EE407AC5E7CDE90220CDED28
:101DB000016AB0EE470AEFE70000000095BFD63396
:101DC00040F60C22002109F0EFB900BFD0F8002A3C
:101DD000D1F800C002F07F0303EB830300EB830321
:101DE0000132C3F800C0D1F804C0C3F804C0D1F870
:101DF00008C0C3F808C0D1F80CC0C3F80CC009690A
:101E00001961D0F8043AC0F8002A7F2B03D90123C6
:101E100080F8083A70470133632BC0F8043AF6D8CB
:101E2000704700BF38B590F8083A93B3D0F8003A3D
:101E30000D460C4601F5966EA3F1640C01F5C871D0
:101E40002A460CF07F0303EB830300EB8303D3EDFF
:101E5000007AE2EC017AD3ED017AC2ED637AD3ED38
:101E6000027AC2EDC77AD3ED037AEEEC017A1B69F0
:101E7000CEF88C318A420CF1010CE2D105F5FA65FD
:101E80002046642104F5C874FFF71AFFA542F7D174
:101E90000123184638BD00BF2DE9F04100F570431D
:101EA0002DED028B03F6FC42054631489FED318A49
:101EB00086B0106005F57D424FF00008002105F561
:101EC0007D40116005F5FC474022C3F8048D83F87E
:101ED000488D4146083005F5FA4609F065F940227B
:101EE0004146304609F060F92C46C7F80080C7F833
:101EF0000480C7F8088000F05BFE20EE080AA4EC1E
:101F0000010AB442F7D105F5FA459FED1B8A403529
:101F100000F04EFE20EE080AA5EC010ABD42F7D102
:101F20000FA3D3E9002310A5D5E90045CDE904238B
:101F300003211023CDE90031CDE902450F4A1048B5
:101F40004FF4FA73802109F0B9F881B20C4806B059
:101F5000BDEC028BBDE8F04100F052BDAFF3008054
:101F6000000000A081FBE13F000000C0ED9ABB3FF4
:101F70000AD7233C6ED7DC3D0DDC0F3F14DD000893
:101F8000F461012070B52DED028B00F5FA449FED50
:101F90004D6A0D4600F5FA4E00F5FA6C40340146E4
:101FA000BEEC017A2A460B46F3EC017AF2EC016AA8
:101FB00067EEA67A634537EE277AF5D1B5EEC07A9B
:101FC000F1EE10FAD4BFF0EE467AF0EE477AA6456D
:101FD0008EED557ACEED427A01F5FA6103F5FA6C91
:101FE000DED100F5FC4500F5FC4400F5FB410C3565
:101FF000B4EC017AA1F140032A46F3EC017AF2EC49
:10200000016A67EEA67A994237EE277AF5D1A542A2
:1020100084ED257A84ED127A01F14001E8D100F5D2
:10202000E04606F5656306F64C62D3ED007A92ED64
:10203000007A9FED248AF4EEC77A06F65463F1EE37
:1020400010FAD3ED008AD8BFF0EE477AF4EEE78AB3
:10205000F1EE10FA00F5FC4400F5FC45D8BFF0EEB7
:10206000678A4C34583594ED000A30EE680A07F060
:10207000BFFEA4EC010AA54238EE008AF3D19FED21
:10208000127A38EE078AF7EE007A87EE887A06F63B
:102090004C6206F5656306F65466D2ED007A67EE8B
:1020A000877AC2ED007AD3ED007A67EE877AC3EDC6
:1020B000007AD6ED007A67EE877AC6ED007ABDEC3D
:1020C000028B70BD0000000095BFD6332DE9F041B2
:1020D00000EB820300F5E04200F570450C4602F685
:1020E0004C6105F54B660968316002F5656102F6E1
:1020F0000C670E6805F6B44103F57C430E6002F6EA
:10210000546105F6B84209681160D3ED2C7AB7EE38
:10211000007A77EEC77A00F57B4600F57C4C00F537
:102120007C4100F5FC4800F5FC4EC3ED2C7AE83606
:102130000CF1B00CBC3108F110080EF14C0EBCECE7
:10214000017A0CED047AD7ED007A67EE877A434680
:10215000324646ED017AB3EC017A5CED017A67EE26
:10216000877A7345E2EC017AF5D18C4506F1400699
:10217000E5D100F5FA4305F54B6705F6B4469FED4A
:102180002D6A403300F5FB4C05F6B8451BE0D2ED57
:10219000007AD7ED006A93ED0F7A96ED005AD5EDEF
:1021A000005A66EEA76A27EE057AD3ED1F7A76EE1F
:1021B000866A67EEA57A37EE267A634577EE877AE8
:1021C000E1EC017A0FD0D3ED467AF5EEC07AF1EE6C
:1021D00010FA1A4603F10403D9DCF0EE467A63459F
:1021E000E1EC017AEFD100F5FD4500F57B4E243599
:1021F0000EF1E40029460EF1A40E04F5FA6C9EEDF2
:10220000467A2346AEEC017A0A46F3EC017A67EE91
:10221000277A6345E2EC017AF7D1864501F5FA6148
:10222000EDD12846B1EE040ABDE8F0414FF4FA5171
:1022300000F018BC0000000000F5704C0CF6FC43E8
:1022400000F5FD42D3ED006A243200F5FA41034661
:10225000B2EC017AD3ED007A27EE267A77EEC77AD0
:10226000E3EC017A8B42F3D100F57B4200F5FA43AF
:10227000A4324033B2EC017AD1ED007A27EE267A0F
:1022800077EEC77AE1EC017A9942F3D100F57B420F
:10229000E43200F5FC41B2EC017AD3ED007A27EE8E
:1022A000267A77EEC77AE3EC017A8B42F3D100F518
:1022B0007C4300F5FC40A4330C30B3EC017AD1ED43
:1022C000007A27EE267A77EEC77AE1EC017A884227
:1022D000F3D1DCF8043D0133CCF8043D704700BF76
:1022E00030B583B0154604460191FFF74BFE05F566
:1022F000FC53123304EB8303D3ED017A9FED170AED
:10230000B4EEE70AF1EE10FAD8BFB0EE670A07F0B4
:10231000ABFD04F5704CB1EE400A9CF8483D0199C4
:102320008DED010A03F57D500230013304EB80008E
:1023300003F00F0380ED000A8CF8483D04F57D435F
:1023400083ED000A2A462046FFF7C0FE2046FFF72D
:1023500073FF9DED010A03B030BD00BF95BFD633BA
:1023600000F5E04303F64C6103F5656291ED007AF8
:10237000D2ED007AB4EEE77AF1EE10FA0DD4F0EE79
:10238000477A002003F6546393ED007AB4EEE77ABF
:10239000F1EE10FAC8BF022070470120F2E700BF3B
:1023A000F0B52DED028B90ED008A9FED4A7A87B053
:1023B0000446F0EE488A00F5FA420346F3EC017A4F
:1023C000B4EEE78AF1EE10FAF4EEE87AC8BFB0EEA8
:1023D000678AF1EE10FAC8BFF0EE678A934237EED3
:1023E000277AEBD1DFED3C7AC7EE277A17EE900A19
:1023F000FEF78AF802460B4618EE900ACDE9042350
:10240000FEF782F80B46024618EE100ACDE90223C9
:10241000FEF77AF8314ACDE900018021304808F012
:102420004DFE81B22E4800F0EBFA04F5704304F53E
:102430007D42D3F8043D10681D46FEF765F804F5AB
:102440007D4304F57D42DFED237A06460F460833CF
:102450004832B3EC017A934277EE877AF9D19FED57
:10246000217A67EE877A04F5E04417EE900AFEF7CA
:102470004BF81D4ACDE902012B46CDE900678021CA
:10248000174808F01BFE81B2154800F0B9FA04F6AF
:1024900054631868FEF738F8CDE9040104F5656364
:1024A00004F64C641868FEF72FF8CDE902012068A5
:1024B000FEF72AF80D4ACDE900018021084808F00E
:1024C000FDFD81B2064807B0BDEC028BBDE8F040CF
:1024D00000F096BA000000000000FA4554DD000844
:1024E000F46101200000803D8CDD0008C0DD0008A3
:1024F00038B50D461446002144F6486208F054FEF3
:102500004722C0E901540A490A4808F0CCFE0948AC
:10251000462100F075FA0A238021074A054808F091
:10252000CDFDBDE8384003482E2100F069BA00BF58
:1025300008DE0008F461012050DE000890F800C0B9
:10254000BCF1010F57D8F0B500F5804585B095F87E
:10255000363E092B17460E46044629D8BCF1000F1B
:1025600058D04FF4FA6202FB034031460C3003931B
:1025700008F099FE039B384844F62C6223448021DE
:102580009F5495F8363E01970133DBB20A2285F855
:10259000363E0092314A08F091FD81B22E4800F09B
:1025A0002FFA95F8363E092B27D8012005B0F0BD4B
:1025B0002B4D294C05F1200EAC46BCE80F00F4452C
:1025C00004F1100405F1100544F8100C44F80C1C3B
:1025D00044F8082C44F8043CEED107CD2B88A381A5
:1025E000AB78206061601C48A2602E21A37300F0CC
:1025F00007FA0020DAE70020704702232370194A07
:1026000015480A23802108F059FD1348362100F0AF
:10261000F7F9CAE7DFF850C0DFF83CE001230370A8
:10262000BCE80F00CEF80000CEF80410CEF8082069
:10263000CEF80C30BCE80F00CEF81000CEF8141025
:1026400070461F21CEF81C30CEF8182000F0D8F9C3
:1026500095F8363E85E700BFF4610120D0DE000822
:1026600080DE0008FCDE0008B0DE00082DE9F04D39
:1026700000F580472DED028BD7F8383E454A0133EF
:1026800084B080218046444808F018FD81B2424859
:1026900000F0B6F997F8363E002B75D008F59C454A
:1026A0009FED3E8A2B3508F10C06002415F8012F0A
:1026B000D8F804003146FFF713FE10EE100A38EE8A
:1026C000008AFDF721FF2A7897F8363E01348246CA
:1026D0008B46CDE900328021314A2F482346CDE98F
:1026E00002AB08F0EBFC81B22B4800F089F997F8B7
:1026F000363EE2B2934206F5FA66D7D807EE903A34
:10270000B8EE677AC8EE077A07F56462254E224C68
:10271000C2ED007AD7F83C2E1344C7F83C3E17EEC2
:10272000900A0293FDF7F0FE1F4ACDE900018021D7
:10273000194808F0C3FC81B2174800F061F906F1AE
:10274000300735460FCDBD4204F1100406F11006E6
:1027500044F8100C44F80C1C44F8082C44F8043CD1
:10276000EFD103CE33882381B37820606160A372F8
:1027700009483A2100F044F9032388F8003004B0F6
:10278000BDEC028BBDE8F08D9FED047AB0EE478A78
:10279000B8E700BF34DF0008F4610120000000004A
:1027A0006CDF0008DCDF00089CDF00080378012BE9
:1027B00000D9704730B5124DDFF84CE083B0844645
:1027C0002C460FCCCEF80C300E4BCEF800009C42BD
:1027D0000EF1100E05F110054EF80C1C4EF8082CE9
:1027E000EED12868CDF804C02321CEF800000648B9
:1027F00000F006F9019B03221A7003B030BD00BF40
:1028000018E0000838E00008F461012010B544F633
:102810002C62044600210C3008F0C6FC0023237013
:10282000DFF840C0DFF840E004F58044A4F8453EFE
:10283000BCE80F00CEF80000CEF80410BCE803009E
:10284000CEF80C30BCF80030CEF81000CEF81410E2
:10285000CEF80820AEF8183070461921BDE81040B7
:1028600000F0CEB83CE00008F461012030B50378F8
:10287000052B00F5804496BF154A164B52F82330BD
:1028800094F8462E89B004F56461054608680592FF
:1028900094F8442E07930492FDF736FECDE9020129
:1028A000D4F83C0ED4F8381E079B0B4ACDE9001033
:1028B00080210A4808F002FC011E03DD074889B2A6
:1028C00000F09EF8686809B0BDE83040FFF768BDC9
:1028D00070EE000800DE000858E00008F4610120F6
:1028E00038B503780446052B72D8DFE803F00505F8
:1028F000343803060023037038BD00F580453A4A9A
:1029000095F8453E3948802108F0D8FB81B2374818
:1029100000F076F844F62C62002104F10C0008F077
:1029200043FCDFF8D8C000232370A5F8453EBCE87F
:102930000F002E4C20606160BCE80300E360BCF82F
:10294000003020616161A260238320461921BDE827
:10295000384000F055B8BDE83840FFF787BE244D39
:10296000DFF888C0AE46BEE80F00CCF80C30214B33
:10297000CCF800009E450CF1100C05F110054CF848
:102980000C1C4CF8082CEDD12B4607CB1B78CCF84F
:102990000000CCF80410CCF808208CF80C30134858
:1029A0003C2100F02DF804F5804044F62C62D0F86C
:1029B000383E0133C0F8383E002104F10C0008F025
:1029C000F3FB002323702046BDE83840FFF74EBFDD
:1029D000094A0648802108F071FB81B2034800F0E3
:1029E0000FF80523237038BDE8E00008F4610120EA
:1029F000A8E00008D8E0000818E100083CE0000862
:102A00000A4664230146014803F0EEBC1061012030
:102A100010B5104805F0DAFCDFF844E0DFF83CC000
:102A2000BEE80F00ACE80F00BEE80F00ACE80F00F6
:102A30009EE803004CF8040B2CF8021B4FEA114EE1
:102A40008CF800E0BDE810400348044964232622C6
:102A500003F0CABCC460012010610120F4610120B0
:102A600078E10008C1B100EB8101B1EE407A03E0EA
:102A700000ED010A81420FD0F0EC017AF4EEC07A49
:102A8000F1EE10FAF4DCF4EEC77AF1EE10FAF1D5BB
:102A9000814200ED017AEFD1704700BFF0B583B0FD
:102AA000EFF30884324EDFF8F0E0DFF8D4C0314DA8
:102AB000331B0193BEE80F00ACE80F009EE80F0047
:102AC000ACE807001C228CF80030ACF11C01642338
:102AD000294803F089FC3346284A2948802108F018
:102AE000EDFA274924486423212203F07DFC234684
:102AF000244A2348802108F0E1FA21491E48642332
:102B0000212203F071FC2B461F4A1D48802108F04A
:102B1000D5FA1B4918486423212203F065FC019B68
:102B20001A4A1748802108F0C9FA671B82B2144973
:102B30001148642303F058FC3B46154A1048802195
:102B400008F0BCFA0E4982B264230B4803F04CFC37
:102B5000104A0B484FF4FA43802108F0AFFA0849B5
:102B600005486423222203B0BDE8F04003F03CBCDA
:102B7000000002203C9B012010610120C0E1000800
:102B8000F4610120E0E1000800E2000820E2000812
:102B900044E2000868E20008A0E1000800B9024829
:102BA000024B1860704700BFEFBEADDE0000002092
:102BB000074A08481168084B00FB013300EE103A41
:102BC000BBEEE00AF7EE007A30EE670A136070475A
:102BD000000000200D6619005FF36E3C00B5DFF8C1
:102BE00088C003689CF80020072A83B01ED8511CB7
:102BF000C9B28CF80010DFF874C04CF82200DFF87E
:102C000060C0154A0820CDE90010002B08BF6346BC
:102C10008021124808F052FA011E02DC012003B0A4
:102C200000BD0E4889B2FFF7EBFEF7E70C490D4AED
:102C30000A48002B08BF0B4600938021082308F0A8
:102C40003DFA011E02DC002003B000BD034889B23A
:102C5000FFF7D6FE0020F7E7ECE20008F461012060
:102C600088E200088CE2000874620120786201208A
:102C700070B5084E33785BB1074D002455F8043F1A
:102C80005B6803B1984732780134E3B29A42F5D8D1
:102C900070BD00BF746201207462012070B5084EDF
:102CA00033785BB1074D002455F8043F9B6803B1AE
:102CB000984732780134E3B29A42F5D870BD00BF2C
:102CC0007462012074620120014B1878704700BFC4
:102CD000746201200120704730B51B4B1B7885B012
:102CE0001BB90125284605B030BD13460C464FF4EC
:102CF000FA620146009215480393224605F012FE3F
:102D0000039B054688B902F081FD04460F4806F092
:102D1000CFFA0428E6D002F079FD001BB0F5FA6F77
:102D2000F4D90225284605B030BD094A0093802118
:102D30002346084808F0C2F981B20648FFF760FE52
:102D40000325284605B030BD986201209C62012011
:102D500018E30008F461012030B51B4B1B7885B0E7
:102D60001BB90125284605B030BD13460C464FF46B
:102D7000FA620146009215480393224605F0D4FEFC
:102D8000039B054688B902F041FD04460F4806F052
:102D90008FFA0428E6D002F039FD001BB0F5FA6F77
:102DA000F4D90225284605B030BD094A0093802198
:102DB0002346084808F082F981B20648FFF720FE52
:102DC0000425284605B030BD986201209C62012090
:102DD0004CE30008F461012000B589B0054869465C
:102DE00006F0ACF910B9069809B000BD002009B092
:102DF00000BD00BF9C62012010B58CB0314804A911
:102E000006F09CF900283AD1049B002B33D12E4BBD
:102E1000DDE90A010191A0FB0112090D41EA02312D
:102E200002912A4A00908021294808F047F981B28E
:102E30002748FFF7E5FD274A049B2548802108F035
:102E40003DF981B22248FFF7DBFD234A0A9B204867
:102E5000802108F033F981B21D48FFF7D1FD8021B0
:102E60001E4A1B480B9B08F029F981B21848FFF74E
:102E7000C7FD0CB010BD012B21D0194BC8E7194C70
:102E8000DFF84CE0A446BCE80F00CEF80C30164B3F
:102E9000CEF800009C450EF1100E04F110044EF81F
:102EA0000C1C4EF8082CEDD12068A388CEF8000049
:102EB00025210748AEF80430FFF7A2FDD9E70B4BF8
:102EC000A6E700BF9C62012080E30008BCE3000885
:102ED000F4610120FCE3000818E4000834E4000871
:102EE00000DE000894E30008B4E3000888E300086B
:102EF000F0B55F4E33788BB0002B40F085805D4C91
:102F00005D4800250195236B43F004032363236B85
:102F100003F004030193019B0295236B43F0080324
:102F20002363236B03F008030293029B0395636CF6
:102F300043F400636364636C03F4006303934FF42E
:102F4000F8520223CDE9042301220323CDE906230D
:102F500004A90C230893039A042702F0B3FF4748FF
:102F6000049704A902F0AEFF29468022444808F0E5
:102F70001BF9434A434B42F8043C101F762353612C
:102F800006F0BEF80546D8B93F484FF400618561A8
:102F900006F0E6F802F03AFC044605E002F036FCE2
:102FA000001BB0F5FA6F43D8374806F081F90428C2
:102FB000F4D101233370FFF71FFF28460BB0F0BD9B
:102FC000324D334E0FCD30607160B26007CDF3608B
:102FD0002B8830617161B3833046AB78B3771E21A3
:102FE000B261FFF70DFD24484FF4F85103F07EF86D
:102FF0002248394603F07AF8636C012523F4006314
:10300000284663640BB0F0BD1F4805F077FC1A48F2
:103010004FF4F85103F06AF80421184803F066F8F9
:10302000144A536C002123F400635364317066E743
:10303000184E174D06F1300734460FCCBC4205F14F
:10304000100506F1100645F8100C45F80C1C45F863
:10305000082C45F8043CEFD103CE33782860696032
:103060002B720B483821FFF7CBFC0225A5E700BFE8
:10307000986201200038024000080240000C024023
:10308000A0620120002C01409C62012050E4000855
:10309000F461012070E4000808B10120704708B510
:1030A000FFF718FE28B9084B03221A701878C0B22F
:1030B00008BDFFF71DFF044B003818BF0120187032
:1030C0001878C0B208BD00BF0400002008B101207C
:1030D000704708B5FFF7FEFD044B18B91A7842F0A7
:1030E00002021A701878C0B208BD00BF04000020A8
:1030F00078B909480078C00709D408B508461146D0
:103100001A46FFF7E9FD003818BF012008BD03206B
:1031100070470420704700BF0400002078B90948B8
:103120000078C00709D408B5084611461A46FFF7CB
:1031300013FE003818BF012008BD0320704704208B
:10314000704700BF0400002050B9134B187810F0EE
:1031500001031DD1032903D8DFE801F00309150598
:10316000042318467047012111601846704700B5C6
:1031700083B0CDE90023FFF72FFE009A019B10607A
:10318000184603B000BD4FF4007111801846704717
:1031900003231846704700BF0400002090F8283031
:1031A000002B36D010B590F8333086B0044613B9F2
:1031B000002006B010BD90F83230C16A03EB8302E4
:1031C00003EB421319444FF0000C91F8A020CDF806
:1031D00014C005AB039101F033FD28B90399059B99
:1031E00091F8A0209A4216D0D4E91031144ACDE9C2
:1031F00000108021134807F061FF011E03DD114814
:1032000089B2FFF7FDFBE36B01200344E36306B0E3
:1032100010BD0020704794F8323094F8302001330C
:10322000B3FBF2F102FB113384F83230626B94F895
:1032300033300132013B626384F83330B8E700BFBA
:10324000ACE40008F46101202DE9F041244F94B072
:1032500005460E469046012401E0BC4232D0CDE93D
:103260000064204A2B46302108A807F027FF02A956
:1032700008A801F059FE042804F10104EDD106224A
:1032800008A9404601F0E6FB70B100908021164A83
:10329000164808AB07F012FF81B21448FFF7B0FBE5
:1032A000002014B0BDE8F081114A104808AB80211D
:1032B00007F004FF81B20D48FFF7A2FB012014B014
:1032C000BDE8F08180210B4A08482B4607F0F6FE46
:1032D000011EE5DD054889B2FFF792FBE0E700BF7C
:1032E000A0860100E0E40008F0E40008F461012099
:1032F00024E5000850E500082DE9F047454FB2B03D
:10330000012545494548012201F07CFB0D2840D0AC
:10331000002873D197E807000DF1280888E8070016
:1033200044460DF1340A2668304601F025FE10F0BF
:10333000F70904F1040400F085800090384A394808
:103340003346802107F0BAFE00285DDC03242B46BB
:10335000354A34480094802107F0B0FE31483E21C0
:10336000FFF74EFB314A13683220013301351360F9
:1033700002F052FA042DC4D12D4A2A482346802156
:1033800007F09CFE2748512132B0BDE8F047FFF717
:1033900037BB43222749234807F085FF21484221B4
:1033A000FFF72EFB4FF4007300931B48224B0022C3
:1033B000012101F0DDFE002840F04881DFF880C0E7
:1033C000184E0CF1300E64460FCC744506F1100611
:1033D0000CF1100C46F8100C46F80C1C46F8082CA2
:1033E00046F8043CEFD10F482F21FFF709FB0A49AB
:1033F0000A48012201F006FB00288BD00F4A034641
:103400000848802107F05AFE81B20648FFF7F8FA13
:103410009CE700BF40D7000818DC00086065012069
:1034200094E60008F46101207CE900082065012091
:10343000C0E9000898E500082063012064E6000860
:1034400034E6000854457FF46EAF854B8549864AC3
:10345000864801241C70FFF7F7FE00283FF476AF82
:10346000834A84498448FFF7EFFE00283FF46EAF9B
:103470008249834A0846FFF7E7FE00283FF466AF1B
:103480007F4B804E83F82840774BCDF8189083F817
:1034900028407D4B1C700FCE45460FC50FCE0FC583
:1034A00096E8070003C506AB2A70414628226E48FD
:1034B000764D01F0C5FB10230322CDE90032A02197
:1034C000734A4FF4FA73404607F0F8FD06AB292221
:1034D0004146654801F0B4FB64236E4A01940093B1
:1034E000A0214FF4FA73404607F0E8FD06AB4122F5
:1034F00041465D4801F0A4FB0A23029356A3D3E999
:1035000000230394CDE90023A021634A404607F03D
:10351000D5FD06AB02464146534801F091FB5F4999
:103520006C22404607F0BFFE06AB6B2241464E4878
:1035300001F086FB4C4801F083FC0FCD44460FC4DC
:103540000FCD0FC40FCD0FC495E8030044F8040B52
:1035500024F8021B090C21704548CDF8149005ABE6
:103560003622414601F06CFB4B464D4A102106A81D
:1035700007F0A4FD09F10109024605AB3C4806A984
:1035800001F05EFBB9F5FA7FEED105AB454938484D
:10359000454D464E022201F053FB354801F050FCE8
:1035A00000210691424A6423A021404607F086FD8F
:1035B00006AB41462622324801F042FB0FCD44467D
:1035C0000FC40FCD0FC40FCD0FC495E80F0007C473
:1035D00024F8023B1A0C374D227006AB41463E22BE
:1035E000274801F02DFB0FCD44460FC40FCD0FC46B
:1035F00095E8070003C406AB227041462822204804
:1036000001F01EFB2C494F22404607F04CFE06AB52
:1036100041464E221A4801F013FB0FCE45460FC516
:103620000FCE0FC596E8070006AB03C541462280C2
:103630001348292201F004FB114801F001FC02F0BB
:10364000E5F81E4B186032B0BDE8F0871C4A03460F
:10365000D6E600BFAFF3008000000040E17A843F6F
:103660005C650120C8E600085C000020CCE600088C
:1036700030650120D4E60008D8E60008E0E600083E
:1036800014000020E4E600082C6501202CE8000866
:1036900010E700083CE7000880E70008C0E70008E2
:1036A00064E8000820E5000894E8000850E90008F4
:1036B0006CE80008D4E8000800E90008586501201B
:1036C000DCE5000870B5151E044627DB9F2D2A4651
:1036D00020D82E4694F83100E36A00EB800C00EB12
:1036E0004C10181807F0DFFD0022425580F8A0604A
:1036F00094F8313094F830200133B3FBF2F102FB3F
:10370000113384F8313094F833300120034484F8C5
:10371000333070BD9F2632463546DBE70026324601
:103720003546D7E72DE9F047294C2478BAB02CB1BB
:10373000284C94F828C0BCF1000F03D101203AB006
:10374000BDE8F087814612EE100A11EE908A11EE64
:10375000107A10EE906A10EE105A0E9311928A466B
:10376000FCF7D2FECDE90C014046FCF7CDFECDE9D9
:103770000A013846FCF7C8FE119A0692CDE9080105
:103780003046FCF7C1FECDE904012846FCF7BCFE3B
:103790004B46CDE90201104ACDF800A0A02112A8A5
:1037A00007F08CFC94F8333094F83010994208D923
:1037B000024612A92046FFF785FF00203AB0BDE877
:1037C000F087A36B04200133A3633AB0BDE8F08710
:1037D0005C6501205C00002014EA000870B5194CFB
:1037E0002478AEB02CB1184C94F828C0BCF1000F6E
:1037F00002D101202EB070BD054610EE100ACDE9B1
:1038000004230E46FCF780FE2B46CDE902010F4A49
:103810000096A02106A807F051FC94F8333094F8E4
:103820003010994207D9024606A92046FFF74AFF01
:1038300000202EB070BDA36B04200133A3632EB013
:1038400070BD00BF5C6501205C00002040EA0008FC
:103850002DE9F04F2C4C2478B9B02CB12B4C94F8B6
:1038600028C0BCF1000F03D1012039B0BDE8F08FB2
:10387000824612EE900ACDE90E2312EE109A11EE56
:10388000908A11EE107A10EE906A10EE105A8B4664
:10389000FCF73AFECDE90C014846FCF735FECDE9D0
:1038A0000A014046FCF730FECDE908013846FCF736
:1038B0002BFECDE906013046FCF726FECDE90401DA
:1038C0002846FCF721FE5346CDE90201104ACDF807
:1038D00000B0A02110A807F0F1FB94F8333094F861
:1038E0003010994208D9024610A92046FFF7EAFE97
:1038F000002039B0BDE8F08FA36B04200133A3632F
:1039000039B0BDE8F08F00BF5C65012014000020D5
:1039100060EA00082DE9F04FDFF8C0C191B09CF8D3
:1039200000C0BDF86CB0BCF1000F00F0AD80DFF856
:10393000B0C19CF800C0BCF1000F00F0A5801A9C3B
:10394000002C00F09C801646002203921F46584A25
:1039500003460D4604A8302111EE10AA10EE909AED
:1039600010EE108A07F0AAFB03AB024604A95148E7
:1039700001F066F90346002874D14D4A2B463021E8
:1039800004A807F09BFB03AB024604A9494801F0D9
:1039900057F90346002865D1474A0097334630213E
:1039A00004A807F08BFB03AB024604A9414801F0D1
:1039B00047F90346002855D14046FCF7A5FD3F4A8C
:1039C000CDE90001302104A807F078FB03AB0246E3
:1039D00004A9384801F034F90346002842D148468A
:1039E000FCF792FD354ACDE90001302104A807F02B
:1039F00065FB03AB024604A92E4801F021F90346FA
:103A000000282FD15046FCF77FFD2D4ACDE900015B
:103A1000302104A807F052FB03AB024604A9254855
:103A200001F00EF90346E8B9BBF1000F31D01A9A44
:103A300002EB8B0501E0AA422BD010681446FCF77C
:103A400063FD204ACDE90001302104A807F036FBD0
:103A500003AB024604A9174801F0F2F8221D034601
:103A60000028E8D0184A1948802107F027FB81B2C6
:103A70001648FEF7C5FF164A136801331360032387
:103A8000184611B0BDE8F08F0123184611B0BDE80B
:103A9000F08F03AB0F490748022201F0D1F803462B
:103AA0000028DFD10C490A6801320A60EDE700BF47
:103AB00090EA00083065012098EA0008A0EA0008B2
:103AC000A8EA0008B0EA0008B8EA0008F46101209A
:103AD0002465012020E50008286501205C6501209F
:103AE0002C65012008B5114890F828303BB91048E2
:103AF00090F8283073B90F4B1B788BB908BD01F0D3
:103B00009FF901F083FE0C4B1860094890F82830AB
:103B1000002BF0D001F094F9064B1B78002BEDD070
:103B2000BDE80840054801F08BB900BF5C000020EB
:103B3000140000202C65012058650120306501200B
:103B40001A4B93F8282002B9704710B51846FFF7B2
:103B500025FB04461648FFF721FB2043C0B248B9B5
:103B600001F054FE134A126841F28733801A9842DA
:103B700018D810BD0D4B1049002283F82820184694
:103B80000B4B0A7083F828200C4B1A7001F0B8F91F
:103B9000074801F0B5F90A4801F0B2F9BDE8104054
:103BA000FFF7AABBBDE81040FFF79CBF5C000020F8
:103BB00014000020586501205C6501202C6501205F
:103BC0003065012000283FD010B42049204A4B6BBB
:103BD00003608B6B4360CB6B8360536B4361946B6F
:103BE000DFF878C08461D46BC461DCF80040DFF892
:103BF00070C0184BC460DCF80040DFF868C01B7868
:103C00000461DCF8004004623BB910BC80F8243049
:103C100080F8263080F82530704791F828300E491A
:103C2000003B18BF012380F8243092F828200B783D
:103C3000003A18BF0122003B18BF012310BC80F8D6
:103C4000262080F825307047704700BF5C000020B8
:103C5000140000205C6501202C65012028650120EE
:103C60002465012020650120016881B191F800C020
:103C7000BCF1200F13D90A46634603E012F8013F56
:103C8000202B0CD93A2BF9D1BCF1300F02D04FF0D8
:103C9000FF30704701318A42F9D1013202600020C1
:103CA000704700BF48B10268034632B1107820B1B6
:103CB000B3F804C0D088844503D0002309200B60EA
:103CC000704700B583B05078CDE90013FFF7FEF9D7
:103CD00010F00100009904D1019B1B680B6003B038
:103CE00000BD092000230B6003B000BDC3780BB9F1
:103CF0000020704770B582B0C26A019200F13001B5
:103D00000446012340780E46FFF708FAC8B9216A35
:103D1000019AA369E070511A99420FD2A578012D3A
:103D200002D80BE0A369019A60781A443146012356
:103D3000013D0192FFF7F2F9012DF3D1002002B00D
:103D400070BD012002B070BD70B582B00546FFF7AE
:103D5000CDFF50B92B78032B09D00022687811468B
:103D6000FFF7F2F9003818BF012002B070BD2B79BF
:103D7000012BF2D104464FF4007205F130002146C8
:103D80000193064607F010FA4AF65522A5F82E22AE
:103D90000C4A2A6302F1FF5202F500522032C5F8A4
:103DA0001422EA68C5F81C22EA692869C5F81802D5
:103DB0000132019B6878EA623146FFF7AFF92C7156
:103DC000CBE700BF525261410A46C16A914201D11C
:103DD0000020704710B582B004460192FFF786FFBD
:103DE000019A08B102B010BD6078012304F13001DE
:103DF000FFF77EF9019A10B101204FF0FF32E26225
:103E000002B010BD4FF0000C30B563462E25C469DA
:103E10005A1CE35C202B01EB0C0E08D0052B08BFCD
:103E2000E523092A18D08EF809300CF1010C0B2A71
:103E300001D01346EBE78C4400238CF80930C369AA
:103E4000DB7A0B72C369DB690B60C369D3F8163088
:103E5000CB801B0C8B8030BDE64601EB0C048E44FE
:103E600065720CF1020C8EF80A301346CFE700BFE2
:103E700030B54FF0FF350023A94283B00446C3702C
:103E8000C56222D1B4F82E224AF655239A422AD18D
:103E900094F83030E92B08D0EB2B02D0022003B08D
:103EA00030BD94F83230902BF8D1D4F86630114AF6
:103EB00023F07F4393421BD0D4F882000E4BC01AEC
:103EC00018BF0120400003B030BD0A460191407880
:103ED000012304F13001FFF70BF9019A30B10420FE
:103EE000E56203B030BD032003B030BDE262C9E734
:103EF0000020E8E746415400464154332DE9F041A3
:103F0000002386B00B6001911546FFF7ADFE01302E
:103F100000F0B9808D4B1C68002C00F0BC8001992A
:103F20000C60237805F0FE0563B16078FFF7CEF8EA
:103F3000C60707D415B1410700F1A980002006B0DB
:103F4000BDE8F08100202080FFF7A6F8C20700F14D
:103F50008E8015B1430700F19A8000212046FFF7BB
:103F600087FF022868D0042800F09780012898BFB6
:103F7000002178D8B4F83B30B3F5007F73D1B4F8A2
:103F8000460000B9606D94F84020A061531E012BDB
:103F9000A27068D894F83D306381002B63D05D1E19
:103FA0001D4260D1B4F841E0A4F808E01EF00F0F04
:103FB00059D1B4F8435005B9256DE68F002E52D083
:103FC00000FB02F206EB1E1C944465454BD3A5EBA7
:103FD0000C059D4247D3B5FBF3F54FF6F577731803
:103FE000BD420CEB0106B04605F1020C57D9236225
:103FF000B4F85A30A6625EEA0303C4F814C0E16163
:1040000031D14FEA8C0303F2FF13E26D6262B0EB31
:10401000532F28D3B4F860204FF0FF338020012ABB
:10402000C4E90333207170D00323494A23701388F5
:1040300001331380E38081E702AD04F5F77304F2E6
:104040002E2029461A7902B19A6841F8042B1033C0
:104050009842F7D12968032069B9043506AB9D421F
:10406000F8D1042819D00D2006B0BDE8F081032056
:1040700006B0BDE8F08120460191FFF7F9FE012866
:104080000199EAD876E70B2006B0BDE8F0810A2056
:1040900006B0BDE8F0810C20E6E70120E4E740F639
:1040A000F576B542E161C4F82880C4F814C02362F3
:1040B00013D9BEF1000FD6D04FEA4C011A4401F2D9
:1040C000FF13B0EB532F6262CDD34FF0FF3380224A
:1040D000C4E9033322710223A7E7BEF1000FC2D067
:1040E00013440CF0010202F2FF120CEB4C0C02EB39
:1040F0005C02B0EB522F6362B5D34FF0FF338022E6
:10410000C4E90333227101238FE701312046FFF711
:104110005BFE002888D1B4F82E2220714AF6552380
:104120009A4281D1226B0B4B9A427FF47DAF03F10F
:10413000FF53D4F8142203F5005320339A427FF43E
:1041400073AFD4F8183223616EE700BFE499012001
:10415000E0990120525261412DE9F0410378022B90
:1041600082B004460D4616463ED0032B2AD0012BC2
:104170004FD1026A01EB510102EB51220F46C16A95
:104180008A424AD100F13001781C15F00102C7F3D0
:1041900008039046074673D0CA5C02F00F0242EA59
:1041A0000612CA540123256AE370E36A05EB502521
:1041B0009D426ED1C0F308031944330901220B70EC
:1041C000E27022E0026AC36A02EBD1129A4244D141
:1041D00000F13001AD0005F4FE7501224B5966F384
:1041E0001B034B51E27010E0026AC36A02EB11221A
:1041F0009A421ED100F130016D0005F4FF754A1995
:104200004E550123310A5170E370002002B0BDE821
:10421000F081022002B0BDE8F081CDE90032FFF765
:1042200065FDDDE90032002858D0012002B0BDE86C
:10423000F0810092FFF75AFD009A0028F5D104F1B1
:10424000300160780123CDE90012FEF751FF00280C
:1042500040D1019A0099E262CEE70092FFF746FD55
:10426000009A0028E1D104F1300160780123CDE902
:104270000012FEF73DFF68BB019A0099E262A9E7D0
:10428000CE540123256AE370E36A05EB5025AB4267
:1042900016D020460091FFF729FD00990028C4D1CF
:1042A000607801232A46FEF723FF98B90099E5625A
:1042B000C7F308031944B8F1000F7FF47EAF02E0A2
:1042C000C0F3080319440B78C6F3032223F00F034D
:1042D000134373E74FF0FF33E362A6E704F13001C5
:1042E00060780091FEF704FFDDE900120028F1D1AB
:1042F000E26249E701292DD9426991422AD22DE98A
:10430000F0410378022B82B005460E4632D0032BD3
:1043100022D0012B3AD101EB5104016AD0F82CC014
:1043200001EB5422624535D1C4F308032B44621CCF
:1043300093F83030174601EB5222624528469846E2
:1043400066D00092FFF7D2FC009A002857D04FF0B9
:10435000FF301CE001207047026AC36A02EBD112F1
:104360009A423CD1B10001F4FE716B18186B20F039
:1043700070400CE0026AC36A02EB11229A421ED11D
:10438000730003F4FF73EB18188E00E0012002B0F5
:10439000BDE8F081CDE90023FFF7A8FCDDE90023AB
:1043A0000028D4D16878009205F13001FEF7A0FE14
:1043B000009A002839D1296AEA629446B4E700924B
:1043C000FFF794FC009A0028C1D16878012305F119
:1043D0003001FEF78DFE40BB009AEA62D0E7009202
:1043E000FFF784FC009A0028B1D16878012305F119
:1043F0003001FEF77DFEC0B9009AEA62B2E7687844
:10440000012305F13001FEF773FE70B9009AEA62EC
:10441000C7F30803EB1893F8303048EA0320F3079A
:104420004CBF0009C0F30B00B1E74FF0FF33EB6264
:104430008DE700BF38B5816805680023036129B99D
:104440002B78022B19D96B6ABBB119466B8903BB58
:104450000446284605E001280DD96B6998420AD226
:104460002068FFF747FF431C0146F4D1012038BD07
:104470000023C0E90513022038BD2B89002BFAD098
:104480006B6AC0E90513002BF5D03035C5610020FB
:1044900038BD6A698C1E023A9442E9D2AA6A04FBCA
:1044A0000323EEE701293AD9F8B505686B698B4219
:1044B0000E4625D91146074622BB284611E0FFF7D4
:1044C0004BFEF0B9D5E90432911E8B4205D2297911
:1044D000013341F001012B612971A24221D93868D1
:1044E00026463146FFF706FF04460022314628469D
:1044F000BCB1012C04D0631C15D06B699E42DED385
:104500000220F8BD012AFBD09342F9D94FF0FF32C7
:104510002846FFF721FE0028F3D13868E1E70220A2
:1045200070470020F8BD0120F8BD00BF2DE9F04123
:1045300006460768884600293BD1FD687B69002D47
:1045400035D09D4228BF01252C4606E001284FD0DA
:10455000013051D0AC4239D07B6901349C4202D346
:10456000012D33D0022430682146FFF7C3FE002816
:10457000ECD1012C3CD97B699C4239D24FF0FF32FF
:1045800021463846FFF7E8FD80BBB8F1000F21D186
:10459000D7E90423023B9A42FC6001D8013A3A6110
:1045A0003B7943F001033B712046BDE8F0810125D2
:1045B000CAE73846FFF79EFE0128044618D9431C77
:1045C0001AD07B698342EFD84546BDE700242046D8
:1045D000BDE8F081414601290AD07B69984507D2A0
:1045E00022463846FFF7B8FD0028D1D0012803D075
:1045F00001242046BDE8F0814FF0FF34D4E700BF2E
:10460000826992B32DE9F04F04692034B4F5001F9C
:1046100083B026D20D4601680346C4F308008946DC
:10462000074648B101F1300808EB07021C61DA6166
:10463000002003B0BDE8F08F596901329A6149B199
:10464000B9F80A20013A12EA542292460FD009F131
:104650003008E9E7B9F80820B2EB541FF7D8002278
:104660009A61042003B0BDE8F08F042070474846EB
:104670000093FFF73FFE0128009B834619D9B0F154
:10468000FF3F5ED0D9F81420824214D9861E09F16A
:104690003008C3F814B0D9F81420023AB24205D950
:1046A000B9F80A10D9F8282006FB012AC3F818A087
:1046B000BAE70220BDE7002DD1D059690093184612
:1046C000FFF734FF0546834600283CD00128F0D090
:1046D000431C36D04846FFF709FB014688BB09F169
:1046E00030004FF400728046019106F05DFDD9F86C
:1046F0001420B9F80A00009B023AAE1E964236BF5B
:10470000D9F82820019A06FB0022C9F82C20E0B134
:1047100000210BE00099D9F82C20B9F80A00019B80
:10472000013101328842C9F82C200FD94FF0010223
:1047300089F803204846CDE90013FFF7D7FA00288F
:10474000E8D0012075E7072073E70146521AC9F83F
:104750002C209EE72DE9F04F036883B01A468A4665
:1047600011F8013B2F2BFAD05C2BF8D0002383608B
:104770009AF800301F2B40F2CC806E4F044600F1B7
:1047800020094FF020369046C9F80460C9F800604F
:10479000C9F807609AF80030202B0CD9D6460025BE
:1047A0004FF0080C01202F2B63D05C2B61D02E2BF7
:1047B00005D0654540D3062003B0BDE8F08FBCF1BD
:1047C0000B0FF8D008254FF00B0C1EF8013F202BE3
:1047D00000F10100E7D8824494F820202568E52AFA
:1047E00004BF052284F82020202B8CBF0023012346
:1047F0009B0084F82B302046FFF71CFE0028DBD1FD
:1048000005F130030193D4F818B0EB6A9B453FD013
:104810002846FFF76BFA0028CED10199687801236A
:104820005A46FEF765FC002830D04FF0FF330120D8
:10483000EB6203B0BDE8F08F190602D53E4A803B1B
:10484000D35C3E4A2221994210D012F8011FBA428D
:10485000F9D1A3F16101A3F12002C9B2D2B21929A1
:1048600098BF134609F805300135AEE7002BF0D0AC
:10487000A1E70AEB000211782F29924602F101020A
:10488000F9D05C29F7D0002DA6D194E7C5F82CB05B
:10489000E1690B78002B44D091F80BB00BF03F038B
:1048A000A371C87A10F008000AD000212046FFF753
:1048B000A7FE0028A7D0042894F82B3033D07BE73C
:1048C0004A1E04F11F0C0A3101E0002BEDD112F851
:1048D000013F1CF801EF8A42A3EB0E03F5D1002B38
:1048E000E3D194F82B305A073FF566AF1BF0100F59
:1048F0001BD0226998F80010C2F3080208F13003B7
:10490000134403295A8B04BF9B8A42EA0342A260E4
:104910003AE7802380F82B3003B0BDE8F04FFFF773
:1049200089BD94F82B305B0701D4052044E70420AF
:1049300042E700BF0AEB0008A8EE0008FCEA000806
:1049400070B582B006680446FFF774FD054698B955
:10495000A269F36A9A42304611D1E0690378E52BE7
:1049600015D001219BB12046FFF74AFE03460028DF
:10497000EED0042809D10725284602B070BD019267
:10498000FFF7B4F9019A034618B31D46F4E7A2698C
:10499000F36A9A4213D12022002106F005FCE26955
:1049A00004F12003013A2B3413F8011B02F8011F14
:1049B0009C42F9D101232846F37002B070BD304605
:1049C0000192FFF793F9019A68B10125284602B0D8
:1049D00070BD7078012306F13001FEF789FB019A62
:1049E00048B9F262B9E77078012306F13001FEF7A9
:1049F0007FFB019A18B14FF0FF33F362E5E7F262F3
:104A0000E069C8E710B584B01446019003A800918E
:104A10000391FFF729F9013016D00D490B680BB14E
:104A200000221A70019B6BB10022012C1A700B60DE
:104A300002D0002004B010BD01A96846FFF75EFA5D
:104A400004B010BD0B60F4E70B2004B010BD00BF34
:104A5000E49901202DE9F0478EB00191002800F083
:104A600094801546064602F03F0802A902F03F0274
:104A700001A8FFF743FA044628B10023336020461B
:104A80000EB0BDE8F087029B8DF812000A900199E4
:104A9000039303A81F46FFF75DFE05F01C030028E3
:104AA00035D19DF93720824274DB9DF81200DDF884
:104AB00028908BB310F0110F6ED169077FD42A07AD
:104AC00030D55E4BC9F80E30C9F81630202389F86E
:104AD0000B303B78B9F81A10032B04BFB9F8143027
:104AE00041EA03414FF00003A9F81A303A78032A4B
:104AF0004FF0000208BFA9F81430C9F81C200123A8
:104B0000FD6AFB7000295CD148F040080BE00BB156
:104B1000042845D00446B0E7C3063FD4AD0701D50D
:104B2000C10739D4FD6AC6E908593B78B9F81A10AB
:104B3000032B04BFB9F8143041EA0341B160D9F83E
:104B40001C50F5603760FB88B38018F0200F4FF0E1
:104B5000000386F810807374F36173618FD0002DA9
:104B60008DD075617B895B029D4242D9306800938C
:104B7000FFF7C0FB009B01280146A5EB03051BD9ED
:104B8000421CF1D1B061012477E7092420460EB020
:104B9000BDE8F087062470E707246EE704246CE77D
:104BA00003A8FFF7CDFE0028B4D19DF81200DDF870
:104BB000289048F0080884E7B06102245DE70824E3
:104BC0005BE78DF8120003A80091CDF82890FFF75D
:104BD00069FC009900289DD1FA6AAA4201F1FF3AC6
:104BE00038461CD0FFF782F80123D8B1C7F80CA0D3
:104BF000C9E7C5F30803B161002B3FF440AF7B69FF
:104C00000239023B9942D8D27A89BB6A01FB02334E
:104C1000002BD2D003EB5523F36130E7FD62C7F8D8
:104C20000CA071E778782A4607F13001FEF760FAA8
:104C30000028F3D04FF0FF33FB62D7E70000214A92
:104C40002DE9F04F984685B000230F46C8F8003094
:104C500003A904461546FFF725F8002854D1607CC7
:104C6000002852D1227C910740F1C1806369EB4258
:104C700028BFDD43002D00F0A1808346C3F3080A5E
:104C8000039EBAF1000F43D17289013A12EA532A06
:104C90000ED1002B40F08980A068002800F0A98088
:104CA000012871D0431C3DD0A368A06103B9A06066
:104CB000F26AE3699A4200F09380A3697269023B49
:104CC000023A934260D27189B26A01FB0322002A40
:104CD0005AD06B0A0AEB02095ED00AEB0300884245
:104CE00088BFA1EB0A03707801934A463946FEF764
:104CF00015FAB8B9F16A019BA1EB09029A42C0F01A
:104D00008F804FEA432A2CE0092005B0BDE8F08FE0
:104D1000D4F81C90F36A4B450CD03046FEF7E6FF02
:104D200000284FD04FF00109484684F8119005B093
:104D3000BDE8F08F534606F13001CAF5007AAA4566
:104D400001EB030228BFAA46013A07EB0A003B46E3
:104D500013F8011B02F8011F9842F9D14FF001032B
:104D6000F3706369E26853449A4238BF1A4663613C
:104D7000E260D8F80030B5EB0A055344C8F80030BB
:104D80001AD06369574479E74FF00209484684F81E
:104D9000119005B0BDE8F08F6369E1688B4230D2B5
:104DA000C4F81C90C3F3080AB4E7A1692046FFF7D2
:104DB000BDFB00287FF474AF227C584642F04002CD
:104DC0002274A2E706F130017078019101234A466E
:104DD000FEF78EF90199E8B14FF0FF33F362A1E7D6
:104DE0003046FEF783FF00283FF467AF9AE70720BD
:104DF0008BE751462046FFF799FB00287FF450AF20
:104E0000DAE73046FEF772FF00288BD1C6F82C9007
:104E10006369C5E7C6F82C906369C3F308038CE7A0
:104E200007EB422206F12F0102F5007C12F8010B7C
:104E300001F8010F6245F9D10022F27061E700BF6D
:104E400038B103682BB11A781AB18188DA88914297
:104E500001D00920704770B5044682B005465878E5
:104E6000FEF734F9C30705D4207C10F0400004D1CC
:104E700002B070BD092002B070BD2368226A1846D6
:104E80001E46DB6A9A421ED16B6ADA7A42F0200231
:104E9000DA72AA6829689A76100AD87609780329FE
:104EA00018D0E968154AD961C3F816204FF00001FF
:104EB000012259823046F270FEF746FF2B7C23F028
:104EC00040032B74D4E70192FEF710FF019A30B132
:104ED0000120CDE7120C110A1A755975E1E77078B7
:104EE000012306F13001FEF703F9019A18B14FF0E2
:104EF000FF33F362ECE7F262C6E700BF0000214A2D
:104F000010B582B00446FFF79BFF08B102B010BD98
:104F100001A92046FEF7C6FE10B9206002B010BD00
:104F2000092002B010BD00BF10B58EB00C46019034
:104F3000002203A901A8FEF7E1FF034610B11846BD
:104F40000EB010BD019903A8FFF704FC034600282A
:104F5000F5D19DF9372082420CDB2146002CEED0A2
:104F6000099A6072002AEAD0009003A8FEF74AFF6F
:104F7000009BE4E70623E2E72DE9F0438FB002222D
:104F8000019002A901A8FEF7B9FF029C0394034611
:104F900018B118460FB0BDE8F0830090019903A83E
:104FA000FFF7D8FB0346C0B10428F2D1009903A84B
:104FB000FFF7BCFA63895B020646069390B10128AD
:104FC00000F09F8001300FD101230022314603A859
:104FD0000093FFF767FA009BDBE7082318460FB042
:104FE000BDE8F0830723F0E72046FEF77FFE034687
:104FF0000028E9D162690093023AB11E91423EBF96
:105000006089A26A01FB00274FF400724FF0000193
:1050100004F1300028BF1F4606F0C6F84FF02032DA
:10502000217822636263C4F83720504AC4F84620CE
:10503000330A2E2210200329994684F84B3084F835
:105040004A60009B84F8302084F83B005BD0D4F8A1
:1050500038C0059B616BD4F83CE0206BC4F858C0A5
:10506000D4F848C02065C4F868C0206CC4F85CE07F
:105070006165D4F84CE0616C84F86A301B0AC4F8AE
:105080006CE02066616684F8512084F86B30638997
:105090001D46C3B13B46E36200934FF00103E3704A
:1050A0002046FEF723FE00288ED1009B01460133E7
:1050B0004FF4007204F13000009306F075F8009B85
:1050C000EA199342E7D103A8FFF73AFC0346002808
:1050D0007FF47BAF0A9B254AC3F816209E7683F89F
:1050E0001B902278032A03D1320C110A1A755975C4
:1050F00010210122D9722046E270FEF725FE0346F8
:1051000047E7022361E7310C84F84410090A206B59
:1051100084F84510E16B2065E16584F8512005991C
:10512000626AD4F834E0D4F838C0C4F854E08A4253
:1051300007BF002211460B460A0AD4F844E0C4F81F
:1051400064E0090C206CE56CC4F858C084F8641065
:10515000D4F848C0C4F868C0090AE566206684F837
:105160006B2084F86A3084F8651090E70000214ACB
:105170002DE9F04F8DB00D46099009A814461F4641
:10518000FEF772FD013000F09A80B64B1B680BB140
:1051900000221A700020FDF77FFFC60700F18B8008
:1051A00010F0040018D10AAA0321FDF7CDFF20B9A1
:1051B0000A9A531EB3F5004F7AD301230A937CB1A8
:1051C000A94BA4F500729A4202D8631E234207D06D
:1051D00013200DB0BDE8F08F0A200DB0BDE8F08FB0
:1051E000169B169A5B0A22F4FF7A99462AF0010A66
:1051F000002B59D00BAA01210020FDF7A5FF0028A4
:1052000040F0588115F008020B9B05925BD13E2BB4
:105210004AD93F3B4FF03F0856E06FF02000A0EB2B
:10522000080008F101040390019408F12100A3F1A2
:10523000210402900494180B0E46002A00F06B81A2
:10524000964640F6F574B3FBFEF1A14240F255815B
:10525000023149004FF0020B029C01F2FF1104EBF6
:105260005121C8EB0E1C8C44019C00949C451BD81A
:10527000039C294431402144049CBBF1020FA4EB60
:10528000010CBCFBFEFC40F06D814FF6F574A445AB
:1052900000F2258140F6F574A44500F28F811AB919
:1052A0004FEA4E02802AC8D90E200DB0BDE8F08F1B
:1052B0001A4284D081E703200DB0BDE8F08F0B20A7
:1052C0000DB0BDE8F08F80467F2B0B93ECD9B4F581
:1052D000813F4FEA5422BFF47BAF15F002000690E5
:1052E00040F0EA80E8077FF573AF02200A990328AF
:1052F00001F1FF35C1F100018FD1002A00F01C81BE
:1053000002929346029A08F1200C0E46B3FBF2F08B
:1053100056494FEA800EA0F57F40F63888420EF2DB
:10532000072EC1D80CEB5E214FEA5E2005EB010E83
:105330000EEA060E0190AEEB0100C8EB021E8E4491
:105340009E45B1D8019C00F12001A3EB040EAEEB09
:10535000010E04914FF6F571BEFBF2FE8E4540F250
:10536000B58002920CEB000200920022CDF818E00A
:1053700003924FF0030B4FF400720021384607935D
:1053800005F012FF3A49079B7A1E07F10A0C11F843
:10539000010B02F8010F6245F9D1029A7A73049A5F
:1053A000BA73120AFA73BBF1030218BF0122B3F5F4
:1053B000803F38BFFB744FEA42023ABF1B0A3B757D
:1053C0003B62BA7400234FF40072A7F80B207B777E
:1053D0000122BB77FB77274B3A74BB610022F8238D
:1053E000BBF1030F7A747B75CDF81C8087F81C80A5
:1053F00000F0ED800198204AC7F826204A221F4B72
:1054000087F82A20020AFA758022B87587F82420C6
:1054100003F1130007F12A0213F8011B02F8011F20
:105420008342F9D14AF655233946A7F8FE31424660
:1054300001230020FDF772FE014600283AD107F54E
:10544000FF7352463846049305F0AEFE4FF6F873EC
:105450003B80FF23BB70BBF1010318BF4FF0FF334C
:10546000FB7019E0E499012000FEFF00FFFFFE0F32
:105470000CEB00083F00FF00290000212CEB000886
:1054800001464FF40072384605F08EFE019BF2187B
:10549000E31A0092019374D0019C009EA1454B46F3
:1054A000324628BF2346394600200193FDF736FED9
:1054B0000028E5D0012090E605F0070102294FD031
:1054C00005F00100C0F10300C0B20FE7BBF1000F0F
:1054D0007FF4EAAE52083FF4E7AE934616E7A2B96E
:1054E0004FEA4E0EBEF1400F38D9069919BBBEF1F6
:1054F000800F3FF6D9AE7246A3E601EB41010131C0
:10550000490803314FF0010BA6E606983146002802
:105510003FF4CAAEF4E64FF0010EDFF84CC271461C
:1055200006E03CF8021F4FEA4E0E00293FF489AE18
:105530008142F6D985E6314601201E46DFF82CE28D
:105540005B0C844604E03EF8020F4FEA4C0C08B1B5
:105550009842F8D9CDF808C03346D2E672466CE6D8
:105560000320C3E640F6F5729445CDE9011ECDF85F
:1055700018C03FF699AE01222021CDE903129346CF
:10558000F9E6DDE90223BBF1030F08BF13460393DD
:10559000009A05E0DDE900231A44E31A03937FD063
:1055A000039C4C452346394628BF4B460020CDE995
:1055B0000023FDF7B3FD0028ECD07BE7CDE9011E09
:1055C00020220121CDE90321CDF818C0D3E6614A9C
:1055D0003A63614A019BC7F842204A227B6287F8FE
:1055E00046205E4B0222FA62802287F8402003F1B7
:1055F000130007F1460213F8011B02F8011F834252
:10560000F9D14AF65522A7F8FE2139460123424630
:105610000020FDF783FD089000287FF44BAF0123A5
:1056200008F10602394607F5FF760496FDF776FD88
:10563000089E4FF400723146384605F0B5FD4AF633
:105640005523A7F8FE31069B013BC7F8E831444BD0
:105650003B6003F1FF5303F500532033C7F8E431F7
:105660000223C7F8EC3108F107020123394630461E
:10567000FDF754FD012308EB030239463046FDF7E0
:105680004DFD52463146384605F08EFD6FF007035A
:105690003B604FF0FF337B606FF07043BB60FBE615
:1056A000BBF1030F53D00B9BB3F5803F4CD2BBF142
:1056B000020F14BF4FF001094FF00409059B002BA6
:1056C00039D1059E4FF400723146384605F06CFD25
:1056D0000B9B049D2348079C4AF6552CA5F800C057
:1056E00043F6C16108EB0302B2FBF1F2910887F8BF
:1056F000C5211A0A41F03F0187F8CA3187F8CB214A
:105700004FF0FE0C1A0C1B0EC7F8BE0187F8C4112F
:1057100087F8CC2187F8CD3187F8C291394687F8D0
:10572000C64101233246304687F8C3C1FDF7F6FC77
:1057300000287FF4BFAE002211461046FDF704FD9D
:10574000003818BF012048E54FF00609B6E74FF0D2
:105750000C09B3E7010006002900002118EB00083E
:10576000525261410001010088EE000898EE0008E5
:1057700010B5104B104A1B68127882B004464FF4E3
:105780007A70B0FBF2F0B3FBF0F000F0A9F808B9C2
:105790000F2C02D9012002B010BD02460190214613
:1057A0004FF0FF3000F05CF8044B01981C6002B031
:1057B00010BD00BFAC000020A4000020A800002005
:1057C00008B50B4B1A6842F400721A601A6842F46A
:1057D00080621A601A6842F480721A60032000F036
:1057E0002DF80F20FFF7C4FF04F01EF8002008BDBD
:1057F000003C0240034A044B11681B780B441360C1
:10580000704700BFE8990120A4000020014B1868F0
:10581000704700BFE899012038B50446FFF7F6FF4E
:10582000631C054602D0044B1B781C44FFF7EEFFB7
:10583000401BA042FAD338BDA40000200749CA6823
:1058400003024FF6FF0003F4E0630240134343F00A
:10585000BF6343F40033CB60704700BF00ED00E04E
:1058600000B5164BDB68C3F30223A3F1030CBCF1B4
:10587000040F19D84FF0FF3EC3F107030EFA03F3EC
:105880000EFA0CFE22EA0E02DB43194001FA0CF17B
:10589000114300284FEA01110ADB00F1604000F5D6
:1058A000614080F8001300BD00220F239446ECE70E
:1058B000034B00F00F00C318197600BD00ED00E0A7
:1058C000FCEC00E0002807DB044A4109012300F05A
:1058D0001F00834042F82130704700BF00E100E024
:1058E0000138B0F1807F01D3012070474FF0E023F1
:1058F0000022586104484FF0F00C072180F823C0C3
:105900009A6110461961704700ED00E0002800F030
:105910006F8170B50368DD0782B0044631D59E49BA
:105920008A6802F00C02042A00F0F2808A6802F011
:105930000C02082A00F0E8806368B3F5803F00F0AD
:10594000F180B3F5A02F944B1A6800F07E8122F409
:1059500080321A601A6822F480221A606368002B71
:1059600000F00881FFF752FF054605E0FFF74EFF04
:10597000401B642800F2FB80874B1B689B03F5D516
:105980002368990729D5844B9A6812F00C0F00F010
:1059900094809A6802F00C02082A00F08A80E3687A
:1059A000002B00F00E817D4B01221A60FFF72EFFC5
:1059B000054605E0FFF72AFF401B022800F2D780CA
:1059C000754B1B689E07F5D5734922690B6823F058
:1059D000F80343EAC2030B6023681A0754D45D0737
:1059E00032D56D4A136C13F0805300F0818000268D
:1059F0006B4B1B68D80540F1A880A368012B00F011
:105A0000F180052B644B1A6F00F02D8122F001020A
:105A10001A671A6F22F004021A67A368002B00F0BD
:105A2000B780FFF7F3FE054607E0FFF7EFFE41F210
:105A30008833401B984200F29A80574B1B6F9A079D
:105A4000F3D5002E40F00981A369D3B1524A926880
:105A500002F00C02082A00F0CD80022B4F4B4FF0D1
:105A600000021A6600F00781FFF7D0FE044604E04A
:105A7000FFF7CCFE001B022879D8474B1B689B011F
:105A8000F6D4002002B070BD636903B3434B01221A
:105A9000C3F8802EFFF7BAFE054604E0FFF7B6FE16
:105AA000401B022863D83C4B5B6F9B07F6D52368ED
:105AB00095E75B685A023FF572AF374B1B689B074F
:105AC00036D5E368012B33D0012002B070BD334AD4
:105AD000C2F8803EFFF79AFE054604E0FFF796FE07
